:020000040800F2
:10000000D842002001010008F11600080B01000889
:10001000591600081D0A00083F1E000800000000D5
:10002000000000000000000000000000AD18000803
:10003000F112000800000000170100081901000873
:100040001B0100081B0100081B0100081B01000820
:100050001B0100081B0100081B0100081B01000810
:100060001B0100081B0100081B0100081B01000800
:100070001B0100081B0100081B0100081B010008F0
:100080001B0100081B0100081B0100081B010008E0
:100090001B0100081B0100081B010008F5120008E5
:1000A0001B0100081B0100081B0100081B010008C0
:1000B0001B0100081B0100081B0100081B010008B0
:1000C0001B0100081B0100081B0100081B010008A0
:1000D0001B0100081D1C00081B0100081B01000873
:1000E0001B0100081B0100081B010008DFF80CD0F1
:1000F00000F082FC004800471D210008D842002083
:100100000648804706480047FEE7FEE7FEE7FEE7B1
:10011000FEE7FEE7FEE7FEE7FEE7FEE7C11900089F
:10012000ED000008F0B480EA0102D40F4200B2EB07
:10013000410F02D20246084611464A0042D0C30D82
:10014000DDB2C1F3C752AD1A202D35DAC1F3160165
:1001500041F4000204B15242C5F1200602FA06F150
:100160002A411044B3EBD05F23D0C4B1012DA0EBE2
:10017000C35009DCF0BC4FF0004202EAC352DBB2CC
:1001800000F5000000F000BB400000F1807000EBC3
:10019000C350A0F1807040EAD170490009E04908DD
:1001A00041EAC071A0EBC35000F50000400800EB2D
:1001B000C350F0BC00F0DFBA6142012202EB410102
:1001C000001BF6E7F0BC704781F00041AAE780F021
:1001D0000040A7E780EA010210B502F000434000AA
:1001E00022D04A001FD0010E01EB1261C0F356006D
:1001F000C2F3560240F4000042F40002A0FB0220C9
:1002000000047F39140400D0401C50EA124001D48D
:100210004000491EC2B20C0604EBD010401C40083E
:10022000802A02D003E0002010BD20F00100002948
:1002300000DA0020184310BD30B480EA010202F059
:10024000004530F0004221F0004013D090B1C30DC2
:10025000D40DC2F31601C0F31600E41A41F40001F4
:1002600040F400027D34914201D3641C00E0490057
:10027000002C02DA30BC002070474FF4000000234D
:10028000914201D3891A034340084FEA4101F7D153
:1002900051B1914202D14FF0004105E002D24FF03E
:1002A000010101E06FF0010103EBC450284430BCB0
:1002B00000F061BA2DE9FE4F804681EA0300C00FCD
:1002C0000C46009021F0004123F00045B8EB0200FD
:1002D000A94105D24046214690461C460B4602469F
:1002E00023F00040104347D0270DC7F30A00C3F3A3
:1002F0000A510290401A019040286BDAC3F31300B0
:1003000040F4801B0098924620B10023D2EB030AF0
:1003100063EB0B0B01985946C0F14002504600F0C8
:10032000F9F906460D4650465946019A00F011FA71
:1003300010EB08006141002487EA115284EAE77358
:100340001A4340D0009A62B3019A012A4FEA075239
:1003500015DC001B61EB02014FF0004202EA07527C
:10036000CDE90042001C41F5801132462B4600F0D9
:1003700048FA03B0BDE8F08F40462146F9E7001B7C
:1003800061EB0201001C41F5801300185B4120184D
:10039000A2F5001747EB030140EAD570B6196D418D
:1003A00011E06D084FEA360645EAC0754FEA07527C
:1003B000001B61EB0201001C41F5801149084FEA66
:1003C00030000019514132462B4603B0BDE8F04FD2
:1003D00000F008BA0098012240000023D0EB02028E
:1003E00063EBE073009821464FEAE074B8EB00003D
:1003F00061EB0401E9E783F000435BE781F0004132
:1004000058E72DE9FE4F81EA030404F0004421F08F
:10041000004100944FF0000B23F0004350EA010428
:100420005ED052EA03045BD0C3F30A54C1F30A5509
:100430002C44A4F2F3340194A0FB0254C1F3130141
:1004400041F48011C3F3130343F4801301FB02440E
:1004500000FB034E840A970A44EA815447EA835713
:10046000A4FB076802958D0A05FB07854FEA932CCC
:1004700004FB0C542705029D4FEA065847EA16373D
:10048000B5EB08056EEB070C870E920E47EA811755
:1004900042EA8312A7FB0201B6EB0B0164EB0004F6
:1004A0002B0D43EA0C335E1844EB1C50DA465146E0
:1004B000E7FB0201C5F313044FEA0B3343EA14537D
:1004C0004FEA0432019C43EA0603A4F10C040294AF
:1004D000009CCDE900B400F094F903B0BDE8F08FC2
:1004E00000200146F9E72DE9F04D81EA030404F00C
:1004F000004B21F0004514464FF0000A23F0004164
:1005000050EA050220D054EA01021DD0C5F30A5773
:100510000246C5F31303C1F31300C1F30A5640F4B6
:10052000801543F48013A7EB0608101BD64608F28B
:10053000FD3873EB050002D308F1010801E09218C1
:100540005B41B8F1000F03DA00200146BDE8F08DF1
:1005500000204FF48011064684460EE0171B73EB13
:10056000050705D3121B63EB050306434CEA010C98
:1005700049084FEA300092185B4150EA0107EDD17B
:1005800052EA030012D082EA040083EA050108431C
:1005900005D0101BAB4106D20122002306E0002249
:1005A0004FF0004302E06FF0010253101AEB060017
:1005B0004CEB085110EB0A0041EB0B01BDE8F04D8C
:1005C00000F010B9C10F80EAE0700844CA07962312
:1005D000002100F0D9B896230022114600F0D4B8CB
:1005E0000EB5C10F80EAE0700844CA07002140F24E
:1005F00033438DE80E000A460B4600F002F903B0C3
:1006000000BD00F0004220F00040C10DC0F3160014
:1006100040F400007F2901DA00207047962903DCAE
:10062000C1F19601C84001E096398840002AF4D013
:100630004042704720F00040C10DC0F3160040F466
:1006400000007F2901DA00207047962903DCC1F100
:100650009601C8407047963988407047C1F30A52E6
:1006600010B5C1F3130140F2FF3341F480119A42F7
:1006700001DA002010BD40F233439A42A2F2334225
:1006800003DC524200F055F810BD904010BD00F060
:10069000004230F000400AD0C10D01F56071C0F396
:1006A000160042EA0151C20840071143704700207A
:1006B0000146704701F0004330B421F0004150EA98
:1006C000010206D00A0DA2F56072C1F31301002ADF
:1006D00002DC30BC00207047440F44EAC104C10072
:1006E000E01830BC00EBC25000F045B8002801DB38
:1006F000C0F10040002901DBC1F100418142704797
:10070000002801DBC0F10040002901DBC1F10041FC
:1007100088427047202A04DB203A00FA02F10020C8
:1007200070479140C2F1200320FA03F3194390402F
:100730007047202A04DB203A21FA02F0002170479A
:1007400021FA02F3D040C2F1200291400843194639
:100750007047202A06DBCB17203A41FA02F043EA21
:10076000E07306E041FA02F3D040C2F1200291406A
:100770000843194670470029A8BF7047401C49002C
:1007800008BF20F00100704710B4B0FA80FC00FAF6
:100790000CF050EA010404BF10BC704749B1CCF121
:1007A000200421FA04F411FA0CF118BF01212143AD
:1007B0000843A3EB0C01CB1D4FEA00614FEA102068
:1007C00042BF002010BC704700EBC350104400290A
:1007D000A4BF10BC7047401C490008BF20F00100B6
:1007E00010BC704710B5141E73F1000408DA401CE9
:1007F00041F1000192185B411A4301D120F0010040
:1008000010BD2DE9F04D92469B4611B1B1FA81F22F
:1008100002E0B0FA80F220329046FFF77BFF0446F8
:100820000F4640EA0A0041EA0B0153465A46084384
:1008300013D0114653EA010019D0C8F140025046C6
:10084000FFF777FF05460E46504659464246FFF7EA
:1008500061FF084305D0012004E020463946BDE889
:10086000F08D0020054346EAE0762C4337430A9892
:100870006305E40AA0EB08000022FD0A44EA47549D
:100880000A3002D500200146E9E701051019694147
:10089000DDE9084500196941BDE8F04DA2E72DE901
:1008A000F04D00231A461B1A8A4103DB0020014643
:1008B000BDE8F08DC1F30A52C1F3130141F4801574
:1008C0004FF0000BD10702D100186D41521E0027D6
:1008D000044640F2FF11384601EB620A3E4680466C
:1008E000024600204FF48011FFF723FFC219714127
:1008F000BB1846EB0100B4EB030C75EB000C04D302
:10090000E41A65EB000517460E46241908F10100AC
:100910006D4180463428E3DDF91946EB0600091BDA
:10092000A84103D24FF0FF32134601E000221346E4
:100930001BEB070046EB0A51BDE8F04DFFF752BF35
:100940002DE9FE4FC3F30A5701F000450024C1F31F
:100950000A56C3F31303C1F3130143F4801312EBDC
:10096000020AA64641F48011009543EB030CA7F15F
:10097000010B16E0B0EB0A0061EB0C01071E71F1F0
:10098000000707DA4FF00008D0EB080085F00045BB
:1009900068EB0101171A73EB0107EBD3761E001801
:1009A00049415E45F6DA50EA010209D0CDE900E599
:1009B000002213460296FFF724FF03B0BDE8F08F34
:1009C00020460099F9E7000030B5041E71F10004DB
:1009D00004DB4FF00044404264EB0101141E73F14C
:1009E000000405DB1C464FF00043524263EB040356
:1009F000994208BF904230BD064C074D06E0E068C2
:100A000040F0010394E8070098471034AC42F6D355
:100A1000FFF770FB5C2C00087C2C000800BFFEE791
:100A200010B50021837A012202FA03F13D4A1268CF
:100A300042F001023B4B1A603A4A1C3212688A4368
:100A4000384B1C331A60027BCAB9364A0C32126822
:100A50008A43344B0C331A604288C38842EA03430A
:100A6000304A4032847A42F834300288838842EA3D
:100A700003432C4A4032847A02EBC4025360027B67
:100A8000012A19D1274A0C3212680A43254B0C332C
:100A90001A604288038842EA0343224A4032847A39
:100AA00042F83430C288838842EA03431D4A403208
:100AB000847A02EBC4025360C27A3AB9194A121D11
:100AC00012688A43174B1B1D1A6006E0154A121D57
:100AD00012680A43134B1B1D1A60028932B9114A6E
:100AE000143212688A430F4B14331A600289012AA8
:100AF00006D10C4A143212680A430A4B14331A60A6
:100B0000427B012A06D1074A1C3212680A43054B70
:100B10001C331A60034A126822F00102014B1A606A
:100B200010BD00000066004030B5024600200023E2
:100B3000146824F002041460146844F00104146082
:100B400000E05B1C546804F001041CB94FF6FF740C
:100B5000A342F6D1546804F001040CB900206CE003
:100B60008C79012C04D1146844F08004146003E0F3
:100B7000146824F080041460CC79012C04D114682A
:100B800044F04004146003E0146824F0400414604E
:100B90000C7A012C04D1146844F02004146003E0A2
:100BA000146824F0200414604C7A012C04D11468D9
:100BB00044F01004146003E0146824F0100414607E
:100BC0008C7A012C04D1146844F00804146003E00A
:100BD000146824F008041460CC7A012C04D1146841
:100BE00044F00404146003E0146824F00404146066
:100BF0008C78A407CD7844EA05640D7944EA05446D
:100C00004D7944EA05540D886D1E2C43D461146857
:100C100024F001041460002300E05B1C546804F01D
:100C200001041CB14FF6FF74A342F6D1546804F0DE
:100C300001040CB1002000E0012030BD024600207C
:100C400019B9D36803F0030006E0012903D1136941
:100C500003F0030000E00020704700002DE9F041A0
:100C600088B004460D4616461F46DDF8388001213F
:100C7000042000F0A1FD0121480600F08DFD4FF495
:100C80008050ADF81C0003208DF81E0018208DF850
:100C90001F0007A9244800F0E1FB4FF40060ADF805
:100CA0001C0048208DF81F0007A91F4800F0D6FB44
:100CB00000208DF816008DF817008DF818008DF8BB
:100CC00019008DF81A0001208DF81B008DF8128094
:100CD0008DF813408DF814608DF81550ADF8107034
:100CE00004A91248FFF720FF00208DF80A008DF8B4
:100CF0000B0001208DF80C008020ADF800000020D2
:100D0000ADF802008020ADF804000020ADF8060028
:100D1000ADF8080001208DF80D006846FFF780FE51
:100D2000002008B0BDE8F0810008014000640040E8
:100D300010B500F5D87303EB01131B6803F004032F
:100D40001372137A53B900F5D87303EB01131B68C0
:100D500040F2FF7404EA5353136009E000F5D873BE
:100D600003EB01131B686FF0604404EAD303536084
:100D700000F5D87303EB01131B6803F002035372F1
:100D800000F5D87303EB01135B6803F00F03937254
:100D900000F5D87303EB01135B681B0AD37400F5ED
:100DA000D87303EB01139B68D37200F5D87303EB80
:100DB00001139B681C0A147300F5D87303EB01132D
:100DC0009B681C0C547300F5D87303EB01139B68EC
:100DD0001B0E937300F5D87303EB0113DB68D37319
:100DE00000F5D87303EB0113DB681C0A147400F5DB
:100DF000D87303EB0113DB681C0C547400F5D87333
:100E000003EB0113DB681B0E937421B9C36843F035
:100E10002003C36003E0036943F02003036110BDB6
:100E200010B502460020936803F08063B3F1806F31
:100E300000D110E0936803F00063B3F1006F01D1BB
:100E4000012008E0936803F08053B3F1805F01D183
:100E5000022000E00420042874D002F5C07303EBE4
:100E600000131B6803F0010402F5C07303EB0013C9
:100E70001C600B7A7BB94B7A0C8843EA445302F529
:100E8000C07404EB00142468234302F5C07404EB1F
:100E90000014236010E00B7A4C6843EAC4034C7AD8
:100EA000234302F5C07404EB00142468234302F5C5
:100EB000C07404EB001423608B7A03F00F038B7271
:100EC00002F5C07303EB00135B6823F00F0402F517
:100ED000C07303EB00135C6002F5C07303EB0013F7
:100EE0005B688C7A234302F5C07404EB00146360E2
:100EF0008B7B1C064B7B44EA03440B7B44EA0323B5
:100F0000CC7A234302F5C07404EB0014A3608B7CFD
:100F10001C064B7C44EA03440B7C44EA0323CC7B51
:100F2000234302F5C07404EB0014E36002F5C073C0
:100F300003EB00131B6843F0010402F5C07303EBDD
:100F400000131C6010BD000010B50246002321B143
:100F5000012907D002290FD109E090681D4C00EA51
:100F600004030BE090681C4C00EA040306E0906860
:100F70001A4C00EA040301E0002300BF00BF184C34
:100F8000181BA34216D007DC83B16FF080601844B1
:100F900070B1022818D111E0B0F5007F10D0114CCB
:100FA000204448B1B0F5003F0ED10BE002230DE024
:100FB00000230BE0002309E0002307E0012305E004
:100FC000012303E0012301E0002300BF00BFD8B2EA
:100FD00010BD00000300000400030008000003101F
:100FE000000100080001FFF770B504464FF0005201
:100FF0000321204600F038F80546284670BD000061
:1010000030B585B0054600211448FFF717FE10B92A
:10101000002005B030BD6A4600211048FFF788FE69
:1010200000240F480068C0430E49C1F8BC0104E029
:101030000DF10B00005D2855641C082CF8D314201A
:1010400000F0C6FF06480068C0430649C1F8BC016D
:10105000142000F0BDFF9DF80A00DAE700640040AC
:10106000BC812142008021422DE9F04186B08046BA
:101070000D4616460024700D0190C6F3D100029073
:1010800000208DF80C008DF80D008DF80E5000BF7B
:1010900006E018F804100DF10F000155601C84B231
:1010A000AC42F6DB01A90D48FFF7BAFE0746002463
:1010B00001E0601C84B239460848FFF745FF18B9C3
:1010C00040F6FF708442F4DB40F6FF70844203DB9D
:1010D000012006B0BDE8F0810020FAE7006400407E
:1010E00021B1026842F00102026004E002684FF69A
:1010F000FE731A40026070472DE9F04107460D4625
:1011000016461C460121084600F036FB052000F07B
:101110005FFF384600F022F80E4804800E48056054
:10112000466010200C4988600846C46000200861B1
:1011300080204861400088618000C861002008620A
:101140004FF40050486200208862384600F0ACF846
:10115000BDE8F0813E000020A83C002001684FF669
:10116000FE72114001600021016041608160C16038
:101170004B49884208D14A490839496841F00F0172
:10118000474A083A51608AE045491431884208D1FB
:1011900043490839496841F0F001414A083A516031
:1011A0007DE03F492831884208D13D4908394968E6
:1011B00041F470613A4A083A516070E038493C3174
:1011C000884208D136490839496841F47041344AA7
:1011D000083A516063E032495031884208D13049C1
:1011E0000839496841F470212D4A083A516056E0A7
:1011F0002B496431884208D129490839496841F4AA
:101200007001274A083A516049E0254978318842FF
:1012100008D123490839496841F07061204A083AE9
:1012200051603CE01F49884206D1011F096841F026
:101230000F01021F116032E01A491431884208D1AF
:101240001849091F096841F0F001164A121F116080
:1012500025E014492831884208D11249091F09683C
:1012600041F470610F4A121F116018E00D493C31C2
:10127000884208D10B49091F096841F47041094AA5
:10128000121F11600BE007495031884207D1054910
:10129000091F096841F47021024A121F116070474A
:1012A000080002400804024010B50022026847F618
:1012B000F0739A430C6A8B6823430C6923434C698F
:1012C00023438C692343CC6923434C6A23438C6AB0
:1012D00023431A430260CB6843600B6883604B680A
:1012E000C36010BD416070470146486880B27047D6
:1012F0007047000010B50A2000F06AFE2021074860
:1013000000F080F910B901200549087005A000F02F
:1013100099FD202000F032F810BD000000080140C7
:1013200034000020686F6D650D0A00000EB50121C4
:10133000084600F041FA0521002000F06FF8202057
:10134000019000208DF808000C208DF80900012084
:101350008DF80A0001A800F017F817208DF800009A
:1013600002208DF8010003208DF8020001208DF885
:101370000300684600F0BEF90EBD00000149086098
:101380007047000014040140002123498279002A9B
:101390003AD00A46126803689A430B461A600A1D3F
:1013A000126803689A430B1D1A60027911440A6897
:1013B00003681A430A60184A0832126803689A439D
:1013C000154B08331A601A1D126803689A43124BB2
:1013D0000C331A604279102A0ED11A1F1268036862
:1013E0001A430D4B08331A601A1D126803681A431A
:1013F000094B0C331A600DE00749427911440A6821
:1014000003681A430A6005E0027911440A68036818
:101410009A430A60704700000004014030B5002282
:101420008B071C0F0F2303FA04F20B4B8C1053F89D
:1014300024309343084C8D1044F8253023468C10FB
:1014400053F824308C07240F00FA04F42343024C91
:101450008D1044F8253030BD080001402DE9F041E1
:10146000024600250026002000230024002791F8D2
:1014700003C00CF00F0591F803C00CF0100CBCF188
:10148000000F03D091F802C04CEA050591F800C0A6
:10149000BCF1000F31D0146800202BE04FF0010C9C
:1014A0000CFA00F3B1F800C00CEA03069E4220D10A
:1014B00083004FF00F0C0CFA03F7BC4305FA03FC52
:1014C0004CEA040491F803C0BCF1280F06D14FF098
:1014D000010C0CFA00FCC2F814C00AE091F803C039
:1014E000BCF1480F05D14FF0010C0CFA00FCC2F81A
:1014F00010C0401C0828D1D31460B1F800C0BCF162
:10150000FF0F34DD546800202EE000F1080C4FF08E
:10151000010808FA0CF3B1F800C00CEA03069E4279
:1015200021D183004FF00F0C0CFA03F7BC4305FAEE
:1015300003FC4CEA040491F803C0BCF1280F05D168
:1015400000F1080C08FA0CF8C2F8148091F803C0F6
:10155000BCF1480F07D100F1080C4FF0010808FA60
:101560000CF8C2F81080401C0828CED35460BDE8A7
:10157000F0810000F0B50A46002300240021002578
:1015800000F00046B6F1004F02D11D4EF16901E0B6
:101590001B4E7168C0F3034583B200F44016B6F5E4
:1015A000401F08D121F07061154E766826F07066F4
:1015B000134F7E6012E000F48016B6F5801F06D14E
:1015C000032606FA05F4A14341F0706106E0460DDA
:1015D000360103FA06F6B14341F0706122B1460DBF
:1015E000360103FA06F6314300F00046B6F1004F2B
:1015F00002D1034EF16101E0014E7160F0BD0000C7
:10160000000001400246002093680B400BB101200E
:1016100000E00020704741617047016170470000A1
:1016200008B50121082000F0C7F84FF40040ADF8DC
:10163000000010208DF8030003208DF80200694699
:101640000448FFF70BFF4FF400410248FFF7E3FFA8
:1016500008BD0000000C014000BFFEE710B51C48AB
:10166000FFF742FE1B4908601B4800680968401AE2
:101670001A4909681A4A126802FB001017490860E3
:1016800014480068144908601248006870B9154889
:10169000007801280AD10220124908701248007807
:1016A00010B112A0FFF7A0FC022010BD094800688D
:1016B00058B90C480078022803D00A48007803285B
:1016C00003D1032007490870EFE70120EDE7000090
:1016D0006C0002402C000020280000202000002088
:1016E000240000201C0000201D0000204152320078
:1016F0007047000070B5002100230F22C47804B3A6
:10170000154C246804F4E064C4F5E064210AC1F1D6
:101710000403CA40447804FA03F184781440214356
:1017200009010E4C0678A155047804F01F05012428
:10173000AC4005786D11AD0005F1E025C5F800411C
:1017400009E0047804F01F050124AC40044D06783C
:10175000761145F8264070BD0CED00E000E400E095
:1017600080E100E002490143024A11607047000035
:101770000000FA050CED00E029B1064A5269024367
:10178000044B5A6104E0034A52698243014B5A6197
:10179000704700000010024029B1064AD269024396
:1017A000044BDA6104E0034AD2698243014BDA61F7
:1017B000704700000010024029B1064A92690243B6
:1017C000044B9A6104E0034A92698243014B9A6197
:1017D000704700000010024030B5002100220024B4
:1017E00000232D4D6D6805F00C0121B1042905D0B1
:1017F000082923D105E0294D056022E0274D056029
:101800001FE0254D6D6805F47012234D6D6805F4D9
:101810008034022505EB92421CB9214D55430560E9
:101820000BE01D4D6D6805F400351DB11C4D554391
:10183000056002E0194D5543056002E0174D056053
:1018400000BF00BF144D6D6805F0F0010909154D8A
:101850006B5C0568DD4045600F4D6D6805F4E06127
:10186000090A104D6B5C4568DD4085600A4D6D6866
:1018700005F46051C90A0B4D6B5C4568DD40C560DD
:10188000054D6D6805F44041890B074D6B5CC568DB
:10189000B5FBF3F5056130BD0010024000127A007F
:1018A00000093D004000002050000020704710B5A6
:1018B00000F002F810BD00000CB50020019000906F
:1018C0003348006840F480303149086000BF304838
:1018D000006800F4003000900198401C01900098CE
:1018E00018B90198B0F5A06FF1D12948006800F44B
:1018F000003010B10120009001E00020009000981D
:10190000012843D12348006840F0100021490860B5
:101910000846006820F0030008600846006840F0B0
:10192000020008601A484068194948600846406843
:1019300048600846406840F4806048600846406857
:1019400020F47C1048600846406840F4E810486085
:101950000846006840F08070086000BF0C480068CE
:1019600000F000700028F9D00948406820F003001A
:10197000074948600846406840F00200486000BFE0
:101980000348406800F00C000828F9D10CBD0000A5
:101990000010024000200240042808D14FF0E0214E
:1019A000096941F004014FF0E022116107E04FF0B6
:1019B000E021096921F004014FF0E0221161704734
:1019C00010B51348006840F001001149086008464E
:1019D0004068104908400E494860084600680E49B2
:1019E00008400B4908600846006820F48020086021
:1019F0000846406820F4FE0048604FF41F008860ED
:101A0000FFF755FF4FF000600449086010BD00006B
:101A1000001002400000FFF8FFFFF6FE08ED00E0B6
:101A200030B585B005460C4601210220FFF7B4FE13
:101A300001210420FFF7C0FE4020ADF8100018205F
:101A40008DF8130003208DF8120004A91648FFF743
:101A500005FD40211448FFF7DEFD14488580048011
:101A600000201249C8804880114800F085F86020A5
:101A7000ADF800000120ADF80200ADF8060000202E
:101A8000ADF8080069460A4800F02AF881200849A4
:101A9000088001224915064800F018F80121044881
:101AA00000F008F805B030BD000801409E3C002061
:101AB0000004004021B1028842F00102028004E0EB
:101AC00002884FF6FE731A40028070471AB183896C
:101AD0000B43838102E083898B438381704700003D
:101AE00070B5002400220023058C4FF6FE763540A9
:101AF0000584028C8388048B4FF68F752C40B51EAD
:101B00002C400D882C43751E2A400D892A434D8890
:101B10002A43144DA8420BD0134DA84208D0134DB0
:101B2000A84205D0124DA84202D0124DA84213D1AE
:101B30004FF6F7752A404D892A434FF6FB752A4028
:101B40008D882A434FF6FF652B404FF6FF552B40FB
:101B50008D892B43CD892B4383800483CD88858653
:101B6000028470BD002C014000340140004001405F
:101B70000044014000480140002202881D4B984269
:101B80000ED01D4B98420BD0B0F1804F08D01B4BAC
:101B9000984205D01A4B984202D01A4B984204D171
:101BA0004FF68F731A404B881A43174B984207D051
:101BB000164B984204D04FF6FF431A40CB881A4385
:101BC00002808B8883850B8803850A4B98420BD053
:101BD000094B984208D00E4B984205D00D4B9842C5
:101BE00002D00D4B984201D10B7A038601238382E8
:101BF00070470000002C0140003401400004004008
:101C000000080040000C004000100040001400409C
:101C100000400140004401400048014010B540F23E
:101C200025511D4800F04AF810B31B4800F002F996
:101C3000C4B21A48008800F40040C8B917480088A8
:101C400000F4804060B10A2C03D0002013490880C2
:101C500020E01248008840F400401049088019E054
:101C60000D2C06D10D48008840F480400B490880B7
:101C700010E00A480088C0F30D0009490C540748D9
:101C80000088401C0549088008460088C72801DDF7
:101C90000020088010BD0000003801403C000020FA
:101CA000D63B002021B1828942F40052828104E0B7
:101CB00082894DF6FF731A408281704770B50246E3
:101CC000002400230025002040F66A16B14200D10E
:101CD00000BFC1F3421501F01F03012606FA03F30A
:101CE000012D02D19689334006E0022D02D1168AD9
:101CF000334001E0968A33400C12012606FA04F4C0
:101D00001688344013B10CB1012000E0002070BDF2
:101D1000F0B50346002400260025002040F66A178F
:101D2000B94200D100BF1846C1F3421401F01F06AA
:101D3000012707FA06F5012C01D10C3004E0022C32
:101D400001D1103000E014301AB107682F4307604A
:101D500002E00768AF430760F0BD00002DE9F047DF
:101D600086B005460E460024A24600BFA1460027C5
:101D7000B08900B100BF2F462C8A4CF6FF7004409A
:101D8000F08804432C82AC894EF6F3100440B088EE
:101D900031890843718908430443AC81AC8A4FF60A
:101DA000FF400440B0890443AC8201A8FFF714FD52
:101DB0001F48874202D1DDF810A001E0DDF80CA039
:101DC000A88900F4004040B10AEBCA0000EB0A10F9
:101DD00031684900B0FBF1F807E00AEBCA0000EBFC
:101DE0000A1031688900B0FBF1F86420B8FBF0F00C
:101DF00004012009642101FB1089A88900F4004036
:101E000040B1322000EBC900B0FBF1F000F0070058
:101E1000044308E0322000EB09106421B0FBF1F02C
:101E200000F00F0004432C8106B0BDE8F0870000ED
:101E30000038014001468888C0F30800704700BFA1
:101E4000FEE70000014A024900F020B8B120000876
:101E5000380000200022134610461146FEF743BB0F
:101E600002E008C8121F08C1002AFAD17047704763
:101E7000002001E001C1121F002AFBD170470000C1
:101E80000149086070470000700000202DE9F04112
:101E900016460F460446002503E03946B047641C49
:101EA0006D1C20780028F8D12846BDE8F08100009C
:101EB0002DE9F041C1F30A52A2F2FF362F4A304B0E
:101EC0000D460446142E2FDA002E12DAFEF7F2F930
:101ED00000221346FEF778FD4CD2002DBCBF4FF018
:101EE0000045002446DB55EA040018BF254D19D1F2
:101EF00040E0DFF894C02CFA06F705EA070C5CEA2C
:101F0000040C08BFBDE8F081FEF7D4F900221346A7
:101F1000FEF75AFD2ED2002D03DD4FF48010F04065
:101F20000544BD43002425E0332EC8BFBDE8F08141
:101F3000A6F1140C4FF0FF3727FA0CF73C4208BF0C
:101F4000BDE8F081FEF75AFA00221346FEF73CFD89
:101F500010D2002D0DDD142E08BF6D1C09D0C6F166
:101F60003400012101FA00F02044A04238BF6D1C6A
:101F70000446BC4329462046BDE8F0819C75008894
:101F80003CE4377E0000F03FFFFF0F0010B56FF01C
:101F90000400FFF701FD0A4800680A49B0FBF1F0B0
:101FA000094908700846007800EB4001C1EBC010F9
:101FB0004FF6FF7101EAC0000449088010BD00001F
:101FC0005400002000127A0030000020320000206F
:101FD0000146114A12884A434FF0E0235A61002219
:101FE0009A611A46126942F001021A6100BF4FF06D
:101FF000E022106900F001021AB100F48032002AD8
:10200000F5D04FF0E022126922F001024FF0E023F8
:102010001A6100229A6170473200002070B51446A0
:102020001D460E46002814BF01210021314321F036
:102030000041C1F17F6101F1E041C90F16D1002CCF
:1020400014BF01210021294321F00041C1F17F612A
:1020500001F1E041C90F09D11449B1EB460F08BFA6
:1020600000281CD0690008BF002C18D03146FEF7AC
:1020700067FC024640F2FF7030EA11500DD0F017B5
:10208000B0EBE17F09D0084665F31E0084460B469D
:1020900020466146FEF7B2F90246104670BD0120A7
:1020A000FFF7EEFEBDE87040FFF7D4BE0000E0FF92
:1020B00000BF054A128802F04002002AF9D0C2B2DD
:1020C000014B1B1D1A8070470038014010B50028D5
:1020D00021D0114B0022001F196803E0814203D870
:1020E0000A4649680029F9D152B11368841A9C4202
:1020F00004D1006818441060104602E0506000E00F
:10210000186039B102680B1A934203D10B681A4464
:1021100002604968416010BD680000201FB50020C2
:10212000CC49086008718860FFF730FF4FF4A06069
:10213000FFF718FB4FF4E13000F040FDFFF770FAB5
:102140000020C54908601720002141F60113C34A49
:10215000CDE90010C249C34800F062FA0020042310
:10216000082207210090FEF779FDFFF7DFF870E104
:102170000620FFF72DFFBC48FEF742FFBB49086071
:1021800008460068002872D0B748C07800286ED191
:10219000B748007800286AD0B6480078C82866DAC0
:1021A000B1490978B04A5278C2EBC21201EB420041
:1021B000FEF708FAB049096801EB4101A54A42F867
:1021C0002100AD4A1268521E02EB4202A14B53F8A5
:1021D0002210A94A126802EB420253F82200FDF7CE
:1021E000F3FF04460021FEF78BFA09D20120A24931
:1021F000096801EB4101974A02EB8101087108E08F
:1022000000209D49096801EB4101924A02EB8101DE
:10221000087195490979944A5279C2EBC21201EBCF
:102220004200FEF7CFF99449096801EB4101894A60
:1022300002EB8101886090480068C82803D1012022
:102240008D49086004E08C480068401C8A49086099
:1022500087480078401E8649087086480078401CF0
:102260008449087085A0FEF7BFFEF0E0FFE77F48D5
:10227000006800287ED07C48C0780028FAD07A48D0
:10228000C078452877D006DC412875D0432874D023
:10229000442873D1B9E0482871D0522802D053287D
:1022A000F7D1A6E076A0FFF7CDFD71480078C828E9
:1022B00066DA70480078002862D0FFF7CFF901286D
:1022C000FAD0734A1268521E02EB4202614B53F875
:1022D00022106F4A126802EB420253F82200FDF707
:1022E00073FF07466B49FDF7A7FF0446FEF7CFF9DA
:1022F00021F000410546FEF7DDF967490860084610
:102300000068FEF7C4F98246644A654BFEF7EBF8B5
:10231000804600224FF08043FEF7E5F80646002293
:10232000604BFEF76EF80446FEF7C4F903904B4885
:102330004FF07E510091CDE901105548006800EB47
:102340004000444A02EB80000179574B574A0398FA
:1023500000F0CCF956A0FFF775FD4D480068401E0F
:10236000002820DD00214A480068401E00EB4000A4
:10237000384A06E05AE04EE030E052E055E03EE0F8
:1023800028E042F8201042480068401E00EB400060
:1023900002EB800001713E480068401E00EB4000E7
:1023A00002EB800081603A480068C82803D1012010
:1023B0003749086004E036480068401C344908602A
:1023C0002B480078401C2A4908702A480078401E93
:1023D0002849087039A0FEF707FE26E038A0FFF76D
:1023E00031FD00F083FB012802D138A0FEF7FCFD8F
:1023F0001BE000F0A5FB36A0FEF7F6FD15E000F0AF
:10240000DBF834A0FEF7F0FD0FE000F0B9F832A0E1
:10241000FEF7EAFD09E000F0C1F830A0FEF7E4FDA8
:1024200003E02FA0FEF7E0FD00BF10E00F480068BA
:1024300068B90F480078C82809DA0E48007830B12A
:10244000FFF70CF9012802D00CA0FEF7CDFDFFF735
:1024500005F98DE674000020BC812142D4090020DA
:102460002C0400406C0002401200002000000020FC
:102470001000002011000020040000205132000054
:10248000726563696576652072200D0A00000000A0
:102490000800002000007A440C0000201F85EB514A
:1024A000B81E094000C0B240C3F5484033337B41F9
:1024B000636F6E666967200D0A00000052320000EB
:1024C0007265636965766520610D0A0041433200DB
:1024D0005332000048320000443200004532000010
:1024E00052430000F0B50B30154D20F007010024D9
:1024F000144A0FE003688B420BD38B4205D95E1A56
:1025000043184768C3E9006700E04368136002C0EE
:1025100004E0021D10680028ECD12046002802D1FA
:10252000286808B10020F0BD064A07481060074A35
:10253000121A22F00702C0E9002401202860D7E720
:102540006C00002068000020DC3C0020D83E002009
:1025500010B504463CB108210748FFF75EF801209A
:102560000649086007E008210348FFF754F84FF0D8
:10257000FF300249086010BD000C0140240000201B
:1025800010B510210348FFF748F8032002490870EE
:1025900010BD0000000C01401C00002010B51021EF
:1025A0000348FFF738F803200249087010BD000007
:1025B000000C01401C0000200EB517E01248134922
:1025C0000091134B1A46CDE9011000214FF07E50C7
:1025D00000F08CF800F08AFA04E0FFF73FF80128D9
:1025E00000D000E0F9E700BF00F0AAFA094800783F
:1025F0000028E3D00020084908600120074908703E
:1026000000F09EFA0EBD0000D4090020CDCCCC3DD8
:10261000C3F5C83F34000020200000201D0000202A
:102620002DE9F04704460D4616461F46DDE90889A8
:1026300000F014F83B46324629462046FEF75CFD82
:1026400049464046FFF7ECF9FFF7A8FF032002498F
:102650000870BDE8F08700001C00002008B50121CB
:102660000D20FFF7A9F82020ADF8000048208DF8D4
:10267000030069461A48FEF7F1FE4020ADF800005D
:1026800018208DF8030003208DF8020069461448D5
:10269000FEF7E4FE40211248FEF7BDFF012111487C
:1026A000FEF768FF0820ADF8000010208DF8030049
:1026B00003208DF8020069460B48FEF7CFFE082183
:1026C0000948FEF7A8FF1020ADF80000694606484B
:1026D000FEF7C4FE10210448FEF79FFF08BD00006E
:1026E0000008014000023000000C01402DE9FF4FBE
:1026F0008FB01E9D0F98FDF7CAFF0022F24BCDE967
:102700000801FDF7D7FDCDE90A01FDF7A7FF80B26B
:1027100041F60111884203DD002013B0BDE8F08FBF
:10272000EA481C99FDF756FD0690DDE91101FDF719
:102730004BFD0490DDE91101FDF7F4FC03900499D1
:10274000FDF748FD05900699FDF776FD0790FDF72A
:102750009EFF0022DE4BCDE90801FDF7ABFDCDE980
:102760000A01FDF77BFF1FFA80F9DDE91C01FDF787
:10277000D9FC014605901D98FDF75EFD06900F9966
:10278000FDF728FD0790FDF782FF0022D04BCDE931
:102790000801FDF78FFDCDE90A01FDF75FFF80B26B
:1027A0000D90CC481199FDF747FD0790FDF76FFF9D
:1027B0000022C74BCDE90801FDF77CFDCDE90A01F8
:1027C000FDF74CFF1FFA80F800270220FFF78AFE72
:1027D00082460220FFF786FE0646BB460024002004
:1027E0000C900D98814526DC4F46DDE91C01FDF774
:1027F00023FD0A903846FDF7EEFE09900A99FDF791
:10280000E9FC0B90FDF716FFAAF80000BAF80010DB
:10281000C819FDF7D7FE0A900F99FDF7D8FC0B9069
:10282000FDF708FF1FFA80FB07EB0B0030805046D6
:10283000FFF74CFC03E00D9F5046FFF747FC0F9855
:10284000FDF725FF0022A24BCDE90601FDF732FD81
:10285000CDE90801FDF702FF80B20B90FDF7BBFE4A
:102860000F9005E104BB99481C99FDF7E5FC019028
:10287000FDF70DFFCDE9020100F07AF90022964B39
:10288000CDE90401FDF7BDFD944A954BCDE9060164
:10289000FDF7B7FDCDE90801FFF70AFBCDE90A0115
:1028A000FDF7DCFE25F81400002C56DDBC4254DA9E
:1028B000A100481EFDF786FE05EB4401049031F8A7
:1028C000021C4800FDF77EFE02900C99FDF72AFCE1
:1028D00003900499FDF7B0FC05EB4401069031F834
:1028E000020CFDF778FE05900699FDF76DFC079048
:1028F000FDF7CDFE0022764BCDE90801FDF7DAFCAD
:10290000CDE90A01FDF7AAFE30803088404503DD9D
:10291000308825F8140001E025F81480A100481E35
:10292000FDF75EFECDE9080105EB440131F8021C1C
:102930004800FDF747FE04900C99FDF7F3FB059066
:10294000FDF7A5FECDE90601DDE90823FFF766FBEB
:10295000CDE90A01FDF7AEFE0C90BC4205DB07EBAA
:102960000B00A04201DD25F8148007EB0B00A0420C
:102970006EDC2046FDF72FFE0B900F99FDF7B6FE9B
:1029800066D2A100481EFDF71DFE04900F98FDF7CA
:1029900038FE05EB4000A0EB440030F8020C40008C
:1029A0000190FDF70FFE02900C99FDF7BBFB039021
:1029B0000499FDF741FC06900F98FDF722FE05EB08
:1029C0004000A0EB440030F8020C0490FDF703FE39
:1029D00005900699FDF7F8FB0790FDF758FE0022D9
:1029E0003B4BCDE90801FDF765FCCDE90A01FDF798
:1029F00035FE30803088404503DD308825F81400EE
:102A000001E025F81480A100481EFDF7E9FDCDE99D
:102A100008010F98FDF7F5FD05EB4000A0EB440021
:102A200030F8020C40000390FDF7CCFD04900C99A7
:102A3000FDF778FB0590FDF72AFECDE90601DDE9FB
:102A40000823FFF7EBFACDE90A01FDF733FE0C90FE
:102A50002046FDF7C0FD0B900F99FDF747FE05D10D
:102A6000002025F814003046FFF730FB601C84B2CC
:102A70002046FDF7B0FD0B900F99FDF741FEBFF426
:102A8000F1AE1098FFF764FD00211648FEF728FB11
:102A900000210F98FDF734FE0AD20F98FDF7CAFD0A
:102AA000401C80B201460B900E48FEF71BFC03E071
:102AB00000210C48FEF716FC0F98FDF7BBFD0A49F4
:102AC0000860012029E600000000F83F499D003D14
:102AD0000000E03F00FC374760E346416F1283C0CF
:102AE000CAA1E53F6C0002402800002010B5104844
:102AF0000078012819D00F480088B0B10E48006F47
:102B000098B102200D49088001210B486C30FEF776
:102B1000E7FA012109482C38FEF7CCFF01200749CC
:102B2000183908800249087010BD0020FCE7000039
:102B30001C000020D4090020000002402C040040AA
:102B400010B500210748FEF7B5FF00210648FEF743
:102B5000C7FA002004496C3908670220034908704D
:102B600010BD0000000400406C0002401C0000206A
:102B70002DE9F04106460F46FDF791FE041E0D4675
:102B800018BF0120284320F00040C0F17F6000F111
:102B9000E040C00F0ED0301C18BF0120384320F099
:102BA0000040C0F17F6000F1E040C00F04BF012091
:102BB000FFF766F920462946BDE8F08110B586B0DA
:102BC0000446012144F20400FEF7F6FD4FF40070C4
:102BD000ADF8140003208DF8160018208DF81700AA
:102BE00005A91C48FEF73AFC4FF48060ADF81400CC
:102BF00004208DF8170005A91648FEF72FFC2520A4
:102C00008DF8000003208DF801008DF802000120EE
:102C10008DF803006846FEF76DFD01940020ADF8C5
:102C20000800ADF80A00ADF80C00ADF810000C205B
:102C3000ADF80E0001A90848FFF790F8012240F214
:102C400025510548FFF764F801210348FFF72AF8EA
:102C500006B010BD00080140003801407C2C00087F
:102C60000000002074000000601E0008F02C000826
:102C70007400002064420000701E00080000000084
:102C8000010000000100000000000000C80000007A
:102C90000000000000000000000000000000000034
:102CA0000100000000000000000000000000000023
:102CB0000000000000000000000000000000000014
:102CC00001020304010203040607080902040608BE
:102CD00000A24A04000000000000000001020304FA
:102CE00006070809000000000000000000000000C6
:04000005080000ED02
:00000001FF
