:020000040800F2
:10000000C842002001010008651700080B01000824
:1000100019170008D90A0008B31E000800000000E4
:10002000000000000000000000000000211900088E
:10003000B1130008000000001701000819010008B2
:100040001B0100081B0100081B0100081B01000820
:100050001B0100081B0100081B0100081B01000810
:100060001B0100081B0100081B0100081B01000800
:100070001B0100081B0100081B0100081B010008F0
:100080001B0100081B0100081B0100081B010008E0
:100090001B0100081B0100081B010008B513000824
:1000A0001B0100081B0100081B0100081B010008C0
:1000B0001B0100081B0100081B0100081B010008B0
:1000C0001B0100081B0100081B0100081B010008A0
:1000D0001B010008911C00081B0100081B010008FF
:1000E0001B0100081B0100081B010008DFF80CD0F1
:1000F00000F0E0FC0048004755290008C8420020F5
:100100000648804706480047FEE7FEE7FEE7FEE7B1
:10011000FEE7FEE7FEE7FEE7FEE7FEE7351A00082A
:10012000ED000008F0B480EA0102D40F4200B2EB07
:10013000410F02D20246084611464A0042D0C30D82
:10014000DDB2C1F3C752AD1A202D35DAC1F3160165
:1001500041F4000204B15242C5F1200602FA06F150
:100160002A411044B3EBD05F23D0C4B1012DA0EBE2
:10017000C35009DCF0BC4FF0004202EAC352DBB2CC
:1001800000F5000000F047BB400000F1807000EB7C
:10019000C350A0F1807040EAD170490009E04908DD
:1001A00041EAC071A0EBC35000F50000400800EB2D
:1001B000C350F0BC00F026BB6142012202EB4101BA
:1001C000001BF6E7F0BC704781F00041AAE780F021
:1001D0000040A7E780EA010210B502F000434000AA
:1001E00022D04A001FD0010E01EB1261C0F356006D
:1001F000C2F3560240F4000042F40002A0FB0220C9
:1002000000047F39140400D0401C50EA124001D48D
:100210004000491EC2B20C0604EBD010401C40083E
:10022000802A02D003E0002010BD20F00100002948
:1002300000DA0020184310BD30B480EA010202F059
:10024000004530F0004221F0004013D090B1C30DC2
:10025000D40DC2F31601C0F31600E41A41F40001F4
:1002600040F400027D34914201D3641C00E0490057
:10027000002C02DA30BC002070474FF4000000234D
:10028000914201D3891A034340084FEA4101F7D153
:1002900051B1914202D14FF0004105E002D24FF03E
:1002A000010101E06FF0010103EBC450284430BCB0
:1002B00000F0A8BA2DE9FE4F804681EA0300C00F86
:1002C0000C46009021F0004123F00045B8EB0200FD
:1002D000A94105D24046214690461C460B4602469F
:1002E00023F00040104347D0270DC7F30A00C3F3A3
:1002F0000A510290401A019040286BDAC3F31300B0
:1003000040F4801B0098924620B10023D2EB030AF0
:1003100063EB0B0B01985946C0F14002504600F0C8
:1003200040FA06460D4650465946019A00F058FAE2
:1003300010EB08006141002487EA115284EAE77358
:100340001A4340D0009A62B3019A012A4FEA075239
:1003500015DC001B61EB02014FF0004202EA07527C
:10036000CDE90042001C41F5801132462B4600F0D9
:100370008FFA03B0BDE8F08F40462146F9E7001B35
:1003800061EB0201001C41F5801300185B4120184D
:10039000A2F5001747EB030140EAD570B6196D418D
:1003A00011E06D084FEA360645EAC0754FEA07527C
:1003B000001B61EB0201001C41F5801149084FEA66
:1003C00030000019514132462B4603B0BDE8F04FD2
:1003D00000F04FBA0098012240000023D0EB020247
:1003E00063EBE073009821464FEAE074B8EB00003D
:1003F00061EB0401E9E783F000435BE781F0004132
:1004000058E72DE9FE4F81EA030404F0004421F08F
:10041000004100944FF0000B23F0004350EA010428
:100420005ED052EA03045BD0C3F30A54C1F30A5509
:100430002C44A4F2F3340194A0FB0254C1F3130141
:1004400041F48011C3F3130343F4801301FB02440E
:1004500000FB034E840A970A44EA815447EA835713
:10046000A4FB076802958D0A05FB07854FEA932CCC
:1004700004FB0C542705029D4FEA065847EA16373D
:10048000B5EB08056EEB070C870E920E47EA811755
:1004900042EA8312A7FB0201B6EB0B0164EB0004F6
:1004A0002B0D43EA0C335E1844EB1C50DA465146E0
:1004B000E7FB0201C5F313044FEA0B3343EA14537D
:1004C0004FEA0432019C43EA0603A4F10C040294AF
:1004D000009CCDE900B400F0DBF903B0BDE8F08F7B
:1004E00000200146F9E72DE9F04D81EA030404F00C
:1004F000004B21F0004514464FF0000A23F0004164
:1005000050EA050220D054EA01021DD0C5F30A5773
:100510000246C5F31303C1F31300C1F30A5640F4B6
:10052000801543F48013A7EB0608101BD64608F28B
:10053000FD3873EB050002D308F1010801E09218C1
:100540005B41B8F1000F03DA00200146BDE8F08DF1
:1005500000204FF48011064684460EE0171B73EB13
:10056000050705D3121B63EB050306434CEA010C98
:1005700049084FEA300092185B4150EA0107EDD17B
:1005800052EA030012D082EA040083EA050108431C
:1005900005D0101BAB4106D20122002306E0002249
:1005A0004FF0004302E06FF0010253101AEB060017
:1005B0004CEB085110EB0A0041EB0B01BDE8F04D8C
:1005C00000F057B9C10F80EAE0700844CA079623CB
:1005D000002100F020B996230022114600F01BB93B
:1005E0000EB5C10F80EAE0700844CA07002140F24E
:1005F00033438DE80E000A460B4600F049F903B07C
:1006000000BD00F0004220F00040C10DC0F3160014
:1006100040F400007F2901DA00207047962903DCAE
:10062000C1F19601C84001E096398840002AF4D013
:100630004042704720F00040C10DC0F3160040F466
:1006400000007F2901DA00207047962903DCC1F100
:100650009601C8407047963988407047C1F30A52E6
:1006600010B5C1F3130140F2FF3341F480119A42F7
:1006700001DA002010BD40F233439A42A2F2334225
:1006800003DC524200F09CF810BD904010BD00F019
:10069000004230F000400AD0C10D01F56071C0F396
:1006A000160042EA0151C20840071143704700207A
:1006B0000146704701F0004330B421F0004150EA98
:1006C000010206D00A0DA2F56072C1F31301002ADF
:1006D00002DC30BC00207047440F44EAC104C10072
:1006E000E01830BC00EBC25000F08CB8002801DBF1
:1006F000C0F10040002901DBC1F100418142704797
:10070000002801DBC0F10040002901DBC1F10041FC
:100710008842704730B50B46014600202022012454
:1007200009E021FA02F59D4205D303FA02F5491BBF
:1007300004FA02F52844151EA2F10102F1DC30BDD5
:100740002DE9F05F0546002092469B468846064606
:10075000814640241BE0284641464746224600F099
:100760002FF853465A46C01A914110D311461846E5
:10077000224600F016F82D1A67EB01084F46224674
:100780000120002100F00DF817EB00094E41201E5A
:10079000A4F10104DFDC484631462A464346BDE861
:1007A000F09F202A04DB203A00FA02F10020704773
:1007B0009140C2F1200320FA03F31943904070479F
:1007C000202A04DB203A21FA02F00021704721FAA6
:1007D00002F3D040C2F1200291400843194670470D
:1007E000202A06DBCB17203A41FA02F043EAE073F5
:1007F00006E041FA02F3D040C2F1200291400843E2
:10080000194670470029A8BF7047401C490008BF1F
:1008100020F00100704710B4B0FA80FC00FA0CF030
:1008200050EA010404BF10BC704749B1CCF1200468
:1008300021FA04F411FA0CF118BF012121430843F5
:10084000A3EB0C01CB1D4FEA00614FEA102042BF21
:10085000002010BC704700EBC35010440029A4BF17
:1008600010BC7047401C490008BF20F0010010BCBC
:10087000704710B5141E73F1000408DA401C41F1F2
:10088000000192185B411A4301D120F0010010BD14
:100890002DE9F04D92469B4611B1B1FA81F202E08A
:1008A000B0FA80F220329046FFF77BFF04460F46F5
:1008B00040EA0A0041EA0B0153465A46084313D066
:1008C000114653EA010019D0C8F140025046FFF723
:1008D00077FF05460E46504659464246FFF761FFF0
:1008E000084305D0012004E020463946BDE8F08DDC
:1008F0000020054346EAE0762C4337430A98630517
:10090000E40AA0EB08000022FD0A44EA47540A303A
:1009100002D500200146E9E7010510196941DDE92A
:10092000084500196941BDE8F04DA2E72DE9F04DF9
:1009300000231A461B1A8A4103DB00200146BDE84A
:10094000F08DC1F30A52C1F3130141F480154FF049
:10095000000BD10702D100186D41521E002704463A
:1009600040F2FF11384601EB620A3E4680460246DD
:1009700000204FF48011FFF723FFC2197141BB180B
:1009800046EB0100B4EB030C75EB000C04D3E41A46
:1009900065EB000517460E46241908F101006D416C
:1009A00080463428E3DDF91946EB0600091BA8410F
:1009B00003D24FF0FF32134601E0002213461BEB37
:1009C000070046EB0A51BDE8F04DFFF752BF2DE995
:1009D000FE4FC3F30A5701F000450024C1F30A5645
:1009E000C3F31303C1F3130143F4801312EB020AA0
:1009F000A64641F48011009543EB030CA7F1010BCF
:100A000016E0B0EB0A0061EB0C01071E71F1000764
:100A100007DA4FF00008D0EB080085F0004568EBDE
:100A20000101171A73EB0107EBD3761E0018494139
:100A30005E45F6DA50EA010209D0CDE900E5002270
:100A400013460296FFF724FF03B0BDE8F08F20465F
:100A50000099F9E7C1F30A52C1F3130140F2FF33E1
:100A600041F480119A4202DA00200146704740F2B8
:100A700033439A42A2F2334202DC5242FFF7A0BE55
:100A8000FFF78FBE30B5041E71F1000404DB4FF098
:100A90000044404264EB0101141E73F1000405DBC5
:100AA0001C464FF00043524263EB0403994208BFD7
:100AB000904230BD064C074D06E0E06840F001036F
:100AC00094E8070098471034AC42F6D3FFF712FBC6
:100AD000A8340008C834000800BFFEE710B50021A4
:100AE000837A012202FA03F13D4A126842F00102C0
:100AF0003B4B1A603A4A1C3212688A43384B1C330B
:100B00001A60027BCAB9364A0C3212688A43344BE7
:100B10000C331A604288C38842EA0343304A4032A9
:100B2000847A42F834300288838842EA03432C4AAC
:100B30004032847A02EBC4025360027B012A19D14D
:100B4000274A0C3212680A43254B0C331A6042883C
:100B5000038842EA0343224A4032847A42F834301E
:100B6000C288838842EA03431D4A4032847A02EBFA
:100B7000C4025360C27A3AB9194A121D12688A43F4
:100B8000174B1B1D1A6006E0154A121D12680A4316
:100B9000134B1B1D1A60028932B9114A14321268B4
:100BA0008A430F4B14331A600289012A06D10C4A7A
:100BB000143212680A430A4B14331A60427B012A2A
:100BC00006D1074A1C3212680A43054B1C331A60CF
:100BD000034A126822F00102014B1A6010BD0000A6
:100BE0000066004030B5024600200023146824F05F
:100BF00002041460146844F00104146000E05B1CFB
:100C0000546804F001041CB94FF6FF74A342F6D1F6
:100C1000546804F001040CB900206CE08C79012CBC
:100C200004D1146844F08004146003E0146824F0D4
:100C300080041460CC79012C04D1146844F0400481
:100C4000146003E0146824F0400414600C7A012C52
:100C500004D1146844F02004146003E0146824F004
:100C6000200414604C7A012C04D1146844F0100460
:100C7000146003E0146824F0100414608C7A012CD2
:100C800004D1146844F00804146003E0146824F0EC
:100C900008041460CC7A012C04D1146844F00404D4
:100CA000146003E0146824F0040414608C78A40732
:100CB000CD7844EA05640D7944EA05444D7944EA67
:100CC00005540D886D1E2C43D461146824F0010472
:100CD0001460002300E05B1C546804F001041CB1A4
:100CE0004FF6FF74A342F6D1546804F001040CB12E
:100CF000002000E0012030BD0246002019B9D36871
:100D000003F0030006E0012903D1136903F0030097
:100D100000E00020704700002DE9F04188B0044653
:100D20000D4616461F46DDF838800121042000F0EC
:100D30007DFD0121480600F069FD4FF48050ADF8BB
:100D40001C0003208DF81E0018208DF81F0007A935
:100D5000254800F0E3FB4FF40060ADF81C0048208C
:100D60008DF81F0007A9204800F0D8FB00208DF85F
:100D700016008DF817008DF8180001208DF8190065
:100D800000208DF81A008DF81B008DF812808DF868
:100D900013408DF814608DF81550ADF8107004A94B
:100DA0001248FFF71FFF00208DF80A008DF80B0096
:100DB00001208DF80C002020ADF800000020ADF8D7
:100DC00002002020ADF804000020ADF80600ADF8C8
:100DD000080001208DF80D006846FFF77FFE002017
:100DE00008B0BDE8F0810000000801400064004048
:100DF00010B500F5D87303EB01131B6803F004036F
:100E00001372137A53B900F5D87303EB01131B68FF
:100E100040F2FF7404EA5353136009E000F5D873FD
:100E200003EB01131B686FF0604404EAD3035360C3
:100E300000F5D87303EB01131B6803F00203537230
:100E400000F5D87303EB01135B6803F00F03937293
:100E500000F5D87303EB01135B681B0AD37400F52C
:100E6000D87303EB01139B68D37200F5D87303EBBF
:100E700001139B681C0A147300F5D87303EB01136C
:100E80009B681C0C547300F5D87303EB01139B682B
:100E90001B0E937300F5D87303EB0113DB68D37358
:100EA00000F5D87303EB0113DB681C0A147400F51A
:100EB000D87303EB0113DB681C0C547400F5D87372
:100EC00003EB0113DB681B0E937421B9C36843F075
:100ED0002003C36003E0036943F02003036110BDF6
:100EE00010B502460020936803F08063B3F1806F71
:100EF00000D110E0936803F00063B3F1006F01D1FB
:100F0000012008E0936803F08053B3F1805F01D1C2
:100F1000022000E00420042874D002F5C07303EB23
:100F200000131B6803F0010402F5C07303EB001308
:100F30001C600B7A7BB94B7A0C8843EA445302F568
:100F4000C07404EB00142468234302F5C07404EB5E
:100F50000014236010E00B7A4C6843EAC4034C7A17
:100F6000234302F5C07404EB00142468234302F504
:100F7000C07404EB001423608B7A03F00F038B72B0
:100F800002F5C07303EB00135B6823F00F0402F556
:100F9000C07303EB00135C6002F5C07303EB001336
:100FA0005B688C7A234302F5C07404EB0014636021
:100FB0008B7B1C064B7B44EA03440B7B44EA0323F4
:100FC000CC7A234302F5C07404EB0014A3608B7C3D
:100FD0001C064B7C44EA03440B7C44EA0323CC7B91
:100FE000234302F5C07404EB0014E36002F5C07300
:100FF00003EB00131B6843F0010402F5C07303EB1D
:1010000000131C6010BD000010B50246002321B182
:10101000012907D002290FD109E090681D4C00EA90
:1010200004030BE090681C4C00EA040306E090689F
:101030001A4C00EA040301E0002300BF00BF184C73
:10104000181BA34216D007DC83B16FF080601844F0
:1010500070B1022818D111E0B0F5007F10D0114C0A
:10106000204448B1B0F5003F0ED10BE002230DE063
:1010700000230BE0002309E0002307E0012305E043
:10108000012303E0012301E0002300BF00BFD8B229
:1010900010BD00000300000400030008000003105E
:1010A000000100080001FFF770B504464FF0005240
:1010B0000321204600F038F80546284670BD0000A0
:1010C00030B585B0054600211448FFF715FE10B96C
:1010D000002005B030BD6A4600211048FFF788FEA9
:1010E00000240F480068C0430E49C1F8BC0104E069
:1010F0000DF10B00005D2855641C082CF8D314205A
:1011000001F082FB06480068C0430649C1F8BC01F3
:10111000142001F079FB9DF80A00DAE70064004032
:10112000BC812142008021422DE9F04186B08046F9
:101130000D4616460024700D0190C6F3D1000290B2
:1011400000208DF80C008DF80D008DF80E5000BFBA
:1011500006E018F804100DF10F000155601C84B270
:10116000AC42F6DB01A90D48FFF7BAFE07460024A2
:1011700001E0601C84B239460848FFF745FF18B902
:1011800040F6FF708442F4DB40F6FF70844203DBDC
:10119000012006B0BDE8F0810020FAE700640040BD
:1011A00021B1026842F00102026004E002684FF6D9
:1011B000FE731A40026070472DE9F04107460D4664
:1011C00016461C460121084600F010FB052001F0E0
:1011D0001BFB384600F022F80E4804800E480560DC
:1011E000466010200C4988600846C46000200861F1
:1011F00080204861400088618000C861002008624A
:101200004FF40050486200208862384600F0ACF885
:10121000BDE8F081320000209C3C002001684FF6C0
:10122000FE72114001600021016041608160C16077
:101230004B49884208D14A490839496841F00F01B1
:10124000474A083A51608AE045491431884208D13A
:1012500043490839496841F0F001414A083A516070
:101260007DE03F492831884208D13D490839496825
:1012700041F470613A4A083A516070E038493C31B3
:10128000884208D136490839496841F47041344AE6
:10129000083A516063E032495031884208D1304900
:1012A0000839496841F470212D4A083A516056E0E6
:1012B0002B496431884208D129490839496841F4E9
:1012C0007001274A083A516049E02549783188423F
:1012D00008D123490839496841F07061204A083A29
:1012E00051603CE01F49884206D1011F096841F066
:1012F0000F01021F116032E01A491431884208D1EF
:101300001849091F096841F0F001164A121F1160BF
:1013100025E014492831884208D11249091F09687B
:1013200041F470610F4A121F116018E00D493C3101
:10133000884208D10B49091F096841F47041094AE4
:10134000121F11600BE007495031884207D105494F
:10135000091F096841F47021024A121F1160704789
:10136000080002400804024010B50022026847F657
:10137000F0739A430C6A8B6823430C6923434C69CE
:1013800023438C692343CC6923434C6A23438C6AEF
:1013900023431A430260CB6843600B6883604B6849
:1013A000C36010BD416070470146486880B2704715
:1013B0007047000010B50A2001F026FA20210748E6
:1013C00000F080F910B901200549087005A000F06F
:1013D00073FD202000F032F810BD0000000801402D
:1013E00028000020686F6D650D0A00000EB5012110
:1013F000084600F01BFA0521002000F06FF82020BD
:10140000019000208DF808000C208DF809000120C3
:101410008DF80A0001A800F017F817208DF80000D9
:1014200002208DF8010003208DF8020001208DF8C4
:101430000300684600F098F90EBD000001490860FD
:101440007047000014040140002123498279002ADA
:101450003AD00A46126803689A430B461A600A1D7E
:10146000126803689A430B1D1A60027911440A68D6
:1014700003681A430A60184A0832126803689A43DC
:10148000154B08331A601A1D126803689A43124BF1
:101490000C331A604279102A0ED11A1F12680368A1
:1014A0001A430D4B08331A601A1D126803681A4359
:1014B000094B0C331A600DE00749427911440A6860
:1014C00003681A430A6005E0027911440A68036858
:1014D0009A430A60704700000004014030B50022C2
:1014E0008B071C0F0F2303FA04F20B4B8C1053F8DD
:1014F00024309343084C8D1044F8253023468C103B
:1015000053F824308C07240F00FA04F42343024CD0
:101510008D1044F8253030BD080001402DE9F04120
:10152000024600250026002000230024002791F811
:1015300003C00CF00F0591F803C00CF0100CBCF1C7
:10154000000F03D091F802C04CEA050591F800C0E5
:10155000BCF1000F31D0146800202BE04FF0010CDB
:101560000CFA00F3B1F800C00CEA03069E4220D149
:1015700083004FF00F0C0CFA03F7BC4305FA03FC91
:101580004CEA040491F803C0BCF1280F06D14FF0D7
:10159000010C0CFA00FCC2F814C00AE091F803C078
:1015A000BCF1480F05D14FF0010C0CFA00FCC2F859
:1015B00010C0401C0828D1D31460B1F800C0BCF1A1
:1015C000FF0F34DD546800202EE000F1080C4FF0CE
:1015D000010808FA0CF3B1F800C00CEA03069E42B9
:1015E00021D183004FF00F0C0CFA03F7BC4305FA2E
:1015F00003FC4CEA040491F803C0BCF1280F05D1A8
:1016000000F1080C08FA0CF8C2F8148091F803C035
:10161000BCF1480F07D100F1080C4FF0010808FA9F
:101620000CF8C2F81080401C0828CED35460BDE8E6
:10163000F0810000F0B50A460023002400210025B7
:1016400000F00046B6F1004F02D11D4EF16901E0F5
:101650001B4E7168C0F3034583B200F44016B6F523
:10166000401F08D121F07061154E766826F0706633
:10167000134F7E6012E000F48016B6F5801F06D18D
:10168000032606FA05F4A14341F0706106E0460D19
:10169000360103FA06F6B14341F0706122B1460DFE
:1016A000360103FA06F6314300F00046B6F1004F6A
:1016B00002D1034EF16101E0014E7160F0BD000006
:1016C000000001400246002093680B400BB101204E
:1016D00000E00020704741617047016170470000E1
:1016E00008B50121082000F0A1F84FF40040ADF842
:1016F000000010208DF8030003208DF802006946D9
:101700000448FFF70BFF4FF400410248FFF7E3FFE7
:1017100008BD0000000C014000BFFEE710B50F48F7
:10172000FFF742FE38B90E480078012803D10220A5
:101730000B49087010BD0948FFF736FE58B9084834
:101740000078022803D006480078032803D103203C
:1017500003490870EEE70120ECE700006C0002404E
:101760001C0000207047000070B5002100230F22EC
:10177000C47804B3154C246804F4E064C4F5E06450
:10178000210AC1F10403CA40447804FA03F18478C1
:101790001440214309010E4C0678A155047804F049
:1017A0001F050124AC4005786D11AD0005F1E02561
:1017B000C5F8004109E0047804F01F050124AC409D
:1017C000044D0678761145F8264070BD0CED00E01A
:1017D00000E400E080E100E002490143024A1160B8
:1017E000704700000000FA050CED00E029B1064A40
:1017F00052690243044B5A6104E0034A526982432E
:10180000014B5A61704700000010024029B1064A9E
:10181000D2690243044BDA6104E0034AD26982438D
:10182000014BDA61704700000010024029B1064AFE
:1018300092690243044B9A6104E0034A926982432D
:10184000014B9A61704700000010024030B5002142
:101850000022002400232D4D6D6805F00C0121B1FC
:10186000042905D0082923D105E0294D056022E08F
:10187000274D05601FE0254D6D6805F47012234D5E
:101880006D6805F48034022505EB92421CB9214DA8
:10189000554305600BE01D4D6D6805F400351DB125
:1018A0001C4D5543056002E0194D5543056002E0AB
:1018B000174D056000BF00BF144D6D6805F0F001C5
:1018C0000909154D6B5C0568DD4045600F4D6D687D
:1018D00005F4E061090A104D6B5C4568DD408560E8
:1018E0000A4D6D6805F46051C90A0B4D6B5C456883
:1018F000DD40C560054D6D6805F44041890B074D1D
:101900006B5CC568B5FBF3F5056130BD00100240A6
:1019100000127A0000093D0034000020440000203D
:10192000704710B500F002F810BD00000CB50020A3
:10193000019000903348006840F4803031490860DD
:1019400000BF3048006800F4003000900198401C4F
:101950000190009818B90198B0F5A06FF1D129480D
:10196000006800F4003010B10120009001E0002078
:1019700000900098012843D12348006840F01000EF
:10198000214908600846006820F003000860084606
:10199000006840F0020008601A4840681949486031
:1019A0000846406848600846406840F480604860E7
:1019B0000846406820F47C1048600846406840F4BF
:1019C000E81048600846006840F08070086000BF7A
:1019D0000C48006800F000700028F9D00948406801
:1019E00020F00300074948600846406840F00200C4
:1019F000486000BF0348406800F00C000828F9D197
:101A00000CBD00000010024000200240042808D154
:101A10004FF0E021096941F004014FF0E02211612B
:101A200007E04FF0E021096921F004014FF0E022C6
:101A30001161704710B51348006840F0010011496A
:101A4000086008464068104908400E49486008464A
:101A500000680E4908400B4908600846006820F4F9
:101A6000802008600846406820F4FE0048604FF47B
:101A70001F008860FFF755FF4FF0006004490860C1
:101A800010BD0000001002400000FFF8FFFFF6FE4E
:101A900008ED00E030B585B005460C460121022076
:101AA000FFF7B4FE01210420FFF7C0FE4020ADF88F
:101AB000100018208DF8130003208DF8120004A9DF
:101AC0001648FFF72BFD40211448FFF704FE144889
:101AD0008580048000201249C8804880114800F0A9
:101AE00085F86020ADF800000120ADF80200ADF8E7
:101AF00006000020ADF8080069460A4800F02AF800
:101B000081200849088001224915064800F018F88C
:101B10000121044800F008F805B030BD000801407C
:101B2000923C00200004004021B1028842F00102F2
:101B3000028004E002884FF6FE731A40028070476C
:101B40001AB183890B43838102E083898B438381AC
:101B50007047000070B5002400220023058C4FF66A
:101B6000FE7635400584028C8388048B4FF68F7592
:101B70002C40B51E2C400D882C43751E2A400D8923
:101B80002A434D882A43144DA8420BD0134DA84236
:101B900008D0134DA84205D0124DA84202D0124DD4
:101BA000A84213D14FF6F7752A404D892A434FF6C4
:101BB000FB752A408D882A434FF6FF652B404FF670
:101BC000FF552B408D892B43CD892B438380048384
:101BD000CD888586028470BD002C01400034014010
:101BE00000400140004401400048014000220288BA
:101BF0001D4B98420ED01D4B98420BD0B0F1804F38
:101C000008D01B4B984205D01A4B984202D01A4B71
:101C1000984204D14FF68F731A404B881A43174BE2
:101C2000984207D0164B984204D04FF6FF431A4013
:101C3000CB881A4302808B8883850B8803850A4BE7
:101C400098420BD0094B984208D00E4B984205D0D1
:101C50000D4B984202D00D4B984201D10B7A03866E
:101C60000123838270470000002C014000340140B2
:101C70000004004000080040000C0040001000403C
:101C80000014004000400140004401400048014071
:101C900010B540F225511D4800F04AF810B31B481A
:101CA00000F002F9C4B21A48008800F40040C8B934
:101CB0001748008800F4804060B10A2C03D000204F
:101CC0001349088020E01248008840F40040104981
:101CD000088019E00D2C06D10D48008840F48040A2
:101CE0000B49088010E00A480088C0F30D0009493C
:101CF0000C5407480088401C0549088008460088A5
:101D0000C72801DD0020088010BD00000038014018
:101D100030000020CA3B002021B1828942F40052E9
:101D2000828104E082894DF6FF731A4082817047F8
:101D300070B50246002400230025002040F66A16F4
:101D4000B14200D100BFC1F3421501F01F030126CB
:101D500006FA03F3012D02D19689334006E0022DE5
:101D600002D1168A334001E0968A33400C120126D4
:101D700006FA04F41688344013B10CB1012000E0D7
:101D8000002070BDF0B50346002400260025002089
:101D900040F66A17B94200D100BF1846C1F3421499
:101DA00001F01F06012707FA06F5012C01D10C30BE
:101DB00004E0022C01D1103000E014301AB10768A1
:101DC0002F43076002E00768AF430760F0BD0000E3
:101DD0002DE9F04786B005460E460024A24600BF16
:101DE000A1460027B08900B100BF2F462C8A4CF6CF
:101DF000FF700440F08804432C82AC894EF6F31047
:101E00000440B08831890843718908430443AC8198
:101E1000AC8A4FF6FF400440B0890443AC8201A86D
:101E2000FFF714FD1F48874202D1DDF810A001E042
:101E3000DDF80CA0A88900F4004040B10AEBCA000C
:101E400000EB0A1031684900B0FBF1F807E00AEB3B
:101E5000CA0000EB0A1031688900B0FBF1F8642079
:101E6000B8FBF0F004012009642101FB1089A88966
:101E700000F4004040B1322000EBC900B0FBF1F0AB
:101E800000F00700044308E0322000EB0910642151
:101E9000B0FBF1F000F00F0004432C8106B0BDE868
:101EA000F08700000038014001468888C0F3080030
:101EB000704700BFFEE700000FB4054B10B503A943
:101EC000044A029800F0E6F810BC5DF814FB00002C
:101ED000E92800082C000020002213461046114675
:101EE000FEF701BB02E008C8121F08C1002AFAD1A0
:101EF00070477047002001E001C1121F002AFBD18A
:101F0000704700000149086070470000640000202D
:101F10002DE9FF5F82B00021DDE90430020DDDF81C
:101F200040B0034318D044F61050A2F2FF324243AF
:101F30001514119801281FD0A5EB0B00401C5FEA77
:101F4000000A4FF000064E4FDFF83891B046504679
:101F500015D5CAF1000413E0119801244AA3012801
:101F600001D16FEA0B010298119AC0E90031C0E972
:101F7000024206B0BDE8F09FCBF10000DFE7044667
:101F80000021404A491842EB0450CDE9001012E00C
:101F9000E00707D032463B4640464946FEF731FA55
:101FA0008046894632463B4610461946FEF729FAD6
:101FB00006460F466410002CEAD1DDE90401DDE994
:101FC0000023BAF1000F06DAFEF71BFA42464B4631
:101FD000FEF717FA05E0FEF786FA42464B46FEF793
:101FE00082FA04460E460022284BFEF74BFD03D82A
:101FF0004FF0FF30014607E00022254B20463146D6
:10200000FEF758F9FEF726FD102409E0002C0ADB44
:102010000A220023FEF794FB039B30321A55641EFC
:1020200050EA0102F2D1641C039AC4F11103144472
:10203000119A012A03D0012208430DD10AE0084376
:1020400004D000204FF0110B119072E7A3EB0B05A9
:102050006D1E0DE05B4504DD4FF0000205F101054A
:1020600004E003DA4FF00002A5F10105002AECD0EC
:1020700002981199C0E90231C0E9004579E70000F2
:10208000000014400000F03F300000000000F0436A
:102090000000E03F2DE9FF4F95B09B46894606467C
:1020A00000250FE2252877D100242746F84A012190
:1020B000059400E0044316F8013F203B01FA03F0C9
:1020C0001042F7D130782A2811D06FF02F033078E2
:1020D000A0F13002092A16D8059A44F0020402EB56
:1020E000820203EB42021044761C0590EFE759F898
:1020F000042B0592002A03DA504244F40054059060
:1021000044F00204761C30782E2816D116F8010F00
:1021100044F004042A280DD06FF02F023078A0F18B
:102120003003092B09D807EB870302EB4303C718D9
:10213000761CF3E759F8047B761C30786C280FD0B6
:1021400006DC4C2817D068280DD06A2814D104E08A
:10215000742810D07A280FD10DE044F400140AE05E
:1021600044F4801401E044F440147278824202D1B5
:1021700004F58014761C761C307866280BD013DCAE
:10218000582877D009DC002875D04528F6D0462895
:10219000F4D047281AD19DE118E0632835D064288F
:1021A00079D0652812D195E1702873D008DC6728B2
:1021B000F1D069286FD06E280DD06F2806D1B5E018
:1021C00073282CD0752875D0782874D05A46179962
:1021D00090476D1C75E1C4F30250022809D0032812
:1021E0000DD0D9F8001004280DD00D6009F10409B4
:1021F00067E1D9F80010EA17C1E90052F6E7D9F80B
:1022000000100D80F2E70D70F0E719F8041B8DF84F
:10221000001000208DF80100EA46012003E059F883
:1022200004AB4FF0FF3061074FF0000102D40DE026
:1022300008F101018846B9420FDA8045F8DB1AF847
:1022400008100029F4D108E008F101018846814214
:10225000FADB1AF808100029F6D105985B46A0EBC6
:10226000080721463846179A00F094FA284400EBF4
:10227000080507E04DE029E10DE01AF8010B5A4688
:1022800017999047B8F10108F7D25B4621463846C6
:10229000179A13E142E00A220092C4F302524FF06F
:1022A000000A022A08D059F804CB032A4FEAEC713D
:1022B0000AD00DE029E02AE009F1070121F0070228
:1022C000F2E802C1914609E00FFA8CFC4FEAEC718A
:1022D000042A03D14FFA8CFC4FEAEC71002907DA8B
:1022E0000A460021DCF1000C61EB02012D2202E024
:1022F000220504D52B228DF80420012203E0E207F9
:1023000001D02022F7E7904659E00A2102E010228E
:102310000DE010214FF0000A00910BE010224FF069
:10232000000A44F004040827009203E008224FF05A
:10233000000A0092C4F30252022A05D059F804CBD5
:102340000021032A08D009E009F1070121F0070262
:10235000F2E802C1914605E01FFA8CFC042A01D183
:102360000CF0FF0C4FF00008220728D5702806D08B
:10237000009B83F0100353EA0A0305D00EE04022CD
:102380008DF80420012208E05CEA010206D0302228
:102390008DF804208DF8050002229046009B83F002
:1023A000080353EA0A030AD15CEA010201D1620779
:1023B00005D530228DF804204FF001087F1E5828E3
:1023C00004D034A003900EA802900DE036A0F9E7E7
:1023D00053466046009AFEF7B3F984460398825C40
:1023E0000298401E029002705CEA0100F0D102984F
:1023F00006A9081A00F1200A600702D524F48034E7
:1024000000E00127574502DDA7EB0A0000E00020AD
:1024100000EB0A01009005984144401A0590E00342
:1024200006D45B462146179A059800F0B3F9054497
:10243000002706E001A85A46C05D179990476D1C19
:102440007F1C4745F6DBE0030CD55B462146179A17
:10245000059800F09FF9054404E030205A4617998A
:1024600090476D1C0099481E00900029F5DC08E09B
:10247000029802995A460078491C02911799904790
:102480006D1CBAF10001AAF1010AF1DC65E100005E
:10249000092801003031323334353637383961623A
:1024A00063646566000000003031323334353637FE
:1024B00038394142434445460000000000F058F9D5
:1024C0000544761C307800287FF4ECAD19B028461E
:1024D000BDE8F08F620700D4062709F1070222F059
:1024E000070CFCE80223E14603F000485FEA080C11
:1024F00002D00FF2702C0DE05FEA045C02D50FF2FF
:10250000682C07E05FEAC47C02D00FF2602C01E087
:10251000AFF2700C4FF0FF3823F00043CDF850C0FD
:1025200065280CD006DC452809D046281DD0472850
:102530003DD13DE0662818D067287ED138E00021E3
:10254000112F01DB112000E0781CCDE9000106A964
:102550000EA8FFF7DDFCDDE90F010E9A03910021C3
:10256000009207F1010A04914DE04FF000400097FE
:10257000CDE9011006A90EA8FFF7CAFCDDE90F029C
:1025800003920E9B11990022DDF80CA00093049297
:1025900011B9791C00EB010AB7EB0A0004D4C0F1B1
:1025A000FF3007F1010A0490AAEB0700019044E014
:1025B000012F00DA01270021112F01DD112000E099
:1025C0003846CDE9000106A90EA8FFF7A1FCDDE918
:1025D0000F010E9A0391002104910092BA4621073F
:1025E0000CD40399514500DA8A46BAF1010F05DD92
:1025F000009AAAF10101515C302908D0B84202DAF0
:1026000010F1040F06DA0121CDE9011015E0AAF15D
:102610000101E9E7002805DC049901440491AAEBD3
:10262000000102E0411C514500DD8A460499401A30
:10263000401C01904FF000400290200704D4019804
:10264000504501DBCDF8048000208DF84F00029842
:102650000DF14F07B0F1004F25D02B200E900298BE
:102660004FF0020800280CDA404202902D200E9014
:1026700007E00A210298FEF74DF83031029007F882
:10268000011DB8F10001A8F10108F2DC0298002850
:10269000EFD1791E0E980870307800F0200040F0DD
:1026A000450007F8020D12A8C01B00F10708149896
:1026B000007800B1012000EB0A01019801EBE07104
:1026C00005984144401A401E0590E00306D45B463D
:1026D0002146179A059800F05DF805441498007893
:1026E00018B15A46179990476D1CE00324D55B46F4
:1026F0002146179A059800F04DF805441CE004980F
:10270000002807DBDDE90301884203DD0098405C17
:10271000179901E0179930205A469047049805F11F
:102720000105401C04900198401E019004D12E2008
:102730005A46179990476D1CBAF10001AAF1010A97
:10274000DDDC05E017F8010B5A46179990476D1C20
:10275000B8F10001A8F10108F4DC5B462146179AA4
:102760000598ABE62D0000002B00000020000000C3
:102770002DE9F041044600251E461746880404D47E
:1027800005E039462020B0476D1C641EF9D5284667
:10279000BDE8F0812DE9F041044600251E46904633
:1027A000C80301D5302700E02027880404D505E0C0
:1027B00041463846B0476D1C641EF9D52846BDE831
:1027C000F081000010B56FF00400FFF71FF90A4810
:1027D00000680A49B0FBF1F0094908700846007822
:1027E00000EB4001C1EBC0104FF6FF7101EAC000E1
:1027F0000449088010BD00004800002000127A0043
:1028000024000020260000200146114A12884A4375
:102810004FF0E0235A6100229A611A46126942F091
:1028200001021A6100BF4FF0E022106900F00102BE
:102830001AB100F48032002AF5D04FF0E02212697C
:1028400022F001024FF0E0231A6100229A617047E2
:102850002600002070B514461D460E46002814BF01
:1028600001210021314321F00041C1F17F6101F1DB
:10287000E041C90F16D1002C14BF012100212943CA
:1028800021F00041C1F17F6101F1E041C90F09D19F
:102890001449B1EB460F08BF00281CD0690008BFDF
:1028A000002C18D03146FEF792F8024640F2FF7035
:1028B00030EA11500DD0F017B0EBE17F09D0084697
:1028C00065F31E0084460B4620466146FDF796FDE3
:1028D0000246104670BD0120FFF714FBBDE87040B2
:1028E000FFF7FABA0000E0FF00BF054A128802F0C5
:1028F0004002002AF9D0C2B2014B1B1D1A8070475A
:102900000038014010B5002821D0114B0022001FD3
:10291000196803E0814203D80A4649680029F9D1C1
:1029200052B11368841A9C4204D1006818441060A4
:10293000104602E0506000E0186039B102680B1ADE
:10294000934203D10B681A4402604968416010BD8C
:102950005C0000201FB50020DB490860087188601A
:10296000FFF730FF4FF4A060FEF736FF4FF4E13081
:1029700000F04AFDFEF7B4FE0020D449086040F2A2
:10298000CF20002141F60113D14ACDE90010D149F1
:10299000D14800F083FA0020042308220721009088
:1029A000FEF7BAF9FEF722FD8DE1CC48FEF788FB71
:1029B000CB4908600846006800287CD0C748C0782A
:1029C000002878D1C74800780028F6D0C64800789B
:1029D000C82870DAC1490978C04A5278C2EBC212DD
:1029E00001EB4200FDF7EEFDC049096801EB410132
:1029F000B54A42F82100BD4A1268521E02EB42025B
:102A0000B14B53F82210B94A126802EB420253F854
:102A10002200FDF7D9FB04460021FDF771FE09D223
:102A20000120B249096801EB4101A74A02EB81018B
:102A3000087108E00020AD49096801EB4101A24A94
:102A400002EB81010871A5490979A44A5279C2EBC8
:102A5000C21201EB4200FDF7B5FDA449096801EB84
:102A60004101994A02EB81018860A1A0FFF724FA95
:102A70009E49096801EB4101934A52F82100FDF794
:102A800006FE044622460B469DA0FFF715FA97481E
:102A9000006800EB40008C4A02EB800001799BA0AB
:102AA000FFF70AFA9149096801EB4101864A02EBF6
:102AB0008101886800E022E0FDF7E9FD0446224636
:102AC0000B4695A0FFF7F8F988480068C82803D19D
:102AD00001208649086004E084480068401C83495E
:102AE000086080480078401E7E4908707E48007863
:102AF000401C7D4908708BA0FEF7D6FADCE07848D0
:102B000000680028FAD07548C0780028F6D07348CD
:102B1000C07845287ED006DC41287CD043287BD075
:102B200044287AD1B7E0482878D0522802D05328D8
:102B3000F7D1A4E07CA0FFF7BFF96A480078C82865
:102B40006DDA69480078002869D0FEF7E7FD0128B2
:102B5000FAD0794A1268521E02EB42025A4B53F8DD
:102B60002210754A126802EB420253F82200FDF768
:102B70002BFB07467149FDF75FFB0446FDF787FD18
:102B800021F000410546FDF795FD6D4908600846B6
:102B90000068FDF77CFD82466A4A6B4BFDF7A3FC9B
:102BA000804600224FF08043FDF79DFC0646002240
:102BB000664BFDF726FC0446FDF77CFD0390444878
:102BC00063490091CDE901105B48006800EB4000CB
:102BD0003D4A02EB800001795E4B5F4A039800F0AA
:102BE000C3F95EA0FFF768F953480068401E00284B
:102BF0001FDD002150480068401E00EB4000324AB3
:102C000042F820104C480068401E00EB400002EBE8
:102C1000800005E045E027E049E04CE035E01FE0BA
:102C2000017145480068401E00EB400002EB800047
:102C3000816041480068C82803D101203E490860EE
:102C400004E03D480068401C3B4908602548007886
:102C5000401C2449087024480078401E224908700E
:102C600041A0FEF721FA26E040A0FFF725F900F089
:102C70006DFB012802D140A0FEF716FA1BE000F020
:102C800085FB3EA0FEF710FA15E000F0D9F83CA055
:102C9000FEF70AFA0FE000F0C3F83AA0FEF704FAD4
:102CA00009E000F0C5F838A0FEF7FEF903E037A010
:102CB000FEF7FAF900BF00BFFEF730FD022802D18F
:102CC00033A0FEF7F1F970E668000020BC812142D4
:102CD000C80900202C0400406C00024012000020B3
:102CE000000000201000002011000020040000203F
:102CF0002D2D2D2D2D2D2D2D2D2D2D0D0A000000CE
:102D00007261643A25660D0A000000006469723A37
:102D100025640D0A0000000073706565643A25663D
:102D20000D0A000047300000726563696576652012
:102D300072200D0A000000000800002000007A4404
:102D40000C0000201F85EB51B81E094000C0C24096
:102D5000CDCCCC3DC3F5484033337B41636F6E66C9
:102D60006967200D0A000000523000007265636937
:102D700065766520610D0A00414330005330000044
:102D8000483000004430000045300000524300004D
:102D900041523000F0B50B30154D20F007010024F2
:102DA000144A0FE003688B420BD38B4205D95E1A9D
:102DB00043184768C3E9006700E04368136002C036
:102DC00004E0021D10680028ECD12046002802D142
:102DD000286808B10020F0BD064A07481060074A7D
:102DE000121A22F00702C0E9002401202860D7E768
:102DF000600000205C000020CC3C0020C83E002089
:102E000010B5044624B108210448FEF766FC03E02F
:102E100008210248FEF75FFC10BD0000000C0140D5
:102E200010B510210148FEF758FC10BD000C014000
:102E300010B510210148FEF74EFC10BD000C0140FA
:102E40000EB518E011484FF07E510091104B1A4614
:102E5000CDE9011000214FF07E5000F085F800F020
:102E600075FA04E0FEF75AFC012800D000E0F9E70B
:102E700000BF00F08BFA074800780028E2D000205D
:102E80000549086000F082FA0EBD0000C809002064
:102E9000C3F5484028000020200000202DE9F0471D
:102EA00004460D4616461F46DDE9088900F014F871
:102EB0003B46324629462046FEF77EF949464046C3
:102EC000FEF7E8FDFFF7B4FF022002490870BDE8F5
:102ED000F08700001C00002008B501210D20FEF73E
:102EE000A5FC2020ADF8000048208DF803006946BD
:102EF0001A48FEF713FB4020ADF8000018208DF8AB
:102F0000030003208DF8020069461448FEF706FB13
:102F100040211248FEF7DFFB01211148FEF78AFB32
:102F20000820ADF8000010208DF8030003208DF874
:102F3000020069460B48FEF7F1FA08210948FEF73E
:102F4000CAFB1020ADF8000069460648FEF7E6FA15
:102F500010210448FEF7C1FB08BD00000008014035
:102F600000023000000C01402DE9FF4F8FB01E9D84
:102F70000F98FDF78CFB0022EB4BCDE90801FDF724
:102F800099F9CDE90A01FDF769FB80B241F601111B
:102F9000884203DD002013B0BDE8F08FE3481C99A0
:102FA000FDF718F90690DDE91101FDF70DF9049020
:102FB000DDE91101FDF7B6F803900499FDF70AF970
:102FC00005900699FDF738F90790FDF760FB0022A0
:102FD000D74BCDE90801FDF76DF9CDE90A01FDF701
:102FE0003DFB1FFA80F8DDE91C01FDF79BF8014667
:102FF00005901D98FDF720F906900F99FDF7EAF866
:103000000790FDF744FB0022C94BCDE90801FDF70D
:1030100051F9CDE90A01FDF721FB1FFA80FBC548F4
:103020001199FDF709F90790FDF731FB0022C04B1C
:10303000CDE90801FDF73EF9CDE90A01FDF70EFBE8
:1030400080B20D9000270220FFF7A4FE81460220E7
:10305000FFF7A0FE0646BA46002400200C90D84593
:1030600026DC4746DDE91C01FDF7E6F80A90384604
:10307000FDF7B1FA09900A99FDF7ACF80B90FDF74E
:10308000D9FAA9F80000B9F80010C819FDF79AFAA2
:103090000A900F99FDF79BF80B90FDF7CBFA1FFAFA
:1030A00080FA07EB0A0030804846FFF72BFC03E06C
:1030B0005F464846FFF726FC0F98FDF7E8FA002226
:1030C0009B4BCDE90601FDF7F5F8CDE90801FDF7C9
:1030D000C5FA80B20B90FDF77EFA0F9008E114BBA1
:1030E00095481C99FDF7A8F80190FDF7D0FACDE9B5
:1030F000020100F063F90022904BCDE90401FDF7D5
:1031000080F98F4A8F4BCDE90601FDF77AF900224D
:10311000874BCDE90801FDF7CDF8CDE90A01FDF7B0
:103120009DFA25F81400002C56DDBC4254DAA100AB
:10313000481EFDF747FA05EB4401049031F8021CE4
:103140004800FDF73FFA02900C99FCF7EBFF039063
:103150000499FDF771F805EB4401069031F8020C73
:10316000FDF739FA05900699FDF72EF80790FDF75F
:103170008EFA00226E4BCDE90801FDF79BF8CDE9F0
:103180000A01FDF76BFA3080308818B1308825F8D5
:10319000140002E0022025F81400A100481EFDF7EB
:1031A0001FFACDE9080105EB440131F8021C480083
:1031B000FDF708FA04900C99FCF7B4FF0590FDF7B1
:1031C00066FACDE90601DDE90823FFF743FBCDE907
:1031D0000A01FDF76FFA0C90BC4206DB07EB0A0010
:1031E000A04202DD0D9825F8140007EB0A00A0426A
:1031F0006EDC2046FDF7EFF90B900F99FDF776FA9C
:1032000066D2A100481EFDF7DDF904900F98FDF786
:10321000F8F905EB4000A0EB440030F8020C400048
:103220000190FDF7CFF902900C99FCF77BFF03901A
:103230000499FDF701F806900F98FDF7E2F905EB08
:103240004000A0EB440030F8020C0490FDF7C3F9F5
:1032500005900699FCF7B8FF0790FDF718FA0022D1
:10326000334BCDE90801FDF725F8CDE90A01FDF75B
:10327000F5F93080308818B1308825F8140002E064
:10328000022025F81400A100481EFDF7A9F9CDE998
:1032900008010F98FDF7B5F905EB4000A0EB4400DD
:1032A00030F8020C40000390FDF78CF904900C9963
:1032B000FCF738FF0590FDF7EAF9CDE90601DDE9F5
:1032C0000823FFF7C7FACDE90A01FDF7F3F90C90DF
:1032D0002046FDF780F90B900F99FDF707FA05D10D
:1032E000002025F814003046FFF70CFB601C84B268
:1032F0002046FDF770F90B900F99FDF701FABFF426
:10330000EEAE1098FFF77CFD00210F48FDF748FF57
:103310000F98FDF78FF9401C80B201460B900A48C8
:10332000FEF740F8012036E60000F83F499D803C5A
:103330000000E03F00404444499D003C006AF840E2
:103340006F1283C0CAA1E53F6C00024010B50C4863
:103350000078012812D002200A49088001210A4879
:10336000FDF71EFF012107482C38FEF7DDFB012089
:103370000449183908800249087010BD0020FCE794
:103380001C0000202C0400406C00024010B50021FD
:103390000748FEF7C9FB00210648FDF701FF0020A2
:1033A00004496C39086702200349087010BD000009
:1033B000000400406C0002401C0000202DE9F04198
:1033C00006460F46FDF7B2FA041E0D4618BF01204F
:1033D000284320F00040C0F17F6000F1E040C00FC2
:1033E0000ED0301C18BF0120384320F00040C0F13F
:1033F0007F6000F1E040C00F04BF0120FEF782FDB6
:1034000020462946BDE8F08110B586B0044601216A
:1034100044F20400FEF70AFA4FF40070ADF814000D
:1034200003208DF8160018208DF8170005A91C48F8
:10343000FEF774F84FF48060ADF8140004208DF8A6
:10344000170005A91648FEF769F825208DF8000039
:1034500003208DF801008DF8020001208DF8030093
:103460006846FEF781F901940020ADF80800ADF838
:103470000A00ADF80C00ADF810000C20ADF80E00FD
:1034800001A90848FEF7A4FC012240F22551054895
:10349000FEF778FC01210348FEF73EFC06B010BDA4
:1034A0000008014000380140C83400080000002036
:1034B00068000000E41E00083035000868000020A5
:1034C00060420000F41E000800000000010000003F
:1034D0000100000000000000C80000000000000023
:1034E00000000000000000000000000000000000DC
:1034F00000000000000000000000000000000000CC
:103500000102030401020304060708090204060875
:1035100000A24A04000000000000000001020304B1
:10352000060708090000000000000000000000007D
:04000005080000ED02
:00000001FF
