:020000040800F2
:10000000C842002001010008D51600080B010008B5
:1000100089160008DB0A0008231E00080000000003
:10002000000000000000000000000000911800081F
:10003000B5130008000000001701000819010008AE
:100040001B0100081B0100081B0100081B01000820
:100050001B0100081B0100081B0100081B01000810
:100060001B0100081B0100081B0100081B01000800
:100070001B0100081B0100081B0100081B010008F0
:100080001B0100081B0100081B0100081B010008E0
:100090001B0100081B0100081B010008B913000820
:1000A0001B0100081B0100081B0100081B010008C0
:1000B0001B0100081B0100081B0100081B010008B0
:1000C0001B0100081B0100081B0100081B010008A0
:1000D0001B010008011C00081B0100081B0100088F
:1000E0001B0100081B0100081B010008DFF80CD0F1
:1000F00000F0C0FC00480047A1290008C8420020C9
:100100000648804706480047FEE7FEE7FEE7FEE7B1
:10011000FEE7FEE7FEE7FEE7FEE7FEE7A5190008BB
:10012000ED000008F0B480EA0102D40F4200B2EB07
:10013000410F02D20246084611464A0042D0C30D82
:10014000DDB2C1F3C752AD1A202D35DAC1F3160165
:1001500041F4000204B15242C5F1200602FA06F150
:100160002A411044B3EBD05F23D0C4B1012DA0EBE2
:10017000C35009DCF0BC4FF0004202EAC352DBB2CC
:1001800000F5000000F080BA400000F1807000EB44
:10019000C350A0F1807040EAD170490009E04908DD
:1001A00041EAC071A0EBC35000F50000400800EB2D
:1001B000C350F0BC00F05FBA6142012202EB410182
:1001C000001BF6E7F0BC704781F00041AAE780F021
:1001D0000040A7E780EA010210B502F000434000AA
:1001E00022D04A001FD0010E01EB1261C0F356006D
:1001F000C2F3560240F4000042F40002A0FB0220C9
:1002000000047F39140400D0401C50EA124001D48D
:100210004000491EC2B20C0604EBD010401C40083E
:10022000802A02D003E0002010BD20F00100002948
:1002300000DA0020184310BD30B480EA010202F059
:10024000004530F0004221F0004013D090B1C30DC2
:10025000D40DC2F31601C0F31600E41A41F40001F4
:1002600040F400027D34914201D3641C00E0490057
:10027000002C02DA30BC002070474FF4000000234D
:10028000914201D3891A034340084FEA4101F7D153
:1002900051B1914202D14FF0004105E002D24FF03E
:1002A000010101E06FF0010103EBC450284430BCB0
:1002B00000F0E1B92DE9FE4F81EA030404F00044A7
:1002C00021F0004100944FF0000B23F0004350EA6E
:1002D00001045ED052EA03045BD0C3F30A54C1F3B5
:1002E0000A552C44A4F2F3340194A0FB0254C1F348
:1002F000130141F48011C3F3130343F4801301FB92
:10030000024400FB034E840A970A44EA815447EAF8
:100310008357A4FB076802958D0A05FB07854FEA02
:10032000932C04FB0C542705029D4FEA065847EA1C
:100330001637B5EB08056EEB070C870E920E47EAF1
:10034000811742EA8312A7FB0201B6EB0B0164EBB3
:1003500000042B0D43EA0C335E1844EB1C50DA46C4
:100360005146E7FB0201C5F313044FEA0B3343EA9E
:1003700014534FEA0432019C43EA0603A4F10C042F
:100380000294009CCDE900B400F0BBF903B0BDE8D5
:10039000F08F00200146F9E72DE9F04D81EA0304D2
:1003A00004F0004B21F0004514464FF0000A23F002
:1003B000004150EA050220D054EA01021DD0C5F3E5
:1003C0000A570246C5F31303C1F31300C1F30A56DB
:1003D00040F4801543F48013A7EB0608101BD646A3
:1003E00008F2FD3873EB050002D308F1010801E0C3
:1003F00092185B41B8F1000F03DA00200146BDE816
:10040000F08D00204FF48011064684460EE0171B45
:1004100073EB050705D3121B63EB050306434CEA98
:10042000010C49084FEA300092185B4150EA01077D
:10043000EDD152EA030012D082EA040083EA0501FA
:10044000084305D0101BAB4106D20122002306E071
:1004500000224FF0004302E06FF0010253101AEB4C
:1004600006004CEB085110EB0A0041EB0B01BDE814
:10047000F04D00F037B9C10F80EAE0700844CA07B8
:100480009623002100F000B996230022114600F0C7
:10049000FBB80EB5C10F80EAE0700844CA0700211E
:1004A00040F233438DE80E000A460B4600F029F96E
:1004B00003B000BD00F0004220F00040C10DC0F3C9
:1004C000160040F400007F2901DA002070479629C9
:1004D00003DCC1F19601C84001E096398840002A4A
:1004E000F4D04042704720F00040C10DC0F3160028
:1004F00040F400007F2901DA00207047962903DCD0
:10050000C1F19601C8407047963988407047C1F3E1
:100510000A5210B5C1F3130140F2FF3341F48011C8
:100520009A4201DA002010BD40F233439A42A2F20F
:10053000334203DC524200F08EF810BD904010BDF3
:1005400000F0004230F000400AD0C10D01F56071AA
:10055000C0F3160042EA0151C20840071143704738
:1005600000200146704701F0004330B421F0004103
:1005700050EA010206D00A0DA2F56072C1F3130120
:10058000002A02DC30BC00207047440F44EAC1045A
:10059000C100E01830BC00EBC25000F06CB80000A5
:1005A000002801DBC0F10040002901DBC1F100415E
:1005B00081427047002801DBC0F10040002901DBC7
:1005C000C1F100418842704730B50B46014600201A
:1005D0002022012409E021FA02F59D4205D303FA05
:1005E00002F5491B04FA02F52844151EA2F1010286
:1005F000F1DC30BD2DE9F05F0546002092469B46B8
:1006000088460646814640241BE028464146474628
:10061000224600F020F853465A46C01A914110D3A2
:1006200011461846224600F037FA2D1A67EB0108EA
:100630004F4622460120002100F02EFA17EB000958
:100640004E41201EA4F10104DFDC484631462A4613
:100650004346BDE8F09F202A04DB203A21FA02F04D
:100660000021704721FA02F3D040C2F120029140EC
:100670000843194670470029A8BF7047401C49002D
:1006800008BF20F00100704710B4B0FA80FC00FAF7
:100690000CF050EA010404BF10BC704749B1CCF122
:1006A000200421FA04F411FA0CF118BF01212143AE
:1006B0000843A3EB0C01CB1D4FEA00614FEA102069
:1006C00042BF002010BC704700EBC350104400290B
:1006D000A4BF10BC7047401C490008BF20F00100B7
:1006E00010BC704710B5141E73F1000408DA401CEA
:1006F00041F1000192185B411A4301D120F0010041
:1007000010BD2DE9F04D92469B4611B1B1FA81F230
:1007100002E0B0FA80F22032904600F0BDF90446C3
:100720000F4640EA0A0041EA0B0153465A46084385
:1007300013D0114653EA010019D0C8F140025046C7
:10074000FFF789FF05460E4650465946424600F0DF
:10075000A3F9084305D0012004E020463946BDE84E
:10076000F08D0020054346EAE0762C4337430A9893
:100770006305E40AA0EB08000022FD0A44EA47549E
:100780000A3002D500200146E9E701051019694148
:10079000DDE9084500196941BDE8F04DA2E72DE902
:1007A000FE4F804681EA0300C00F0C46009021F006
:1007B000004123F00045B8EB0200A94105D24046B4
:1007C000214690461C460B46024623F0004010434B
:1007D00047D0270DC7F30A00C3F30A510290401A0D
:1007E000019040286BDAC3F3130040F4801B00989B
:1007F000924620B10023D2EB030A63EB0B0B019866
:100800005946C0F14002504600F046F906460D46F2
:1008100050465946019A00F04EF910EB080061412C
:10082000002487EA115284EAE7731A4340D0009A01
:1008300062B3019A012A4FEA075215DC001B61EBF3
:1008400002014FF0004202EA0752CDE90042001CCB
:1008500041F5801132462B46FFF753FF03B0BDE848
:10086000F08F40462146F9E7001B61EB0201001CB6
:1008700041F5801300185B412018A2F5001747EBE3
:10088000030140EAD570B6196D4111E06D084FEAD9
:10089000360645EAC0754FEA0752001B61EB0201BC
:1008A000001C41F5801149084FEA30000019514100
:1008B00032462B4603B0BDE8F04FFFF713BF009858
:1008C000012240000023D0EB020263EBE0730098AA
:1008D00021464FEAE074B8EB000061EB0401E9E760
:1008E00083F000435BE781F0004158E72DE9F04DCC
:1008F00000231A461B1A8A4103DB00200146BDE88B
:10090000F08DC1F30A52C1F3130141F480154FF089
:10091000000BD10702D100186D41521E002704467A
:1009200040F2FF11384601EB620A3E46804602461D
:1009300000204FF48011FFF78EFEC2197141BB18E1
:1009400046EB0100B4EB030C75EB000C04D3E41A86
:1009500065EB000517460E46241908F101006D41AC
:1009600080463428E3DDF91946EB0600091BA8414F
:1009700003D24FF0FF32134601E0002213461BEB77
:10098000070046EB0A51BDE8F04DFFF7ABBE2DE97D
:10099000FE4FC3F30A5701F000450024C1F30A5685
:1009A000C3F31303C1F3130143F4801312EB020AE0
:1009B000A64641F48011009543EB030CA7F1010B0F
:1009C00016E0B0EB0A0061EB0C01071E71F10007A5
:1009D00007DA4FF00008D0EB080085F0004568EB1F
:1009E0000101171A73EB0107EBD3761E001849417A
:1009F0005E45F6DA50EA010209D0CDE900E50022B1
:100A000013460296FFF77DFE03B0BDE8F08F204647
:100A10000099F9E7C1F30A52C1F3130140F2FF3321
:100A200041F480119A4202DA00200146704740F2F8
:100A300033439A42A2F2334202DC5242FFF70BBE2A
:100A400000F02AB830B5041E71F1000404DB4FF049
:100A50000044404264EB0101141E73F1000405DB05
:100A60001C464FF00043524263EB0403994208BF17
:100A7000904230BD064C074D06E0E06840F00103AF
:100A800094E8070098471034AC42F6D3FFF732FBE6
:100A90004434000864340008202A04DB203A00FAB9
:100AA00002F1002070479140C2F1200320FA03F3C5
:100AB000194390407047202A06DBCB17203A41FAB1
:100AC00002F043EAE07306E041FA02F3D040C2F1DB
:100AD0002002914008431946704700BFFEE700001E
:100AE00010B50021837A012202FA03F13D4A12680F
:100AF00042F001023B4B1A603A4A1C3212688A43A8
:100B0000384B1C331A60027BCAB9364A0C32126861
:100B10008A43344B0C331A604288C38842EA034349
:100B2000304A4032847A42F834300288838842EA7C
:100B300003432C4A4032847A02EBC4025360027BA6
:100B4000012A19D1274A0C3212680A43254B0C336B
:100B50001A604288038842EA0343224A4032847A78
:100B600042F83430C288838842EA03431D4A403247
:100B7000847A02EBC4025360C27A3AB9194A121D50
:100B800012688A43174B1B1D1A6006E0154A121D96
:100B900012680A43134B1B1D1A60028932B9114AAD
:100BA000143212688A430F4B14331A600289012AE7
:100BB00006D10C4A143212680A430A4B14331A60E5
:100BC000427B012A06D1074A1C3212680A43054BB0
:100BD0001C331A60034A126822F00102014B1A60AA
:100BE00010BD00000066004030B502460020002322
:100BF000146824F002041460146844F001041460C2
:100C000000E05B1C546804F001041CB94FF6FF744B
:100C1000A342F6D1546804F001040CB900206CE042
:100C20008C79012C04D1146844F08004146003E032
:100C3000146824F080041460CC79012C04D1146869
:100C400044F04004146003E0146824F0400414608D
:100C50000C7A012C04D1146844F02004146003E0E1
:100C6000146824F0200414604C7A012C04D1146818
:100C700044F01004146003E0146824F010041460BD
:100C80008C7A012C04D1146844F00804146003E049
:100C9000146824F008041460CC7A012C04D1146880
:100CA00044F00404146003E0146824F004041460A5
:100CB0008C78A407CD7844EA05640D7944EA0544AC
:100CC0004D7944EA05540D886D1E2C43D461146897
:100CD00024F001041460002300E05B1C546804F05D
:100CE00001041CB14FF6FF74A342F6D1546804F01E
:100CF00001040CB1002000E0012030BD02460020BC
:100D000019B9D36803F0030006E0012903D1136980
:100D100003F0030000E00020704700002DE9F041DF
:100D200088B004460D4616461F46DDF8388001217E
:100D3000042000F033FD0121480600F01FFD4FF4B0
:100D40008050ADF81C0003208DF81E0018208DF88F
:100D50001F0007A9254800F0E3FB4FF40060ADF841
:100D60001C0048208DF81F0007A9204800F0D8FB80
:100D700000208DF816008DF817008DF8180001205E
:100D80008DF8190000208DF81A008DF81B008DF8E1
:100D900012808DF813408DF814608DF81550ADF861
:100DA000107004A91248FFF71FFF00208DF80A00F9
:100DB0008DF80B0001208DF80C002020ADF800000C
:100DC0000020ADF802002020ADF804000020ADF8AE
:100DD0000600ADF8080001208DF80D006846FFF709
:100DE0007FFE002008B0BDE8F0810000000801404F
:100DF0000064004010B500F5D87303EB01131B68C5
:100E000003F004031372137A53B900F5D87303EB9C
:100E100001131B6840F2FF7404EA5353136009E0A6
:100E200000F5D87303EB01131B686FF0604404EA0C
:100E3000D303536000F5D87303EB01131B6803F071
:100E40000203537200F5D87303EB01135B6803F0E0
:100E50000F03937200F5D87303EB01135B681B0A51
:100E6000D37400F5D87303EB01139B68D37200F5BC
:100E7000D87303EB01139B681C0A147300F5D87335
:100E800003EB01139B681C0C547300F5D87303EB40
:100E900001139B681B0E937300F5D87303EB0113CA
:100EA000DB68D37300F5D87303EB0113DB681C0A0E
:100EB000147400F5D87303EB0113DB681C0C547435
:100EC00000F5D87303EB0113DB681B0E937421B993
:100ED000C36843F02003C36003E0036943F02003C9
:100EE000036110BD10B502460020936803F08063D3
:100EF000B3F1806F00D110E0936803F00063B3F1A9
:100F0000006F01D1012008E0936803F08053B3F132
:100F1000805F01D1022000E00420042874D002F593
:100F2000C07303EB00131B6803F0010402F5C073E8
:100F300003EB00131C600B7A7BB94B7A0C8843EAF5
:100F4000445302F5C07404EB00142468234302F5F3
:100F5000C07404EB0014236010E00B7A4C6843EA81
:100F6000C4034C7A234302F5C07404EB00142468D4
:100F7000234302F5C07404EB001423608B7A03F062
:100F80000F038B7202F5C07303EB00135B6823F051
:100F90000F0402F5C07303EB00135C6002F5C0732D
:100FA00003EB00135B688C7A234302F5C07404EBF7
:100FB000001463608B7B1C064B7B44EA03440B7B71
:100FC00044EA0323CC7A234302F5C07404EB0014F3
:100FD000A3608B7C1C064B7C44EA03440B7C44EAF4
:100FE0000323CC7B234302F5C07404EB0014E360BD
:100FF00002F5C07303EB00131B6843F0010402F514
:10100000C07303EB00131C6010BD000010B5024656
:10101000002321B1012907D002290FD109E09068EE
:101020001D4C00EA04030BE090681C4C00EA04032A
:1010300006E090681A4C00EA040301E0002300BFB8
:1010400000BF184C181BA34216D007DC83B16FF009
:101050008060184470B1022818D111E0B0F5007F0B
:1010600010D0114C204448B1B0F5003F0ED10BE038
:1010700002230DE000230BE0002309E0002307E03A
:10108000012305E0012303E0012301E0002300BF69
:1010900000BFD8B210BD0000030000040003000828
:1010A00000000310000100080001FFF770B50446BE
:1010B0004FF000520321204600F038F8054628463C
:1010C00070BD000030B585B0054600211448FFF71B
:1010D00015FE10B9002005B030BD6A460021104849
:1010E000FFF788FE00240F480068C0430E49C1F88E
:1010F000BC0104E00DF10B00005D2855641C082CB8
:10110000F8D3142001F0A6FB06480068C043064946
:10111000C1F8BC01142001F09DFB9DF80A00DAE73C
:1011200000640040BC812142008021422DE9F04151
:1011300086B080460D4616460024700D0190C6F319
:10114000D100029000208DF80C008DF80D008DF874
:101150000E5000BF06E018F804100DF10F00015505
:10116000601C84B2AC42F6DB01A90D48FFF7BAFE61
:101170000746002401E0601C84B239460848FFF7A6
:1011800045FF18B940F6FF708442F4DB40F6FF706B
:10119000844203DB012006B0BDE8F0810020FAE7BD
:1011A0000064004021B1026842F00102026004E0E4
:1011B00002684FF6FE731A40026070472DE9F04155
:1011C00007460D4616461C460121084600F0C6FAA1
:1011D000052001F03FFB384600F022F80E4804805D
:1011E0000E480560466010200C4988600846C460BF
:1011F0000020086180204861400088618000C8614B
:10120000002008624FF4005048620020886238468F
:1012100000F0ACF8BDE8F081320000209C3C0020DA
:1012200001684FF6FE7211400160002101604160CB
:101230008160C1604B49884208D14A4908394968F0
:1012400041F00F01474A083A51608AE0454914319C
:10125000884208D143490839496841F0F001414AC0
:10126000083A51607DE03F492831884208D13D4924
:101270000839496841F470613A4A083A516070E0AF
:1012800038493C31884208D136490839496841F427
:101290007041344A083A516063E032495031884223
:1012A00008D130490839496841F470212D4A083A7B
:1012B000516056E02B496431884208D129490839E8
:1012C000496841F47001274A083A516049E02549CC
:1012D0007831884208D123490839496841F0706162
:1012E000204A083A51603CE01F49884206D1011F5C
:1012F000096841F00F01021F116032E01A491431F0
:10130000884208D11849091F096841F0F001164ABE
:10131000121F116025E014492831884208D1124972
:10132000091F096841F470610F4A121F116018E02B
:101330000D493C31884208D10B49091F096841F425
:101340007041094A121F11600BE007495031884271
:1013500007D10549091F096841F47021024A121F8B
:1013600011607047080002400804024010B50022D6
:10137000026847F6F0739A430C6A8B6823430C6942
:1013800023434C6923438C692343CC6923434C6A30
:1013900023438C6A23431A430260CB6843600B6883
:1013A00083604B68C36010BD416070470146486868
:1013B00080B270477047000010B50A2001F04AFA69
:1013C0002021074800F037F910B9012005490870BD
:1013D00005A000F029FD202000F032F810BD00002B
:1013E0000008014028000020686F6D650D0A0000AC
:1013F0000EB50121084600F0D1F90521002000F0CA
:101400006FF82020019000208DF808000C208DF846
:10141000090001208DF80A0001A800F017F8172034
:101420008DF8000002208DF8010003208DF80200E5
:1014300001208DF80300684600F04EF90EBD000053
:10144000014908607047000014040140002123494D
:101450008279002A3AD00A46126803689A430B46FA
:101460001A600A1D126803689A430B1D1A600279FC
:1014700011440A6803681A430A60184A083212685D
:1014800003689A43154B08331A601A1D12680368E3
:101490009A43124B0C331A604279102A0ED11A1F4C
:1014A000126803681A430D4B08331A601A1D12683C
:1014B00003681A43094B0C331A600DE0074942795F
:1014C00011440A6803681A430A6005E0027911446E
:1014D0000A6803689A430A607047000000040140EC
:1014E00030B500228B071C0F0F2303FA04F20B4BBD
:1014F0008C1053F824309343084C8D1044F8253059
:1015000023468C1053F824308C07240F00FA04F47F
:101510002343024C8D1044F8253030BD08000140B3
:101520002DE9F0410246002500260020002300247A
:10153000002791F803C00CF00F0591F803C00CF0E0
:10154000100CBCF1000F03D091F802C04CEA050565
:1015500091F800C0BCF1000F31D0146800202BE0DE
:101560004FF0010C0CFA00F3B1F800C00CEA0306CE
:101570009E4220D183004FF00F0C0CFA03F7BC43BE
:1015800005FA03FC4CEA040491F803C0BCF1280FEF
:1015900006D14FF0010C0CFA00FCC2F814C00AE0AE
:1015A00091F803C0BCF1480F05D14FF0010C0CFAC3
:1015B00000FCC2F810C0401C0828D1D31460B1F858
:1015C00000C0BCF1FF0F34DD546800202EE000F1B4
:1015D000080C4FF0010808FA0CF3B1F800C00CEA4F
:1015E00003069E4221D183004FF00F0C0CFA03F743
:1015F000BC4305FA03FC4CEA040491F803C0BCF1B7
:10160000280F05D100F1080C08FA0CF8C2F8148074
:1016100091F803C0BCF1480F07D100F1080C4FF05E
:10162000010808FA0CF8C2F81080401C0828CED334
:101630005460BDE8F0810246002093680B400BB176
:10164000012000E000207047416170470161704750
:1016500008B50121082000F0A1F84FF40040ADF8D2
:10166000000010208DF8030003208DF80200694669
:101670000448FFF755FF4FF400410248FFF7E4FF2D
:1016800008BD0000000C014000BFFEE710B50F4888
:10169000FFF78CFE38B90E480078012803D10220EC
:1016A0000B49087010BD0948FFF780FE58B908487B
:1016B0000078022803D006480078032803D10320CD
:1016C00003490870EEE70120ECE700006C000240DF
:1016D0001C0000207047000070B5002100230F227D
:1016E000C47804B3154C246804F4E064C4F5E064E1
:1016F000210AC1F10403CA40447804FA03F1847852
:101700001440214309010E4C0678A155047804F0D9
:101710001F050124AC4005786D11AD0005F1E025F1
:10172000C5F8004109E0047804F01F050124AC402D
:10173000044D0678761145F8264070BD0CED00E0AA
:1017400000E400E080E100E002490143024A116048
:10175000704700000000FA050CED00E029B1064AD0
:1017600052690243044B5A6104E0034A52698243BE
:10177000014B5A61704700000010024029B1064A2F
:10178000D2690243044BDA6104E0034AD26982431E
:10179000014BDA61704700000010024029B1064A8F
:1017A00092690243044B9A6104E0034A92698243BE
:1017B000014B9A61704700000010024030B50021D3
:1017C0000022002400232D4D6D6805F00C0121B18D
:1017D000042905D0082923D105E0294D056022E020
:1017E000274D05601FE0254D6D6805F47012234DEF
:1017F0006D6805F48034022505EB92421CB9214D39
:10180000554305600BE01D4D6D6805F400351DB1B5
:101810001C4D5543056002E0194D5543056002E03B
:10182000174D056000BF00BF144D6D6805F0F00155
:101830000909154D6B5C0568DD4045600F4D6D680D
:1018400005F4E061090A104D6B5C4568DD40856078
:101850000A4D6D6805F46051C90A0B4D6B5C456813
:10186000DD40C560054D6D6805F44041890B074DAD
:101870006B5CC568B5FBF3F5056130BD0010024037
:1018800000127A0000093D003400002044000020CE
:10189000704710B500F002F810BD00000CB5002034
:1018A000019000903348006840F48030314908606E
:1018B00000BF3048006800F4003000900198401CE0
:1018C0000190009818B90198B0F5A06FF1D129489E
:1018D000006800F4003010B10120009001E0002009
:1018E00000900098012843D12348006840F0100080
:1018F000214908600846006820F003000860084697
:10190000006840F0020008601A48406819494860C1
:101910000846406848600846406840F48060486077
:101920000846406820F47C1048600846406840F44F
:10193000E81048600846006840F08070086000BF0A
:101940000C48006800F000700028F9D00948406891
:1019500020F00300074948600846406840F0020054
:10196000486000BF0348406800F00C000828F9D127
:101970000CBD00000010024000200240042808D1E5
:101980004FF0E021096941F004014FF0E0221161BC
:1019900007E04FF0E021096921F004014FF0E02257
:1019A0001161704710B51348006840F001001149FB
:1019B000086008464068104908400E4948600846DB
:1019C00000680E4908400B4908600846006820F48A
:1019D000802008600846406820F4FE0048604FF40C
:1019E0001F008860FFF755FF4FF000600449086052
:1019F00010BD0000001002400000FFF8FFFFF6FEDF
:101A000008ED00E030B585B005460C460121022006
:101A1000FFF7B4FE01210420FFF7C0FE4020ADF81F
:101A2000100018208DF8130003208DF8120004A96F
:101A30001648FFF775FD40211448FFF705FE1448CE
:101A40008580048000201249C8804880114800F039
:101A500085F86020ADF800000120ADF80200ADF877
:101A600006000020ADF8080069460A4800F02AF890
:101A700081200849088001224915064800F018F81D
:101A80000121044800F008F805B030BD000801400D
:101A9000923C00200004004021B1028842F0010283
:101AA000028004E002884FF6FE731A4002807047FD
:101AB0001AB183890B43838102E083898B4383813D
:101AC0007047000070B5002400220023058C4FF6FB
:101AD000FE7635400584028C8388048B4FF68F7523
:101AE0002C40B51E2C400D882C43751E2A400D89B4
:101AF0002A434D882A43144DA8420BD0134DA842C7
:101B000008D0134DA84205D0124DA84202D0124D64
:101B1000A84213D14FF6F7752A404D892A434FF654
:101B2000FB752A408D882A434FF6FF652B404FF600
:101B3000FF552B408D892B43CD892B438380048314
:101B4000CD888586028470BD002C014000340140A0
:101B5000004001400044014000480140002202884A
:101B60001D4B98420ED01D4B98420BD0B0F1804FC8
:101B700008D01B4B984205D01A4B984202D01A4B02
:101B8000984204D14FF68F731A404B881A43174B73
:101B9000984207D0164B984204D04FF6FF431A40A4
:101BA000CB881A4302808B8883850B8803850A4B78
:101BB00098420BD0094B984208D00E4B984205D062
:101BC0000D4B984202D00D4B984201D10B7A0386FF
:101BD0000123838270470000002C01400034014043
:101BE0000004004000080040000C004000100040CD
:101BF0000014004000400140004401400048014002
:101C000010B540F225511D4800F04AF810B31B48AA
:101C100000F002F9C4B21A48008800F40040C8B9C4
:101C20001748008800F4804060B10A2C03D00020DF
:101C30001349088020E01248008840F40040104911
:101C4000088019E00D2C06D10D48008840F4804032
:101C50000B49088010E00A480088C0F30D000949CC
:101C60000C5407480088401C054908800846008835
:101C7000C72801DD0020088010BD000000380140A9
:101C800030000020CA3B002021B1828942F400527A
:101C9000828104E082894DF6FF731A408281704789
:101CA00070B50246002400230025002040F66A1685
:101CB000B14200D100BFC1F3421501F01F0301265C
:101CC00006FA03F3012D02D19689334006E0022D76
:101CD00002D1168A334001E0968A33400C12012665
:101CE00006FA04F41688344013B10CB1012000E068
:101CF000002070BDF0B5034600240026002500201A
:101D000040F66A17B94200D100BF1846C1F3421429
:101D100001F01F06012707FA06F5012C01D10C304E
:101D200004E0022C01D1103000E014301AB1076831
:101D30002F43076002E00768AF430760F0BD000073
:101D40002DE9F04786B005460E460024A24600BFA6
:101D5000A1460027B08900B100BF2F462C8A4CF65F
:101D6000FF700440F08804432C82AC894EF6F310D7
:101D70000440B08831890843718908430443AC8129
:101D8000AC8A4FF6FF400440B0890443AC8201A8FE
:101D9000FFF714FD1F48874202D1DDF810A001E0D3
:101DA000DDF80CA0A88900F4004040B10AEBCA009D
:101DB00000EB0A1031684900B0FBF1F807E00AEBCC
:101DC000CA0000EB0A1031688900B0FBF1F864200A
:101DD000B8FBF0F004012009642101FB1089A889F7
:101DE00000F4004040B1322000EBC900B0FBF1F03C
:101DF00000F00700044308E0322000EB09106421E2
:101E0000B0FBF1F000F00F0004432C8106B0BDE8F8
:101E1000F08700000038014001468888C0F30800C0
:101E2000704700BFFEE700000FB4054B10B503A9D3
:101E3000044A029800F0E6F810BC5DF814FB0000BC
:101E4000352900082C0000200022134610461146B8
:101E5000FEF7A2BA02E008C8121F08C1002AFAD190
:101E600070477047002001E001C1121F002AFBD11A
:101E700070470000014908607047000064000020BE
:101E80002DE9FF5F82B00021DDE90430020DDDF8AD
:101E900040B0034318D044F61050A2F2FF32424340
:101EA0001514119801281FD0A5EB0B00401C5FEA08
:101EB000000A4FF000064E4FDFF83891B04650460A
:101EC00015D5CAF1000413E0119801244AA3012892
:101ED00001D16FEA0B010298119AC0E90031C0E903
:101EE000024206B0BDE8F09FCBF10000DFE70446F8
:101EF0000021404A491842EB0450CDE9001012E09D
:101F0000E00707D032463B4640464946FEF7D2F945
:101F10008046894632463B4610461946FEF7CAF9C6
:101F200006460F466410002CEAD1DDE90401DDE924
:101F30000023BAF1000F06DAFEF7BCF942464B4621
:101F4000FEF7B8F905E0FEF727FA42464B46FEF7E2
:101F500023FA04460E460022284BFEF773FD03D8F1
:101F60004FF0FF30014607E00022254B2046314666
:101F7000FEF715FCFEF74EFD102409E0002C0ADBED
:101F80000A220023FEF736FB039B30321A55641EEB
:101F900050EA0102F2D1641C039AC4F11103144403
:101FA000119A012A03D0012208430DD10AE0084307
:101FB00004D000204FF0110B119072E7A3EB0B053A
:101FC0006D1E0DE05B4504DD4FF0000205F10105DB
:101FD00004E003DA4FF00002A5F10105002AECD07D
:101FE00002981199C0E90231C0E9004579E7000083
:101FF000000014400000F03F300000000000F043FB
:102000000000E03F2DE9FF4F95B09B46894606460C
:1020100000250FE2252877D100242746F84A012120
:10202000059400E0044316F8013F203B01FA03F059
:102030001042F7D130782A2811D06FF02F03307872
:10204000A0F13002092A16D8059A44F0020402EBE6
:10205000820203EB42021044761C0590EFE759F828
:10206000042B0592002A03DA504244F400540590F0
:1020700044F00204761C30782E2816D116F8010F91
:1020800044F004042A280DD06FF02F023078A0F11C
:102090003003092B09D807EB870302EB4303C7186A
:1020A000761CF3E759F8047B761C30786C280FD047
:1020B00006DC4C2817D068280DD06A2814D104E01B
:1020C000742810D07A280FD10DE044F400140AE0EF
:1020D00044F4801401E044F440147278824202D146
:1020E00004F58014761C761C307866280BD013DC3F
:1020F000582877D009DC002875D04528F6D0462826
:10210000F4D047281AD19DE118E0632835D064281F
:1021100079D0652812D195E1702873D008DC672842
:10212000F1D069286FD06E280DD06F2806D1B5E0A8
:1021300073282CD0752875D0782874D05A461799F2
:1021400090476D1C75E1C4F30250022809D00328A2
:102150000DD0D9F8001004280DD00D6009F1040944
:1021600067E1D9F80010EA17C1E90052F6E7D9F89B
:1021700000100D80F2E70D70F0E719F8041B8DF8E0
:10218000001000208DF80100EA46012003E059F814
:1021900004AB4FF0FF3061074FF0000102D40DE0B7
:1021A00008F101018846B9420FDA8045F8DB1AF8D8
:1021B00008100029F4D108E008F1010188468142A5
:1021C000FADB1AF808100029F6D105985B46A0EB57
:1021D000080721463846179A00F094FA284400EB85
:1021E000080507E04DE029E10DE01AF8010B5A4619
:1021F00017999047B8F10108F7D25B462146384657
:10220000179A13E142E00A220092C4F302524FF0FF
:10221000000A022A08D059F804CB032A4FEAEC71CD
:102220000AD00DE029E02AE009F1070121F00702B8
:10223000F2E802C1914609E00FFA8CFC4FEAEC711A
:10224000042A03D14FFA8CFC4FEAEC71002907DA1B
:102250000A460021DCF1000C61EB02012D2202E0B4
:10226000220504D52B228DF80420012203E0E20789
:1022700001D02022F7E7904659E00A2102E010221F
:102280000DE010214FF0000A00910BE010224FF0FA
:10229000000A44F004040827009203E008224FF0EB
:1022A000000A0092C4F30252022A05D059F804CB66
:1022B0000021032A08D009E009F1070121F00702F3
:1022C000F2E802C1914605E01FFA8CFC042A01D114
:1022D0000CF0FF0C4FF00008220728D5702806D01C
:1022E000009B83F0100353EA0A0305D00EE040225E
:1022F0008DF80420012208E05CEA010206D03022B9
:102300008DF804208DF8050002229046009B83F092
:10231000080353EA0A030AD15CEA010201D1620709
:1023200005D530228DF804204FF001087F1E582873
:1023300004D034A003900EA802900DE036A0F9E777
:1023400053466046009AFEF755F984460398825C2E
:102350000298401E029002705CEA0100F0D10298DF
:1023600006A9081A00F1200A600702D524F4803477
:1023700000E00127574502DDA7EB0A0000E000203E
:1023800000EB0A01009005984144401A0590E003D3
:1023900006D45B462146179A059800F0B3F9054428
:1023A000002706E001A85A46C05D179990476D1CAA
:1023B0007F1C4745F6DBE0030CD55B462146179AA8
:1023C000059800F09FF9054404E030205A4617991B
:1023D00090476D1C0099481E00900029F5DC08E02C
:1023E000029802995A460078491C02911799904721
:1023F0006D1CBAF10001AAF1010AF1DC65E10000EF
:1024000009280100303132333435363738396162CA
:10241000636465660000000030313233343536378E
:1024200038394142434445460000000000F058F965
:102430000544761C307800287FF4ECAD19B02846AE
:10244000BDE8F08F620700D4062709F1070222F0E9
:10245000070CFCE80223E14603F000485FEA080CA1
:1024600002D00FF2702C0DE05FEA045C02D50FF28F
:10247000682C07E05FEAC47C02D00FF2602C01E018
:10248000AFF2700C4FF0FF3823F00043CDF850C08E
:1024900065280CD006DC452809D046281DD04728E1
:1024A0003DD13DE0662818D067287ED138E0002174
:1024B000112F01DB112000E0781CCDE9000106A9F5
:1024C0000EA8FFF7DDFCDDE90F010E9A0391002154
:1024D000009207F1010A04914DE04FF0004000978F
:1024E000CDE9011006A90EA8FFF7CAFCDDE90F022D
:1024F00003920E9B11990022DDF80CA00093049228
:1025000011B9791C00EB010AB7EB0A0004D4C0F141
:10251000FF3007F1010A0490AAEB0700019044E0A4
:10252000012F00DA01270021112F01DD112000E029
:102530003846CDE9000106A90EA8FFF7A1FCDDE9A8
:102540000F010E9A0391002104910092BA462107CF
:102550000CD40399514500DA8A46BAF1010F05DD22
:10256000009AAAF10101515C302908D0B84202DA80
:1025700010F1040F06DA0121CDE9011015E0AAF1EE
:102580000101E9E7002805DC049901440491AAEB64
:10259000000102E0411C514500DD8A460499401AC1
:1025A000401C01904FF000400290200704D4019895
:1025B000504501DBCDF8048000208DF84F000298D3
:1025C0000DF14F07B0F1004F25D02B200E9002984F
:1025D0004FF0020800280CDA404202902D200E90A5
:1025E00007E00A210298FDF7EFFF3031029007F86B
:1025F000011DB8F10001A8F10108F2DC02980028E1
:10260000EFD1791E0E980870307800F0200040F06D
:10261000450007F8020D12A8C01B00F10708149826
:10262000007800B1012000EB0A01019801EBE07194
:1026300005984144401A401E0590E00306D45B46CD
:102640002146179A059800F05DF805441498007823
:1026500018B15A46179990476D1CE00324D55B4684
:102660002146179A059800F04DF805441CE004989F
:10267000002807DBDDE90301884203DD0098405CA8
:10268000179901E0179930205A469047049805F1B0
:102690000105401C04900198401E019004D12E2099
:1026A0005A46179990476D1CBAF10001AAF1010A28
:1026B000DDDC05E017F8010B5A46179990476D1CB1
:1026C000B8F10001A8F10108F4DC5B462146179A35
:1026D0000598ABE62D0000002B0000002000000054
:1026E0002DE9F041044600251E461746880404D40F
:1026F00005E039462020B0476D1C641EF9D52846F8
:10270000BDE8F0812DE9F041044600251E469046C3
:10271000C80301D5302700E02027880404D505E050
:1027200041463846B0476D1C641EF9D52846BDE8C1
:10273000F08100002DE9F041C1F30A52A2F2FF3608
:102740002F4A304B0D460446142E2FDA002E12DA93
:10275000FEF725F800221346FEF774F94CD2002D3F
:10276000BCBF4FF00045002446DB55EA040018BF0B
:10277000254D19D140E0DFF894C02CFA06F705EAA0
:10278000070C5CEA040C08BFBDE8F081FEF707F80F
:1027900000221346FEF756F92ED2002D03DD4FF42A
:1027A0008010F0400544BD43002425E0332EC8BF0F
:1027B000BDE8F081A6F1140C4FF0FF3727FA0CF7B3
:1027C0003C4208BFBDE8F081FEF78DF800221346B9
:1027D000FEF738F910D2002D0DDD142E08BF6D1C48
:1027E00009D0C6F13400012101FA00F02044A042D2
:1027F00038BF6D1C0446BC4329462046BDE8F08125
:102800009C7500883CE4377E0000F03FFFFF0F001E
:1028100010B56FF00400FFF7B1F80A4800680A49E4
:10282000B0FBF1F0094908700846007800EB400160
:10283000C1EBC0104FF6FF7101EAC00004490880E7
:1028400010BD00004800002000127A002400002083
:10285000260000200146114A12884A434FF0E02327
:102860005A6100229A611A46126942F001021A6105
:1028700000BF4FF0E022106900F001021AB100F42D
:102880008032002AF5D04FF0E022126922F00102D6
:102890004FF0E0231A6100229A6170472600002061
:1028A00070B514461D460E46002814BF01210021B4
:1028B000314321F00041C1F17F6101F1E041C90FD5
:1028C00016D1002C14BF01210021294321F0004121
:1028D000C1F17F6101F1E041C90F09D11449B1EBA8
:1028E000460F08BF00281CD0690008BF002C18D074
:1028F0003146FEF74CF8024640F2FF7030EA1150C4
:102900000DD0F017B0EBE17F09D0084665F31E004B
:1029100084460B4620466146FDF7E5FF0246104619
:1029200070BD0120FFF7A6FABDE87040FFF78CBA32
:102930000000E0FF00BF054A128802F04002002AB2
:10294000F9D0C2B2014B1B1D1A80704700380140FC
:1029500010B5002821D0114B0022001F196803E098
:10296000814203D80A4649680029F9D152B1136857
:10297000841A9C4204D1006818441060104602E09A
:10298000506000E0186039B102680B1A934203D11D
:102990000B681A4402604968416010BD5C00002069
:1029A0000EB50020D449086008718860FFF730FF39
:1029B0004FF4A060FEF7C8FE4FF4E13000F0F2FCE7
:1029C000FEF746FE0020CD49086040F2CF200021EE
:1029D00041F60113CA4ACDE90010CA49CA4800F0BD
:1029E00075FA00200423082207210090FEF796F9CB
:1029F000FEF7FEFC7EE1C548FEF764FBC4490860B3
:102A00000846006800287CD0C048C078002878D1EB
:102A1000C04800780028F6D0BF480078C82870DA8F
:102A2000BA490978B94A5278C2EBC21201EB4200A6
:102A3000FDF721FDB949096801EB4101AE4A42F8B1
:102A40002100B64A1268521E02EB4202AA4B53F80A
:102A50002210B24A126802EB420253F82200FDF73C
:102A6000B3FB04460021FDF7A5FD09D20120AB49C7
:102A7000096801EB4101A04A02EB8101087108E0FD
:102A80000020A649096801EB41019B4A02EB810144
:102A900008719E4909799D4A5279C2EBC21201EB35
:102AA0004200FDF7E8FC9D49096801EB4101924AAB
:102AB00002EB810188609AA0FFF7B6F9974909688F
:102AC00001EB41018C4A52F82100FDF739FD044623
:102AD00022460B4696A0FFF7A7F99048006800EB46
:102AE0004000854A02EB8000017994A0FFF79CF931
:102AF0008A49096801EB41017F4A02EB810188683C
:102B000000E022E0FDF71CFD044622460B468EA0A5
:102B1000FFF78AF981480068C82803D101207F495E
:102B2000086004E07D480068401C7C4908607948E2
:102B30000078401E7749087077480078401C764935
:102B4000087084A0FEF7B2FACDE071480068002852
:102B5000FAD06E48C0780028F6D06C48C078452876
:102B60007ED006DC41287CD043287BD044287AD113
:102B7000A8E0482878D0522802D05328F7D195E011
:102B800075A0FFF751F963480078C8286DDA6248EC
:102B9000007800287CD0FEF779FD012878D0724AB1
:102BA0001268521E02EB4202534B53F822106E4A37
:102BB000126802EB420253F82200FDF705FB0446BF
:102BC0006A49FDF739FB6A49086008460068FDF765
:102BD000B7FC8046674A684BFDF7DEFB06460022DD
:102BE000664BFDF767FB0446FDF7BDFC8246444893
:102BF00063490091CDE901105B48006800EB40009B
:102C00003D4A02EB800001795E4B5F4A504600F07E
:102C1000BDF95EA0FFF708F953480068401E002880
:102C200018DD002150480068401E00EB4000324A89
:102C300042F820104C480068401E00EB400002EBB8
:102C40008000017148480068401E00EB400002EB24
:102C50008000816044480068C8280AD1012005E04E
:102C600036E019E03AE03DE026E011E03E49086038
:102C700004E03D480068401C3B4908602548007856
:102C8000401C2449087024480078401E22490870DE
:102C900041A0FEF70BFA25E040A0FFF7C5F800F0D1
:102CA00023FB10B140A0FEF701FA1BE000F03CFB53
:102CB0003EA0FEF7FBF915E000F0DAF83CA0FEF7C5
:102CC000F5F90FE000F0C4F83AA0FEF7EFF909E0DB
:102CD00000F0C6F838A0FEF7E9F903E037A0FEF7E8
:102CE000E5F900BF00BFFEF7D1FC022802D134A0F5
:102CF000FEF7DCF97FE6000068000020BC8121427D
:102D0000C80900202C0400406C0002401200002082
:102D1000000000201000002011000020040000200E
:102D20002D2D2D2D2D2D2D2D2D2D2D0D0A0000009D
:102D30007261643A25660D0A000000006469723A07
:102D400025640D0A0000000073706565643A25660D
:102D50000D0A0000473000007265636965766520E2
:102D600072200D0A000000000800002000007A44D4
:102D70000C0000201F85EB51B81E094000C0C24066
:102D80000000A040C3F54840C3F5C840636F6E66BD
:102D90006967200D0A000000523000007265636907
:102DA00065766520610D0A00414330005330000014
:102DB000483000004430000045300000524300001D
:102DC00041523000F0B50B30154D20F007010024C2
:102DD000144A0FE003688B420BD38B4205D95E1A6D
:102DE00043184768C3E9006700E04368136002C006
:102DF00004E0021D10680028ECD12046002802D112
:102E0000286808B10020F0BD064A07481060074A4C
:102E1000121A22F00702C0E9002401202860D7E737
:102E2000600000205C000020CC3C0020C83E002058
:102E300010B5044624B108210448FEF707FC03E05E
:102E400008210248FEF700FC10BD0000000C014004
:102E500010B510210148FEF7F9FB10BD000C014030
:102E600010B510210148FEF7EFFB10BD000C01402A
:102E70000EB518E011484FF07E510091104B1A46E4
:102E8000CDE9011000214FF07E5000F07FF800F0F6
:102E90002BFA04E0FEF7FAFB012800D000E0F9E786
:102EA00000BF00F041FA074800780028E2D0002077
:102EB0000549086000F038FA0EBD0000C80900207E
:102EC00033337B4128000020200000202DE9F0470B
:102ED00004460D4616461F46DDE9088900F014F841
:102EE0003B46324629462046FEF768F949464046A9
:102EF000FEF788FDFFF7B4FF022002490870BDE825
:102F0000F08700001C00002008B501210C20FEF70E
:102F100045FC2020ADF8000048208DF803006946EC
:102F20001848FEF7FDFA4020ADF8000018208DF893
:102F3000030003208DF8020069461248FEF7F0FAFC
:102F400040211048FEF780FB0820ADF8000010205B
:102F50008DF8030003208DF8020069460A48FEF749
:102F6000DFFA08210848FEF76FFB1020ADF80000DB
:102F700069460548FEF7D4FA10210348FEF766FBC0
:102F800008BD000000080140000C01402DE9FF4F82
:102F90008FB091461E9DCD481C99FDF71BF90690F8
:102FA00048461299FDF710F9049048461299FDF72A
:102FB000B9F803900499FDF70DF905900699FDF70E
:102FC0003BF90790FDF7BCFACDE90801FFF7B2FB2A
:102FD000CDE90A01FDF79BFA1FFA80F8DDE91C0133
:102FE000FDF7A0F8014605901D98FDF725F906901C
:102FF0000F99FDF7EFF80790FDF7A2FACDE9080168
:10300000FFF798FBCDE90A01FDF781FA80B20E9037
:103010004946AF48FDF710F90B90FDF764FA80B20E
:103020000D9000270220FFF7CDFE82460220FFF719
:10303000C9FE0646BB46002400200C900E98804531
:1030400026DC4746DDE91C01FDF7F6F80A90384614
:10305000FDF71AFA09900A99FDF7BCF80B90FDF7F5
:1030600042FAAAF80000BAF80010C819FDF703FAEE
:103070000A900F99FDF7ABF80B90FDF734FA1FFAA1
:1030800080FB07EB0B0030805046FFF761FC03E04C
:103090000E9F5046FFF75CFCFEE0E4B98D481C999A
:1030A000FDF7CAF80390FDF74BFACDE9040100F0F3
:1030B00053F90022884BCDE90601FDF7FBF8874A5A
:1030C000874BCDE90801FDF7F5F8CDE90A01FDF7D9
:1030D0001EFA25F81400002C54DDBC4252DAA1007F
:1030E000481EFDF7C8F905EB4401049031F8021CB5
:1030F0004800FDF7C0F902900C99FDF713F8039012
:103100000499FDF799F805EB4401069031F8020C9B
:10311000FDF7BAF905900699FDF756F80790FDF707
:103120000FFACDE90801FFF705FBCDE90A01FDF72C
:10313000EEF93080308818B1308825F8140002E0AC
:10314000022025F81400A100481EFDF7A2F9CDE9E0
:10315000080105EB440131F8021C4800FDF78BF92A
:1031600004900C99FCF7DEFF0590FDF7E9F9CDE935
:103170000601DDE90823FFF793FBCDE90A01FDF71E
:10318000F2F90C90BC4206DB07EB0B00A04202DD1B
:103190000D9825F8140007EB0B00A0426CDC2046CC
:1031A000FDF772F90B900F99FDF7FAF964D2A100BF
:1031B000481EFDF760F904900F98FDF77BF905EBC9
:1031C0004000A0EB440030F8020C40000190FDF7F5
:1031D00052F902900C99FCF7A5FF03900499FDF7B2
:1031E0002BF806900F98FDF765F905EB4000A0EB72
:1031F000440030F8020C0490FDF746F9059006995A
:10320000FCF7E2FF0790FDF79BF9CDE90801FFF716
:1032100091FACDE90A01FDF77AF93080308818B1CA
:10322000308825F8140002E0022025F81400A100DF
:10323000481EFDF72EF9CDE908010F98FDF73AF980
:1032400005EB4000A0EB440030F8020C4000039076
:10325000FDF711F904900C99FCF764FF0590FDF758
:103260006FF9CDE90601DDE90823FFF719FBCDE988
:103270000A01FDF778F90C902046FDF705F90B904F
:103280000F99FDF78DF905D1002025F8140030467F
:10329000FFF75EFB601C84B22046FDF7F5F80B904B
:1032A0000F99FDF787F9BFF4F8AE1098FFF7C0FD4E
:1032B0000F98FDF718F9401C80B201460B900948A1
:1032C000FEF772F813B0BDE8F08F0000499D803C16
:1032D00000404444499D003C006AF8406F1283C09E
:1032E000CAA1E53F6C00024010B50C4800780128E7
:1032F00012D002200A49088001210A48FDF752FF36
:10330000012107482C38FEF7C7FB01200449183972
:1033100008800249087010BD0020FCE71C00002056
:103320002C0400406C00024010B500210748FEF755
:10333000B3FB00210648FDF735FF002004496C3936
:10334000086702200349087010BD00000004004017
:103350006C0002401C0000202DE9F04106460F469B
:10336000FDF7C4FA041E0D4618BF0120284320F0C3
:103370000040C0F17F6000F1E040C00F0ED0301C73
:1033800018BF0120384320F00040C0F17F6000F1F9
:10339000E040C00F04BF0120FEF76CFD2046294627
:1033A000BDE8F08110B586B00446012144F2040066
:1033B000FEF7F4F94FF40070ADF8140003208DF817
:1033C000160018208DF8170005A91C48FEF7A8F86C
:1033D0004FF48060ADF8140004208DF8170005A9A3
:1033E0001648FEF79DF825208DF8000003208DF883
:1033F00001008DF8020001208DF803006846FEF7F9
:103400006BF901940020ADF80800ADF80A00ADF8A2
:103410000C00ADF810000C20ADF80E0001A9084812
:10342000FEF78EFC012240F225510548FEF762FCB2
:1034300001210348FEF728FC06B010BD000801403A
:1034400000380140643400080000002068000000DB
:10345000541E0008CC3400086800002060420000C0
:10346000641E0008000000000100000001000000D0
:1034700000000000C8000000000000000000000084
:10348000000000000000000000000000000000003C
:103490000000000000000000000000000102030422
:1034A00001020304060708090204060800A24A04F0
:1034B00000000000000000000102030406070809E4
:0C34C00000000000000000000000000000
:04000005080000ED02
:00000001FF
