:020000040800F2
:10000000D842002001010008A51700080B010008D4
:1000100019170008D90A0008F31E000800000000A4
:10002000000000000000000000000000611900084E
:10003000B1130008000000001701000819010008B2
:100040001B0100081B0100081B0100081B01000820
:100050001B0100081B0100081B0100081B01000810
:100060001B0100081B0100081B0100081B01000800
:100070001B0100081B0100081B0100081B010008F0
:100080001B0100081B0100081B0100081B010008E0
:100090001B0100081B0100081B010008B513000824
:1000A0001B0100081B0100081B0100081B010008C0
:1000B0001B0100081B0100081B0100081B010008B0
:1000C0001B0100081B0100081B0100081B010008A0
:1000D0001B010008D11C00081B0100081B010008BF
:1000E0001B0100081B0100081B010008DFF80CD0F1
:1000F00000F0E0FC0048004795290008D8420020A5
:100100000648804706480047FEE7FEE7FEE7FEE7B1
:10011000FEE7FEE7FEE7FEE7FEE7FEE7751A0008EA
:10012000ED000008F0B480EA0102D40F4200B2EB07
:10013000410F02D20246084611464A0042D0C30D82
:10014000DDB2C1F3C752AD1A202D35DAC1F3160165
:1001500041F4000204B15242C5F1200602FA06F150
:100160002A411044B3EBD05F23D0C4B1012DA0EBE2
:10017000C35009DCF0BC4FF0004202EAC352DBB2CC
:1001800000F5000000F047BB400000F1807000EB7C
:10019000C350A0F1807040EAD170490009E04908DD
:1001A00041EAC071A0EBC35000F50000400800EB2D
:1001B000C350F0BC00F026BB6142012202EB4101BA
:1001C000001BF6E7F0BC704781F00041AAE780F021
:1001D0000040A7E780EA010210B502F000434000AA
:1001E00022D04A001FD0010E01EB1261C0F356006D
:1001F000C2F3560240F4000042F40002A0FB0220C9
:1002000000047F39140400D0401C50EA124001D48D
:100210004000491EC2B20C0604EBD010401C40083E
:10022000802A02D003E0002010BD20F00100002948
:1002300000DA0020184310BD30B480EA010202F059
:10024000004530F0004221F0004013D090B1C30DC2
:10025000D40DC2F31601C0F31600E41A41F40001F4
:1002600040F400027D34914201D3641C00E0490057
:10027000002C02DA30BC002070474FF4000000234D
:10028000914201D3891A034340084FEA4101F7D153
:1002900051B1914202D14FF0004105E002D24FF03E
:1002A000010101E06FF0010103EBC450284430BCB0
:1002B00000F0A8BA2DE9FE4F804681EA0300C00F86
:1002C0000C46009021F0004123F00045B8EB0200FD
:1002D000A94105D24046214690461C460B4602469F
:1002E00023F00040104347D0270DC7F30A00C3F3A3
:1002F0000A510290401A019040286BDAC3F31300B0
:1003000040F4801B0098924620B10023D2EB030AF0
:1003100063EB0B0B01985946C0F14002504600F0C8
:1003200040FA06460D4650465946019A00F058FAE2
:1003300010EB08006141002487EA115284EAE77358
:100340001A4340D0009A62B3019A012A4FEA075239
:1003500015DC001B61EB02014FF0004202EA07527C
:10036000CDE90042001C41F5801132462B4600F0D9
:100370008FFA03B0BDE8F08F40462146F9E7001B35
:1003800061EB0201001C41F5801300185B4120184D
:10039000A2F5001747EB030140EAD570B6196D418D
:1003A00011E06D084FEA360645EAC0754FEA07527C
:1003B000001B61EB0201001C41F5801149084FEA66
:1003C00030000019514132462B4603B0BDE8F04FD2
:1003D00000F04FBA0098012240000023D0EB020247
:1003E00063EBE073009821464FEAE074B8EB00003D
:1003F00061EB0401E9E783F000435BE781F0004132
:1004000058E72DE9FE4F81EA030404F0004421F08F
:10041000004100944FF0000B23F0004350EA010428
:100420005ED052EA03045BD0C3F30A54C1F30A5509
:100430002C44A4F2F3340194A0FB0254C1F3130141
:1004400041F48011C3F3130343F4801301FB02440E
:1004500000FB034E840A970A44EA815447EA835713
:10046000A4FB076802958D0A05FB07854FEA932CCC
:1004700004FB0C542705029D4FEA065847EA16373D
:10048000B5EB08056EEB070C870E920E47EA811755
:1004900042EA8312A7FB0201B6EB0B0164EB0004F6
:1004A0002B0D43EA0C335E1844EB1C50DA465146E0
:1004B000E7FB0201C5F313044FEA0B3343EA14537D
:1004C0004FEA0432019C43EA0603A4F10C040294AF
:1004D000009CCDE900B400F0DBF903B0BDE8F08F7B
:1004E00000200146F9E72DE9F04D81EA030404F00C
:1004F000004B21F0004514464FF0000A23F0004164
:1005000050EA050220D054EA01021DD0C5F30A5773
:100510000246C5F31303C1F31300C1F30A5640F4B6
:10052000801543F48013A7EB0608101BD64608F28B
:10053000FD3873EB050002D308F1010801E09218C1
:100540005B41B8F1000F03DA00200146BDE8F08DF1
:1005500000204FF48011064684460EE0171B73EB13
:10056000050705D3121B63EB050306434CEA010C98
:1005700049084FEA300092185B4150EA0107EDD17B
:1005800052EA030012D082EA040083EA050108431C
:1005900005D0101BAB4106D20122002306E0002249
:1005A0004FF0004302E06FF0010253101AEB060017
:1005B0004CEB085110EB0A0041EB0B01BDE8F04D8C
:1005C00000F057B9C10F80EAE0700844CA079623CB
:1005D000002100F020B996230022114600F01BB93B
:1005E0000EB5C10F80EAE0700844CA07002140F24E
:1005F00033438DE80E000A460B4600F049F903B07C
:1006000000BD00F0004220F00040C10DC0F3160014
:1006100040F400007F2901DA00207047962903DCAE
:10062000C1F19601C84001E096398840002AF4D013
:100630004042704720F00040C10DC0F3160040F466
:1006400000007F2901DA00207047962903DCC1F100
:100650009601C8407047963988407047C1F30A52E6
:1006600010B5C1F3130140F2FF3341F480119A42F7
:1006700001DA002010BD40F233439A42A2F2334225
:1006800003DC524200F09CF810BD904010BD00F019
:10069000004230F000400AD0C10D01F56071C0F396
:1006A000160042EA0151C20840071143704700207A
:1006B0000146704701F0004330B421F0004150EA98
:1006C000010206D00A0DA2F56072C1F31301002ADF
:1006D00002DC30BC00207047440F44EAC104C10072
:1006E000E01830BC00EBC25000F08CB8002801DBF1
:1006F000C0F10040002901DBC1F100418142704797
:10070000002801DBC0F10040002901DBC1F10041FC
:100710008842704730B50B46014600202022012454
:1007200009E021FA02F59D4205D303FA02F5491BBF
:1007300004FA02F52844151EA2F10102F1DC30BDD5
:100740002DE9F05F0546002092469B468846064606
:10075000814640241BE0284641464746224600F099
:100760002FF853465A46C01A914110D311461846E5
:10077000224600F016F82D1A67EB01084F46224674
:100780000120002100F00DF817EB00094E41201E5A
:10079000A4F10104DFDC484631462A464346BDE861
:1007A000F09F202A04DB203A00FA02F10020704773
:1007B0009140C2F1200320FA03F31943904070479F
:1007C000202A04DB203A21FA02F00021704721FAA6
:1007D00002F3D040C2F1200291400843194670470D
:1007E000202A06DBCB17203A41FA02F043EAE073F5
:1007F00006E041FA02F3D040C2F1200291400843E2
:10080000194670470029A8BF7047401C490008BF1F
:1008100020F00100704710B4B0FA80FC00FA0CF030
:1008200050EA010404BF10BC704749B1CCF1200468
:1008300021FA04F411FA0CF118BF012121430843F5
:10084000A3EB0C01CB1D4FEA00614FEA102042BF21
:10085000002010BC704700EBC35010440029A4BF17
:1008600010BC7047401C490008BF20F0010010BCBC
:10087000704710B5141E73F1000408DA401C41F1F2
:10088000000192185B411A4301D120F0010010BD14
:100890002DE9F04D92469B4611B1B1FA81F202E08A
:1008A000B0FA80F220329046FFF77BFF04460F46F5
:1008B00040EA0A0041EA0B0153465A46084313D066
:1008C000114653EA010019D0C8F140025046FFF723
:1008D00077FF05460E46504659464246FFF761FFF0
:1008E000084305D0012004E020463946BDE8F08DDC
:1008F0000020054346EAE0762C4337430A98630517
:10090000E40AA0EB08000022FD0A44EA47540A303A
:1009100002D500200146E9E7010510196941DDE92A
:10092000084500196941BDE8F04DA2E72DE9F04DF9
:1009300000231A461B1A8A4103DB00200146BDE84A
:10094000F08DC1F30A52C1F3130141F480154FF049
:10095000000BD10702D100186D41521E002704463A
:1009600040F2FF11384601EB620A3E4680460246DD
:1009700000204FF48011FFF723FFC2197141BB180B
:1009800046EB0100B4EB030C75EB000C04D3E41A46
:1009900065EB000517460E46241908F101006D416C
:1009A00080463428E3DDF91946EB0600091BA8410F
:1009B00003D24FF0FF32134601E0002213461BEB37
:1009C000070046EB0A51BDE8F04DFFF752BF2DE995
:1009D000FE4FC3F30A5701F000450024C1F30A5645
:1009E000C3F31303C1F3130143F4801312EB020AA0
:1009F000A64641F48011009543EB030CA7F1010BCF
:100A000016E0B0EB0A0061EB0C01071E71F1000764
:100A100007DA4FF00008D0EB080085F0004568EBDE
:100A20000101171A73EB0107EBD3761E0018494139
:100A30005E45F6DA50EA010209D0CDE900E5002270
:100A400013460296FFF724FF03B0BDE8F08F20465F
:100A50000099F9E7C1F30A52C1F3130140F2FF33E1
:100A600041F480119A4202DA00200146704740F2B8
:100A700033439A42A2F2334202DC5242FFF7A0BE55
:100A8000FFF78FBE30B5041E71F1000404DB4FF098
:100A90000044404264EB0101141E73F1000405DBC5
:100AA0001C464FF00043524263EB0403994208BFD7
:100AB000904230BD064C074D06E0E06840F001036F
:100AC00094E8070098471034AC42F6D3FFF712FBC6
:100AD000583500087835000800BFFEE710B5002142
:100AE000837A012202FA03F13D4A126842F00102C0
:100AF0003B4B1A603A4A1C3212688A43384B1C330B
:100B00001A60027BCAB9364A0C3212688A43344BE7
:100B10000C331A604288C38842EA0343304A4032A9
:100B2000847A42F834300288838842EA03432C4AAC
:100B30004032847A02EBC4025360027B012A19D14D
:100B4000274A0C3212680A43254B0C331A6042883C
:100B5000038842EA0343224A4032847A42F834301E
:100B6000C288838842EA03431D4A4032847A02EBFA
:100B7000C4025360C27A3AB9194A121D12688A43F4
:100B8000174B1B1D1A6006E0154A121D12680A4316
:100B9000134B1B1D1A60028932B9114A14321268B4
:100BA0008A430F4B14331A600289012A06D10C4A7A
:100BB000143212680A430A4B14331A60427B012A2A
:100BC00006D1074A1C3212680A43054B1C331A60CF
:100BD000034A126822F00102014B1A6010BD0000A6
:100BE0000066004030B5024600200023146824F05F
:100BF00002041460146844F00104146000E05B1CFB
:100C0000546804F001041CB94FF6FF74A342F6D1F6
:100C1000546804F001040CB900206CE08C79012CBC
:100C200004D1146844F08004146003E0146824F0D4
:100C300080041460CC79012C04D1146844F0400481
:100C4000146003E0146824F0400414600C7A012C52
:100C500004D1146844F02004146003E0146824F004
:100C6000200414604C7A012C04D1146844F0100460
:100C7000146003E0146824F0100414608C7A012CD2
:100C800004D1146844F00804146003E0146824F0EC
:100C900008041460CC7A012C04D1146844F00404D4
:100CA000146003E0146824F0040414608C78A40732
:100CB000CD7844EA05640D7944EA05444D7944EA67
:100CC00005540D886D1E2C43D461146824F0010472
:100CD0001460002300E05B1C546804F001041CB1A4
:100CE0004FF6FF74A342F6D1546804F001040CB12E
:100CF000002000E0012030BD0246002019B9D36871
:100D000003F0030006E0012903D1136903F0030097
:100D100000E00020704700002DE9F04188B0044653
:100D20000D4616461F46DDF838800121042000F0EC
:100D30009DFD0121480600F089FD4FF48050ADF87B
:100D40001C0003208DF81E0018208DF81F0007A935
:100D5000254800F0E3FB4FF40060ADF81C0048208C
:100D60008DF81F0007A9204800F0D8FB00208DF85F
:100D700016008DF817008DF8180001208DF8190065
:100D800000208DF81A008DF81B008DF812808DF868
:100D900013408DF814608DF81550ADF8107004A94B
:100DA0001248FFF71FFF00208DF80A008DF80B0096
:100DB00001208DF80C002020ADF800000020ADF8D7
:100DC00002002020ADF804000020ADF80600ADF8C8
:100DD000080001208DF80D006846FFF77FFE002017
:100DE00008B0BDE8F0810000000801400064004048
:100DF00010B500F5D87303EB01131B6803F004036F
:100E00001372137A53B900F5D87303EB01131B68FF
:100E100040F2FF7404EA5353136009E000F5D873FD
:100E200003EB01131B686FF0604404EAD3035360C3
:100E300000F5D87303EB01131B6803F00203537230
:100E400000F5D87303EB01135B6803F00F03937293
:100E500000F5D87303EB01135B681B0AD37400F52C
:100E6000D87303EB01139B68D37200F5D87303EBBF
:100E700001139B681C0A147300F5D87303EB01136C
:100E80009B681C0C547300F5D87303EB01139B682B
:100E90001B0E937300F5D87303EB0113DB68D37358
:100EA00000F5D87303EB0113DB681C0A147400F51A
:100EB000D87303EB0113DB681C0C547400F5D87372
:100EC00003EB0113DB681B0E937421B9C36843F075
:100ED0002003C36003E0036943F02003036110BDF6
:100EE00010B502460020936803F08063B3F1806F71
:100EF00000D110E0936803F00063B3F1006F01D1FB
:100F0000012008E0936803F08053B3F1805F01D1C2
:100F1000022000E00420042874D002F5C07303EB23
:100F200000131B6803F0010402F5C07303EB001308
:100F30001C600B7A7BB94B7A0C8843EA445302F568
:100F4000C07404EB00142468234302F5C07404EB5E
:100F50000014236010E00B7A4C6843EAC4034C7A17
:100F6000234302F5C07404EB00142468234302F504
:100F7000C07404EB001423608B7A03F00F038B72B0
:100F800002F5C07303EB00135B6823F00F0402F556
:100F9000C07303EB00135C6002F5C07303EB001336
:100FA0005B688C7A234302F5C07404EB0014636021
:100FB0008B7B1C064B7B44EA03440B7B44EA0323F4
:100FC000CC7A234302F5C07404EB0014A3608B7C3D
:100FD0001C064B7C44EA03440B7C44EA0323CC7B91
:100FE000234302F5C07404EB0014E36002F5C07300
:100FF00003EB00131B6843F0010402F5C07303EB1D
:1010000000131C6010BD000010B50246002321B182
:10101000012907D002290FD109E090681D4C00EA90
:1010200004030BE090681C4C00EA040306E090689F
:101030001A4C00EA040301E0002300BF00BF184C73
:10104000181BA34216D007DC83B16FF080601844F0
:1010500070B1022818D111E0B0F5007F10D0114C0A
:10106000204448B1B0F5003F0ED10BE002230DE063
:1010700000230BE0002309E0002307E0012305E043
:10108000012303E0012301E0002300BF00BFD8B229
:1010900010BD00000300000400030008000003105E
:1010A000000100080001FFF770B504464FF0005240
:1010B0000321204600F038F80546284670BD0000A0
:1010C00030B585B0054600211448FFF715FE10B96C
:1010D000002005B030BD6A4600211048FFF788FEA9
:1010E00000240F480068C0430E49C1F8BC0104E069
:1010F0000DF10B00005D2855641C082CF8D314205A
:1011000001F0A2FB06480068C0430649C1F8BC01D3
:10111000142001F099FB9DF80A00DAE70064004012
:10112000BC812142008021422DE9F04186B08046F9
:101130000D4616460024700D0190C6F3D1000290B2
:1011400000208DF80C008DF80D008DF80E5000BFBA
:1011500006E018F804100DF10F000155601C84B270
:10116000AC42F6DB01A90D48FFF7BAFE07460024A2
:1011700001E0601C84B239460848FFF745FF18B902
:1011800040F6FF708442F4DB40F6FF70844203DBDC
:10119000012006B0BDE8F0810020FAE700640040BD
:1011A00021B1026842F00102026004E002684FF6D9
:1011B000FE731A40026070472DE9F04107460D4664
:1011C00016461C460121084600F030FB052001F0C0
:1011D0003BFB384600F022F80E4804800E480560BC
:1011E000466010200C4988600846C46000200861F1
:1011F00080204861400088618000C861002008624A
:101200004FF40050486200208862384600F0ACF885
:10121000BDE8F0813E000020A83C002001684FF6A8
:10122000FE72114001600021016041608160C16077
:101230004B49884208D14A490839496841F00F01B1
:10124000474A083A51608AE045491431884208D13A
:1012500043490839496841F0F001414A083A516070
:101260007DE03F492831884208D13D490839496825
:1012700041F470613A4A083A516070E038493C31B3
:10128000884208D136490839496841F47041344AE6
:10129000083A516063E032495031884208D1304900
:1012A0000839496841F470212D4A083A516056E0E6
:1012B0002B496431884208D129490839496841F4E9
:1012C0007001274A083A516049E02549783188423F
:1012D00008D123490839496841F07061204A083A29
:1012E00051603CE01F49884206D1011F096841F066
:1012F0000F01021F116032E01A491431884208D1EF
:101300001849091F096841F0F001164A121F1160BF
:1013100025E014492831884208D11249091F09687B
:1013200041F470610F4A121F116018E00D493C3101
:10133000884208D10B49091F096841F47041094AE4
:10134000121F11600BE007495031884207D105494F
:10135000091F096841F47021024A121F1160704789
:10136000080002400804024010B50022026847F657
:10137000F0739A430C6A8B6823430C6923434C69CE
:1013800023438C692343CC6923434C6A23438C6AEF
:1013900023431A430260CB6843600B6883604B6849
:1013A000C36010BD416070470146486880B2704715
:1013B0007047000010B50A2001F046FA20210748C6
:1013C00000F080F910B901200549087005A000F06F
:1013D00093FD202000F032F810BD0000000801400D
:1013E00034000020686F6D650D0A00000EB5012104
:1013F000084600F03BFA0521002000F06FF820209D
:10140000019000208DF808000C208DF809000120C3
:101410008DF80A0001A800F017F817208DF80000D9
:1014200002208DF8010003208DF8020001208DF8C4
:101430000300684600F0B8F90EBD000001490860DD
:101440007047000014040140002123498279002ADA
:101450003AD00A46126803689A430B461A600A1D7E
:10146000126803689A430B1D1A60027911440A68D6
:1014700003681A430A60184A0832126803689A43DC
:10148000154B08331A601A1D126803689A43124BF1
:101490000C331A604279102A0ED11A1F12680368A1
:1014A0001A430D4B08331A601A1D126803681A4359
:1014B000094B0C331A600DE00749427911440A6860
:1014C00003681A430A6005E0027911440A68036858
:1014D0009A430A60704700000004014030B50022C2
:1014E0008B071C0F0F2303FA04F20B4B8C1053F8DD
:1014F00024309343084C8D1044F8253023468C103B
:1015000053F824308C07240F00FA04F42343024CD0
:101510008D1044F8253030BD080001402DE9F04120
:10152000024600250026002000230024002791F811
:1015300003C00CF00F0591F803C00CF0100CBCF1C7
:10154000000F03D091F802C04CEA050591F800C0E5
:10155000BCF1000F31D0146800202BE04FF0010CDB
:101560000CFA00F3B1F800C00CEA03069E4220D149
:1015700083004FF00F0C0CFA03F7BC4305FA03FC91
:101580004CEA040491F803C0BCF1280F06D14FF0D7
:10159000010C0CFA00FCC2F814C00AE091F803C078
:1015A000BCF1480F05D14FF0010C0CFA00FCC2F859
:1015B00010C0401C0828D1D31460B1F800C0BCF1A1
:1015C000FF0F34DD546800202EE000F1080C4FF0CE
:1015D000010808FA0CF3B1F800C00CEA03069E42B9
:1015E00021D183004FF00F0C0CFA03F7BC4305FA2E
:1015F00003FC4CEA040491F803C0BCF1280F05D1A8
:1016000000F1080C08FA0CF8C2F8148091F803C035
:10161000BCF1480F07D100F1080C4FF0010808FA9F
:101620000CF8C2F81080401C0828CED35460BDE8E6
:10163000F0810000F0B50A460023002400210025B7
:1016400000F00046B6F1004F02D11D4EF16901E0F5
:101650001B4E7168C0F3034583B200F44016B6F523
:10166000401F08D121F07061154E766826F0706633
:10167000134F7E6012E000F48016B6F5801F06D18D
:10168000032606FA05F4A14341F0706106E0460D19
:10169000360103FA06F6B14341F0706122B1460DFE
:1016A000360103FA06F6314300F00046B6F1004F6A
:1016B00002D1034EF16101E0014E7160F0BD000006
:1016C000000001400246002093680B400BB101204E
:1016D00000E00020704741617047016170470000E1
:1016E00008B50121082000F0C1F84FF40040ADF822
:1016F000000010208DF8030003208DF802006946D9
:101700000448FFF70BFF4FF400410248FFF7E3FFE7
:1017100008BD0000000C014000BFFEE710B51A48EC
:10172000FFF742FE19490860194800680968401A25
:1017300018490968184A126802FB00101549086028
:1017400012480068124908601048006858B91348E8
:101750000078012807D102201049087010A0FFF777
:10176000A3FC022010BD0948006858B90B48007856
:10177000022803D009480078032803D10320074931
:101780000870EFE70120EDE76C0002402C0000201C
:101790002800002020000020240000201C00002041
:1017A000415230007047000070B5002100230F2225
:1017B000C47804B3154C246804F4E064C4F5E06410
:1017C000210AC1F10403CA40447804FA03F1847881
:1017D0001440214309010E4C0678A155047804F009
:1017E0001F050124AC4005786D11AD0005F1E02521
:1017F000C5F8004109E0047804F01F050124AC405D
:10180000044D0678761145F8264070BD0CED00E0D9
:1018100000E400E080E100E002490143024A116077
:10182000704700000000FA050CED00E029B1064AFF
:1018300052690243044B5A6104E0034A52698243ED
:10184000014B5A61704700000010024029B1064A5E
:10185000D2690243044BDA6104E0034AD26982434D
:10186000014BDA61704700000010024029B1064ABE
:1018700092690243044B9A6104E0034A92698243ED
:10188000014B9A61704700000010024030B5002102
:101890000022002400232D4D6D6805F00C0121B1BC
:1018A000042905D0082923D105E0294D056022E04F
:1018B000274D05601FE0254D6D6805F47012234D1E
:1018C0006D6805F48034022505EB92421CB9214D68
:1018D000554305600BE01D4D6D6805F400351DB1E5
:1018E0001C4D5543056002E0194D5543056002E06B
:1018F000174D056000BF00BF144D6D6805F0F00185
:101900000909154D6B5C0568DD4045600F4D6D683C
:1019100005F4E061090A104D6B5C4568DD408560A7
:101920000A4D6D6805F46051C90A0B4D6B5C456842
:10193000DD40C560054D6D6805F44041890B074DDC
:101940006B5CC568B5FBF3F5056130BD0010024066
:1019500000127A0000093D004000002050000020E5
:10196000704710B500F002F810BD00000CB5002063
:10197000019000903348006840F48030314908609D
:1019800000BF3048006800F4003000900198401C0F
:101990000190009818B90198B0F5A06FF1D12948CD
:1019A000006800F4003010B10120009001E0002038
:1019B00000900098012843D12348006840F01000AF
:1019C000214908600846006820F0030008600846C6
:1019D000006840F0020008601A48406819494860F1
:1019E0000846406848600846406840F480604860A7
:1019F0000846406820F47C1048600846406840F47F
:101A0000E81048600846006840F08070086000BF39
:101A10000C48006800F000700028F9D009484068C0
:101A200020F00300074948600846406840F0020083
:101A3000486000BF0348406800F00C000828F9D156
:101A40000CBD00000010024000200240042808D114
:101A50004FF0E021096941F004014FF0E0221161EB
:101A600007E04FF0E021096921F004014FF0E02286
:101A70001161704710B51348006840F0010011492A
:101A8000086008464068104908400E49486008460A
:101A900000680E4908400B4908600846006820F4B9
:101AA000802008600846406820F4FE0048604FF43B
:101AB0001F008860FFF755FF4FF000600449086081
:101AC00010BD0000001002400000FFF8FFFFF6FE0E
:101AD00008ED00E030B585B005460C460121022036
:101AE000FFF7B4FE01210420FFF7C0FE4020ADF84F
:101AF000100018208DF8130003208DF8120004A99F
:101B00001648FFF70BFD40211448FFF7E4FD144889
:101B10008580048000201249C8804880114800F068
:101B200085F86020ADF800000120ADF80200ADF8A6
:101B300006000020ADF8080069460A4800F02AF8BF
:101B400081200849088001224915064800F018F84C
:101B50000121044800F008F805B030BD000801403C
:101B60009E3C00200004004021B1028842F00102A6
:101B7000028004E002884FF6FE731A40028070472C
:101B80001AB183890B43838102E083898B4383816C
:101B90007047000070B5002400220023058C4FF62A
:101BA000FE7635400584028C8388048B4FF68F7552
:101BB0002C40B51E2C400D882C43751E2A400D89E3
:101BC0002A434D882A43144DA8420BD0134DA842F6
:101BD00008D0134DA84205D0124DA84202D0124D94
:101BE000A84213D14FF6F7752A404D892A434FF684
:101BF000FB752A408D882A434FF6FF652B404FF630
:101C0000FF552B408D892B43CD892B438380048343
:101C1000CD888586028470BD002C014000340140CF
:101C20000040014000440140004801400022028879
:101C30001D4B98420ED01D4B98420BD0B0F1804FF7
:101C400008D01B4B984205D01A4B984202D01A4B31
:101C5000984204D14FF68F731A404B881A43174BA2
:101C6000984207D0164B984204D04FF6FF431A40D3
:101C7000CB881A4302808B8883850B8803850A4BA7
:101C800098420BD0094B984208D00E4B984205D091
:101C90000D4B984202D00D4B984201D10B7A03862E
:101CA0000123838270470000002C01400034014072
:101CB0000004004000080040000C004000100040FC
:101CC0000014004000400140004401400048014031
:101CD00010B540F225511D4800F04AF810B31B48DA
:101CE00000F002F9C4B21A48008800F40040C8B9F4
:101CF0001748008800F4804060B10A2C03D000200F
:101D00001349088020E01248008840F40040104940
:101D1000088019E00D2C06D10D48008840F4804061
:101D20000B49088010E00A480088C0F30D000949FB
:101D30000C5407480088401C054908800846008864
:101D4000C72801DD0020088010BD000000380140D8
:101D50003C000020D63B002021B1828942F4005291
:101D6000828104E082894DF6FF731A4082817047B8
:101D700070B50246002400230025002040F66A16B4
:101D8000B14200D100BFC1F3421501F01F0301268B
:101D900006FA03F3012D02D19689334006E0022DA5
:101DA00002D1168A334001E0968A33400C12012694
:101DB00006FA04F41688344013B10CB1012000E097
:101DC000002070BDF0B50346002400260025002049
:101DD00040F66A17B94200D100BF1846C1F3421459
:101DE00001F01F06012707FA06F5012C01D10C307E
:101DF00004E0022C01D1103000E014301AB1076861
:101E00002F43076002E00768AF430760F0BD0000A2
:101E10002DE9F04786B005460E460024A24600BFD5
:101E2000A1460027B08900B100BF2F462C8A4CF68E
:101E3000FF700440F08804432C82AC894EF6F31006
:101E40000440B08831890843718908430443AC8158
:101E5000AC8A4FF6FF400440B0890443AC8201A82D
:101E6000FFF714FD1F48874202D1DDF810A001E002
:101E7000DDF80CA0A88900F4004040B10AEBCA00CC
:101E800000EB0A1031684900B0FBF1F807E00AEBFB
:101E9000CA0000EB0A1031688900B0FBF1F8642039
:101EA000B8FBF0F004012009642101FB1089A88926
:101EB00000F4004040B1322000EBC900B0FBF1F06B
:101EC00000F00700044308E0322000EB0910642111
:101ED000B0FBF1F000F00F0004432C8106B0BDE828
:101EE000F08700000038014001468888C0F30800F0
:101EF000704700BFFEE700000FB4054B10B503A903
:101F0000044A029800F0E6F810BC5DF814FB0000EB
:101F100029290008380000200022134610461146E7
:101F2000FEF7E1BA02E008C8121F08C1002AFAD180
:101F300070477047002001E001C1121F002AFBD149
:101F400070470000014908607047000070000020E1
:101F50002DE9FF5F82B00021DDE90430020DDDF8DC
:101F600040B0034318D044F61050A2F2FF3242436F
:101F70001514119801281FD0A5EB0B00401C5FEA37
:101F8000000A4FF000064E4FDFF83891B046504639
:101F900015D5CAF1000413E0119801244AA30128C1
:101FA00001D16FEA0B010298119AC0E90031C0E932
:101FB000024206B0BDE8F09FCBF10000DFE7044627
:101FC0000021404A491842EB0450CDE9001012E0CC
:101FD000E00707D032463B4640464946FEF711FA35
:101FE0008046894632463B4610461946FEF709FAB6
:101FF00006460F466410002CEAD1DDE90401DDE954
:102000000023BAF1000F06DAFEF7FBF942464B4611
:10201000FEF7F7F905E0FEF766FA42464B46FEF793
:1020200062FA04460E460022284BFEF72BFD03D829
:102030004FF0FF30014607E00022254B2046314695
:10204000FEF738F9FEF706FD102409E0002C0ADB44
:102050000A220023FEF774FB039B30321A55641EDC
:1020600050EA0102F2D1641C039AC4F11103144432
:10207000119A012A03D0012208430DD10AE0084336
:1020800004D000204FF0110B119072E7A3EB0B0569
:102090006D1E0DE05B4504DD4FF0000205F101050A
:1020A00004E003DA4FF00002A5F10105002AECD0AC
:1020B00002981199C0E90231C0E9004579E70000B2
:1020C000000014400000F03F300000000000F0432A
:1020D0000000E03F2DE9FF4F95B09B46894606463C
:1020E00000250FE2252877D100242746F84A012150
:1020F000059400E0044316F8013F203B01FA03F089
:102100001042F7D130782A2811D06FF02F033078A1
:10211000A0F13002092A16D8059A44F0020402EB15
:10212000820203EB42021044761C0590EFE759F857
:10213000042B0592002A03DA504244F4005405901F
:1021400044F00204761C30782E2816D116F8010FC0
:1021500044F004042A280DD06FF02F023078A0F14B
:102160003003092B09D807EB870302EB4303C71899
:10217000761CF3E759F8047B761C30786C280FD076
:1021800006DC4C2817D068280DD06A2814D104E04A
:10219000742810D07A280FD10DE044F400140AE01E
:1021A00044F4801401E044F440147278824202D175
:1021B00004F58014761C761C307866280BD013DC6E
:1021C000582877D009DC002875D04528F6D0462855
:1021D000F4D047281AD19DE118E0632835D064284F
:1021E00079D0652812D195E1702873D008DC672872
:1021F000F1D069286FD06E280DD06F2806D1B5E0D8
:1022000073282CD0752875D0782874D05A46179921
:1022100090476D1C75E1C4F30250022809D00328D1
:102220000DD0D9F8001004280DD00D6009F1040973
:1022300067E1D9F80010EA17C1E90052F6E7D9F8CA
:1022400000100D80F2E70D70F0E719F8041B8DF80F
:10225000001000208DF80100EA46012003E059F843
:1022600004AB4FF0FF3061074FF0000102D40DE0E6
:1022700008F101018846B9420FDA8045F8DB1AF807
:1022800008100029F4D108E008F1010188468142D4
:10229000FADB1AF808100029F6D105985B46A0EB86
:1022A000080721463846179A00F094FA284400EBB4
:1022B000080507E04DE029E10DE01AF8010B5A4648
:1022C00017999047B8F10108F7D25B462146384686
:1022D000179A13E142E00A220092C4F302524FF02F
:1022E000000A022A08D059F804CB032A4FEAEC71FD
:1022F0000AD00DE029E02AE009F1070121F00702E8
:10230000F2E802C1914609E00FFA8CFC4FEAEC7149
:10231000042A03D14FFA8CFC4FEAEC71002907DA4A
:102320000A460021DCF1000C61EB02012D2202E0E3
:10233000220504D52B228DF80420012203E0E207B8
:1023400001D02022F7E7904659E00A2102E010224E
:102350000DE010214FF0000A00910BE010224FF029
:10236000000A44F004040827009203E008224FF01A
:10237000000A0092C4F30252022A05D059F804CB95
:102380000021032A08D009E009F1070121F0070222
:10239000F2E802C1914605E01FFA8CFC042A01D143
:1023A0000CF0FF0C4FF00008220728D5702806D04B
:1023B000009B83F0100353EA0A0305D00EE040228D
:1023C0008DF80420012208E05CEA010206D03022E8
:1023D0008DF804208DF8050002229046009B83F0C2
:1023E000080353EA0A030AD15CEA010201D1620739
:1023F00005D530228DF804204FF001087F1E5828A3
:1024000004D034A003900EA802900DE036A0F9E7A6
:1024100053466046009AFEF793F984460398825C1F
:102420000298401E029002705CEA0100F0D102980E
:1024300006A9081A00F1200A600702D524F48034A6
:1024400000E00127574502DDA7EB0A0000E000206D
:1024500000EB0A01009005984144401A0590E00302
:1024600006D45B462146179A059800F0B3F9054457
:10247000002706E001A85A46C05D179990476D1CD9
:102480007F1C4745F6DBE0030CD55B462146179AD7
:10249000059800F09FF9054404E030205A4617994A
:1024A00090476D1C0099481E00900029F5DC08E05B
:1024B000029802995A460078491C02911799904750
:1024C0006D1CBAF10001AAF1010AF1DC65E100001E
:1024D00009280100303132333435363738396162FA
:1024E00063646566000000003031323334353637BE
:1024F00038394142434445460000000000F058F995
:102500000544761C307800287FF4ECAD19B02846DD
:10251000BDE8F08F620700D4062709F1070222F018
:10252000070CFCE80223E14603F000485FEA080CD0
:1025300002D00FF2702C0DE05FEA045C02D50FF2BE
:10254000682C07E05FEAC47C02D00FF2602C01E047
:10255000AFF2700C4FF0FF3823F00043CDF850C0BD
:1025600065280CD006DC452809D046281DD0472810
:102570003DD13DE0662818D067287ED138E00021A3
:10258000112F01DB112000E0781CCDE9000106A924
:102590000EA8FFF7DDFCDDE90F010E9A0391002183
:1025A000009207F1010A04914DE04FF000400097BE
:1025B000CDE9011006A90EA8FFF7CAFCDDE90F025C
:1025C00003920E9B11990022DDF80CA00093049257
:1025D00011B9791C00EB010AB7EB0A0004D4C0F171
:1025E000FF3007F1010A0490AAEB0700019044E0D4
:1025F000012F00DA01270021112F01DD112000E059
:102600003846CDE9000106A90EA8FFF7A1FCDDE9D7
:102610000F010E9A0391002104910092BA462107FE
:102620000CD40399514500DA8A46BAF1010F05DD51
:10263000009AAAF10101515C302908D0B84202DAAF
:1026400010F1040F06DA0121CDE9011015E0AAF11D
:102650000101E9E7002805DC049901440491AAEB93
:10266000000102E0411C514500DD8A460499401AF0
:10267000401C01904FF000400290200704D40198C4
:10268000504501DBCDF8048000208DF84F00029802
:102690000DF14F07B0F1004F25D02B200E9002987E
:1026A0004FF0020800280CDA404202902D200E90D4
:1026B00007E00A210298FEF72DF83031029007F862
:1026C000011DB8F10001A8F10108F2DC0298002810
:1026D000EFD1791E0E980870307800F0200040F09D
:1026E000450007F8020D12A8C01B00F10708149856
:1026F000007800B1012000EB0A01019801EBE071C4
:1027000005984144401A401E0590E00306D45B46FC
:102710002146179A059800F05DF805441498007852
:1027200018B15A46179990476D1CE00324D55B46B3
:102730002146179A059800F04DF805441CE00498CE
:10274000002807DBDDE90301884203DD0098405CD7
:10275000179901E0179930205A469047049805F1DF
:102760000105401C04900198401E019004D12E20C8
:102770005A46179990476D1CBAF10001AAF1010A57
:10278000DDDC05E017F8010B5A46179990476D1CE0
:10279000B8F10001A8F10108F4DC5B462146179A64
:1027A0000598ABE62D0000002B0000002000000083
:1027B0002DE9F041044600251E461746880404D43E
:1027C00005E039462020B0476D1C641EF9D5284627
:1027D000BDE8F0812DE9F041044600251E469046F3
:1027E000C80301D5302700E02027880404D505E080
:1027F00041463846B0476D1C641EF9D52846BDE8F1
:10280000F081000010B56FF00400FFF71FF90A48CF
:1028100000680A49B0FBF1F00949087008460078E1
:1028200000EB4001C1EBC0104FF6FF7101EAC000A0
:102830000449088010BD00005400002000127A00F6
:1028400030000020320000200146114A12884A431D
:102850004FF0E0235A6100229A611A46126942F051
:1028600001021A6100BF4FF0E022106900F001027E
:102870001AB100F48032002AF5D04FF0E02212693C
:1028800022F001024FF0E0231A6100229A617047A2
:102890003200002070B514461D460E46002814BFB5
:1028A00001210021314321F00041C1F17F6101F19B
:1028B000E041C90F16D1002C14BF0121002129438A
:1028C00021F00041C1F17F6101F1E041C90F09D15F
:1028D0001449B1EB460F08BF00281CD0690008BF9F
:1028E000002C18D03146FEF772F8024640F2FF7015
:1028F00030EA11500DD0F017B0EBE17F09D0084657
:1029000065F31E0084460B4620466146FDF776FDC2
:102910000246104670BD0120FFF714FBBDE8704071
:10292000FFF7FABA0000E0FF00BF054A128802F084
:102930004002002AF9D0C2B2014B1B1D1A80704719
:102940000038014010B5002821D0114B0022001F93
:10295000196803E0814203D80A4649680029F9D181
:1029600052B11368841A9C4204D100681844106064
:10297000104602E0506000E0186039B102680B1A9E
:10298000934203D10B681A4402604968416010BD4C
:10299000680000201FB50020E249086008718860C7
:1029A000FFF730FF4FF4A060FEF736FF4FF4E13041
:1029B00000F082FDFEF794FE0020DB49086040F243
:1029C000CF20002141F60113D84ACDE90010D849A3
:1029D000D84800F0A3FA0020042308220721009021
:1029E000FEF79AF9FEF702FD9AE1D348FEF768FB7D
:1029F000D24908600846006800287CD0CE48C078DC
:102A0000002878D1CE4800780028F6D0CD4800784C
:102A1000C82870DAC8490978C74A5278C2EBC2128E
:102A200001EB4200FDF7CEFDC749096801EB41010A
:102A3000BC4A42F82100C44A1268521E02EB42020C
:102A4000B84B53F82210C04A126802EB420253F806
:102A50002200FDF7B9FB04460021FDF751FE09D223
:102A60000120B949096801EB4101AE4A02EB81013D
:102A7000087108E00020B449096801EB4101A94A46
:102A800002EB81010871AC490979AB4A5279C2EB7A
:102A9000C21201EB4200FDF795FDAB49096801EB5D
:102AA0004101A04A02EB81018860A8A0FFF724FA47
:102AB000A549096801EB41019A4A52F82100FDF746
:102AC000E6FD044622460B46A4A0FFF715FA9E48F1
:102AD000006800EB4000934A02EB80000179A2A05D
:102AE000FFF70AFA9849096801EB41018D4A02EBA8
:102AF0008101886800E022E0FDF7C9FD0446224616
:102B00000B469CA0FFF7F8F98F480068C82803D14E
:102B100001208D49086004E08B480068401C8A4908
:102B2000086087480078401E85490870854800780D
:102B3000401C8449087092A0FEF7B6FAEEE07F4888
:102B4000006800287DD07C48C0780028FAD07A48F8
:102B5000C078452876D006DC412874D0432873D04D
:102B6000442872D1B8E0482870D0522802D05328A7
:102B7000F7D1A5E083A0FFF7BFF971480078C82816
:102B800065DA70480078002861D0FEF7C7FD01289B
:102B9000FAD0804A1268521E02EB4202614B53F88F
:102BA00022107C4A126802EB420253F82200FDF721
:102BB0000BFB07467849FDF73FFB0446FDF767FD31
:102BC00021F000410546FDF775FD7449086008468F
:102BD0000068FDF75CFD8246714A724BFDF783FC8D
:102BE000804600224FF08043FDF77DFC0646002220
:102BF0006D4BFDF706FC0446FDF75CFD03904B486A
:102C00006A490091CDE901106248006800EB40007C
:102C1000444A02EB80000179654B664A039800F054
:102C2000E3F965A0FFF768F95A480068401E0028DC
:102C300020DD002157480068401E00EB4000394A63
:102C400006E05AE04EE030E052E055E03EE028E099
:102C500042F820104F480068401E00EB400002EB95
:102C6000800001714B480068401E00EB400002EB01
:102C70008000816047480068C82803D10120454989
:102C8000086004E043480068401C424908602C4842
:102C90000078401C2A4908702A480078401E2949BB
:102CA000087048A0FEF700FA26E047A0FFF724F9D5
:102CB00000F09EFB012802D146A0FEF7F5F91BE0CB
:102CC00000F0BCFB44A0FEF7EFF915E000F0F8F8C7
:102CD00042A0FEF7E9F90FE000F0D6F840A0FEF7B9
:102CE000E3F909E000F0DEF83EA0FEF7DDF903E0CD
:102CF0003DA0FEF7D9F900BF10E01048006868B9A0
:102D00000F480078C82809DA0E48007830B1FEF77D
:102D100005FD012802D01AA0FEF7C6F9FEF7FEFC59
:102D200063E6000074000020BC812142D409002029
:102D30002C0400406C000240120000200000002023
:102D40001000002011000020040000202D2D2D2D4A
:102D50002D2D2D2D2D2D2D0D0A0000007261643AB0
:102D600025660D0A000000006469723A25640D0AA8
:102D70000000000073706565643A25660D0A000066
:102D800051300000726563696576652072200D0A16
:102D9000000000000800002000007A440C00002021
:102DA0001F85EB51B81E094000C0C240CDCCCC3DC0
:102DB000C3F5484033337B41636F6E666967200D0E
:102DC0000A00000052300000726563696576652074
:102DD000610D0A00414330005330000048300000CC
:102DE000443000004530000052430000F0B50B3085
:102DF000154D20F007010024144A0FE003688B42B0
:102E00000BD38B4205D95E1A43184768C3E90067A4
:102E100000E04368136002C004E0021D106800284F
:102E2000ECD12046002802D1286808B10020F0BD6E
:102E3000064A07481060074A121A22F00702C0E942
:102E4000002401202860D7E76C00002068000020E3
:102E5000DC3C0020D83E002010B504463CB10821DF
:102E60000748FEF73AFC01200649086007E0082100
:102E70000348FEF730FC4FF0FF300249086010BDF8
:102E8000000C01402400002010B510210348FEF77B
:102E900024FC03200249087010BD0000000C014012
:102EA0001C00002010B510210348FEF714FC03207D
:102EB0000249087010BD0000000C01401C000020F9
:102EC0000EB518E011484FF07E510091104B1A4694
:102ED000CDE9011000214FF07E5000F085F800F0A0
:102EE00087FA04E0FEF71AFC012800D000E0F9E7B9
:102EF00000BF00F0A3FA074800780028E2D00020C5
:102F00000549086000F09AFA0EBD0000D4090020BF
:102F1000C3F5484034000020200000202DE9F04790
:102F200004460D4616461F46DDE9088900F014F8F0
:102F30003B46324629462046FEF73EF94946404682
:102F4000FEF7C8FDFFF7AEFF032002490870BDE899
:102F5000F08700001C00002008B501210D20FEF7BD
:102F600085FC2020ADF8000048208DF8030069465C
:102F70001A48FEF7D3FA4020ADF8000018208DF86B
:102F8000030003208DF8020069461448FEF7C6FAD4
:102F900040211248FEF79FFB01211148FEF74AFB32
:102FA0000820ADF8000010208DF8030003208DF8F4
:102FB000020069460B48FEF7B1FA08210948FEF7FE
:102FC0008AFB1020ADF8000069460648FEF7A6FA15
:102FD00010210448FEF781FB08BD000000080140F5
:102FE00000023000000C01402DE9FF4F8FB01E9D04
:102FF0000F98FDF74CFB0022F34BCDE90801FDF7DC
:1030000059F9CDE90A01FDF729FB80B241F601111A
:10301000884203DD002013B0BDE8F08FEB481C9917
:10302000FDF7D8F80690DDE91101FDF7CDF8049021
:10303000DDE91101FDF776F803900499FDF7CAF870
:1030400005900699FDF7F8F80790FDF720FB0022A0
:10305000DF4BCDE90801FDF72DF9CDE90A01FDF7B8
:10306000FDFA1FFA80F8DDE91C01FDF75BF8014667
:1030700005901D98FDF7E0F806900F99FDF7AAF866
:103080000790FDF704FB0022D14BCDE90801FDF7C5
:1030900011F9CDE90A01FDF7E1FA1FFA80FBCD48ED
:1030A0001199FDF7C9F80790FDF7F1FA0022C84B16
:1030B000CDE90801FDF7FEF8CDE90A01FDF7CEFAEA
:1030C00080B20D9000270220FFF790FE814602207B
:1030D000FFF78CFE0646BA46002400200C90D84527
:1030E00026DC4746DDE91C01FDF7A6F80A903846C4
:1030F000FDF771FA09900A99FDF76CF80B90FDF74E
:1031000099FAA9F80000B9F80010C819FDF75AFAA1
:103110000A900F99FDF75BF80B90FDF78BFA1FFAF9
:1031200080FA07EB0A0030804846FFF70BFC03E00B
:103130005F464846FFF706FC0F98FDF7A8FA002205
:10314000A34BCDE90601FDF7B5F8CDE90801FDF780
:1031500085FA80B20B90FDF73EFA0F9008E114BBA0
:103160009D481C99FDF768F80190FDF790FACDE9AC
:10317000020100F07BF90022984BCDE90401FDF734
:1031800040F9974A974BCDE90601FDF73AF900223D
:103190008F4BCDE90801FDF78DF8CDE90A01FDF768
:1031A0005DFA25F81400002C56DDBC4254DAA1006B
:1031B000481EFDF707FA05EB4401049031F8021CA4
:1031C0004800FDF7FFF902900C99FCF7ABFF039064
:1031D0000499FDF731F805EB4401069031F8020C33
:1031E000FDF7F9F905900699FCF7EEFF0790FDF75A
:1031F0004EFA0022764BCDE90801FDF75BF8CDE9E8
:103200000A01FDF72BFA3080308818B1308825F894
:10321000140002E0022025F81400A100481EFDF76A
:10322000DFF9CDE9080105EB440131F8021C480043
:10323000FDF7C8F904900C99FCF774FF0590FDF7B1
:1032400026FACDE90601DDE90823FFF723FBCDE9E6
:103250000A01FDF72FFA0C90BC4206DB07EB0A00CF
:10326000A04202DD0D9825F8140007EB0A00A042E9
:103270006EDC2046FDF7AFF90B900F99FDF736FA9B
:1032800066D2A100481EFDF79DF904900F98FDF746
:10329000B8F905EB4000A0EB440030F8020C400008
:1032A0000190FDF78FF902900C99FCF73BFF03901A
:1032B0000499FCF7C1FF06900F98FDF7A2F905EB02
:1032C0004000A0EB440030F8020C0490FDF783F9B5
:1032D00005900699FCF778FF0790FDF7D8F90022D2
:1032E0003B4BCDE90801FCF7E5FFCDE90A01FDF70D
:1032F000B5F93080308818B1308825F8140002E024
:10330000022025F81400A100481EFDF769F9CDE957
:1033100008010F98FDF775F905EB4000A0EB44009C
:1033200030F8020C40000390FDF74CF904900C9922
:10333000FCF7F8FE0590FDF7AAF9CDE90601DDE9F5
:103340000823FFF7A7FACDE90A01FDF7B3F90C90BE
:103350002046FDF740F90B900F99FDF7C7F905D10D
:10336000002025F814003046FFF7ECFA601C84B208
:103370002046FDF730F90B900F99FDF7C1F9BFF426
:10338000EEAE1098FFF768FD00211748FDF708FF23
:1033900000210F98FDF7B4F90AD20F98FDF74AF90A
:1033A000401C80B201460B900F48FDF7FBFF03E085
:1033B00000210D48FDF7F6FF0F98FDF73BF90B498B
:1033C0000860012027E600000000F83F499D803C8E
:1033D0000000E03F00404444499D003C006AF84042
:1033E0006F1283C0CAA1E53F6C0002402800002094
:1033F00010B50E480078012815D00D48008890B10E
:1034000002200C49088001210B48FDF7C9FE01216B
:1034100008482C38FEF7A8FB012006491839088017
:103420000249087010BD0020FCE700001C000020CD
:10343000D40900202C0400406C00024010B500218B
:103440000748FEF791FB00210648FDF7A9FE002082
:1034500004496C39086702200349087010BD000058
:10346000000400406C0002401C0000202DE9F041E7
:1034700006460F46FDF75AFA041E0D4618BF0120F6
:10348000284320F00040C0F17F6000F1E040C00F11
:103490000ED0301C18BF0120384320F00040C0F18E
:1034A0007F6000F1E040C00F04BF0120FEF74AFD3D
:1034B00020462946BDE8F08110B586B004460121BA
:1034C00044F20400FEF7D2F94FF40070ADF8140096
:1034D00003208DF8160018208DF8170005A91C4848
:1034E000FEF71CF84FF48060ADF8140004208DF84E
:1034F000170005A91648FEF711F825208DF80000E1
:1035000003208DF801008DF8020001208DF80300E2
:103510006846FEF749F901940020ADF80800ADF8BF
:103520000A00ADF80C00ADF810000C20ADF80E004C
:1035300001A90848FEF76CFC012240F2255105481C
:10354000FEF740FC01210348FEF706FC06B010BD63
:1035500000080140003801407835000800000020D4
:1035600074000000241F0008EC35000874000020DF
:1035700064420000341F0008000000000100000049
:103580000100000000000000C80000000000000072
:10359000000000000000000000000000010000002A
:1035A000000000000000000000000000000000001B
:1035B0000000000000000000000000000102030401
:1035C00001020304060708090204060800A24A04CF
:1035D00000000000000000000102030406070809C3
:0C35E000000000000000000000000000DF
:04000005080000ED02
:00000001FF
