:020000040800F2
:10000000E804002001010008BD0C00080B010008F5
:10001000B90C000849010008F111000800000000B7
:10002000000000000000000000000000790E000841
:10003000630B000800000000170100081901000808
:100040001B0100081B0100081B0100081B01000820
:100050001B0100081B0100081B0100081B01000810
:100060001B0100081B0100081B0100081B01000800
:100070001B0100081B010008910A00081B01000871
:100080001B0100081B0100081B0100081B010008E0
:100090001B0100081B0100081B0100081B010008D0
:1000A0001B0100081B0100081B0100081B010008C0
:1000B0001B0100081B0100081B0100081B010008B0
:1000C0001B0100081B0100081B0100081B010008A0
:1000D0001B010008ED0F00081B0100081B010008B0
:1000E0001B0100081B0100081B010008DFF80CD0F1
:1000F00000F018F800480047A9130008E8040020A1
:100100000648804706480047FEE7FEE7FEE7FEE7B1
:10011000FEE7FEE7FEE7FEE7FEE7FEE78D0F0008DD
:10012000ED000008064C074D06E0E06840F00103D2
:1001300094E8070098471034AC42F6D3FFF7DAFF93
:10014000C4150008E415000800BFFEE77CB50A26C8
:100150000020009001900025002426E0144850F86B
:100160002410432000F048FB002503E06D1C06200E
:1001700001F08AF8684600F059FB08B9B542F5D39A
:10018000B54207D29DF80000522803D19DF8010026
:10019000432804D00020064941F8240004E0054823
:1001A0000078401C03490870641C062CD6DB7CBD1B
:1001B000100000202800002010B50021837A0122C1
:1001C00002FA03F13D4A126842F001023B4B1A6009
:1001D0003A4A1C3212688A43384B1C331A60027B3D
:1001E000CAB9364A0C3212688A43344B0C331A604F
:1001F0004288C38842EA0343304A4032847A42F854
:1002000034300288838842EA03432C4A4032847A9D
:1002100002EBC4025360027B012A19D1274A0C3237
:1002200012680A43254B0C331A604288038842EA5D
:100230000343224A4032847A42F83430C2888388A9
:1002400042EA03431D4A4032847A02EBC4025360FF
:10025000C27A3AB9194A121D12688A43174B1B1DFC
:100260001A6006E0154A121D12680A43134B1B1D43
:100270001A60028932B9114A143212688A430F4B4C
:1002800014331A600289012A06D10C4A143212680A
:100290000A430A4B14331A60427B012A06D1074AEB
:1002A0001C3212680A43054B1C331A60034A126859
:1002B00022F00102014B1A6010BD000000660040F0
:1002C00030B5024600200023146824F002041460B4
:1002D000146844F00104146000E05B1C546804F0EE
:1002E00001041CB94FF6FF74A342F6D1546804F020
:1002F00001040CB900206CE08C79012C04D1146845
:1003000044F08004146003E0146824F08004146056
:10031000CC79012C04D1146844F04004146003E04B
:10032000146824F0400414600C7A012C04D1146881
:1003300044F02004146003E0146824F020041460E6
:100340004C7A012C04D1146844F01004146003E0CA
:10035000146824F0100414608C7A012C04D1146801
:1003600044F00804146003E0146824F008041460E6
:10037000CC7A012C04D1146844F00404146003E026
:10038000146824F0040414608C78A407CD7844EA3F
:1003900005640D7944EA05444D7944EA05540D8815
:1003A0006D1E2C43D461146824F0010414600023F2
:1003B00000E05B1C546804F001041CB14FF6FF74AC
:1003C000A342F6D1546804F001040CB1002000E00F
:1003D000012030BD0246002019B9D36803F00300A4
:1003E00006E0012903D1136903F0030000E00020B7
:1003F000704700002DE9F04188B004460D461646CE
:100400001F46DDF838800121042000F0BBFC0121EB
:10041000480600F0A7FC4FF48050ADF81C00032004
:100420008DF81E0018208DF81F0007A9244800F041
:1004300099FB4FF40060ADF81C0048208DF81F00B8
:1004400007A91F4800F08EFB00208DF816008DF8DC
:1004500017008DF818008DF819008DF81A008DF826
:100460001B008DF812808DF813408DF814608DF804
:100470001550ADF8107004A91248FFF721FF0020B5
:100480008DF80A008DF80B0001208DF80C00400358
:10049000ADF800000020ADF802004FF40050ADF8B8
:1004A00004000020ADF80600ADF8080001208DF82A
:1004B0000D006846FFF780FE002008B0BDE8F0811F
:1004C000000801400064004010B500F5D87303EB4C
:1004D00001131B6803F004031372137A53B900F578
:1004E000D87303EB01131B6840F2FF7404EA535303
:1004F000136009E000F5D87303EB01131B686FF07C
:10050000604404EAD303536000F5D87303EB01138E
:100510001B6803F00203537200F5D87303EB011359
:100520005B6803F00F03937200F5D87303EB0113BC
:100530005B681B0AD37400F5D87303EB01139B6847
:10054000D37200F5D87303EB01139B681C0A147374
:1005500000F5D87303EB01139B681C0C547300F572
:10056000D87303EB01139B681B0E937300F5D873CC
:1005700003EB0113DB68D37300F5D87303EB0113AE
:10058000DB681C0A147400F5D87303EB0113DB68F5
:100590001C0C547400F5D87303EB0113DB681B0EBD
:1005A000937421B9C36843F02003C36003E0036977
:1005B00043F02003036110BD10B50246002093688C
:1005C00003F08063B3F1806F00D110E0936803F013
:1005D0000063B3F1006F01D1012008E0936803F0DC
:1005E0008053B3F1805F01D1022000E00420042891
:1005F00074D002F5C07303EB00131B6803F0010411
:1006000002F5C07303EB00131C600B7A7BB94B7AC5
:100610000C8843EA445302F5C07404EB00142468C8
:10062000234302F5C07404EB0014236010E00B7A3E
:100630004C6843EAC4034C7A234302F5C07404EBCC
:1006400000142468234302F5C07404EB00142360F3
:100650008B7A03F00F038B7202F5C07303EB001368
:100660005B6823F00F0402F5C07303EB00135C60BA
:1006700002F5C07303EB00135B688C7A234302F529
:10068000C07404EB001463608B7B1C064B7B44EA54
:1006900003440B7B44EA0323CC7A234302F5C07462
:1006A00004EB0014A3608B7C1C064B7C44EA0344DF
:1006B0000B7C44EA0323CC7B234302F5C07404EB98
:1006C0000014E36002F5C07303EB00131B6843F0F2
:1006D000010402F5C07303EB00131C6010BD0000A1
:1006E00010B50246002321B1012907D002290FD1FC
:1006F00009E090681D4C00EA04030BE090681C4C74
:1007000000EA040306E090681A4C00EA040301E0E2
:10071000002300BF00BF184C181BA34216D007DCF3
:1007200083B16FF08060184470B1022818D111E0D5
:10073000B0F5007F10D0114C204448B1B0F5003F17
:100740000ED10BE002230DE000230BE0002309E0B3
:10075000002307E0012305E0012303E0012301E07A
:10076000002300BF00BFD8B210BD0000030000048A
:100770000003000800000310000100080001FFF75B
:100780002DE9F04105460E46012400272AE0285DA8
:10079000174908702819407848700020C870281937
:1007A00080780871601E032190FBF1F0114951F827
:1007B000200088B1601E032190FBF1F00D4951F833
:1007C0002080424608210A4800F04EF83844C7B25B
:1007D0000821074800F0D8F8062000F055FD00F089
:1007E00019FDE41CB01EA042D1DC3846BDE8F08102
:1007F00000000020100000202DE9F04105460E46C3
:10080000002403E008480555601C84B2082CF9DB7D
:1008100032460821044800F027F8074600F0FAFCA9
:100820003846BDE8F08100000000002030B585B0FA
:10083000054600210B48FFF7CDFD10B9002005B09B
:1008400030BD6A4600210748FFF73EFE002404E061
:100850000DF10B00005D2855641C082CF8D39DF8A1
:100860000A00ECE7006400402DE9F04186B08046C4
:100870000D4616460024700D0190C6F3D10002907B
:1008800000208DF80C008DF80D008DF80E5000BF83
:1008900006E018F804100DF10F000155601C84B239
:1008A000AC42F6DB01A90D48FFF786FE074600249F
:1008B00001E0601C84B239460848FFF711FF18B9FF
:1008C00040F6FF708442F4DB40F6FF70844203DBA5
:1008D000012006B0BDE8F0810020FAE70064004086
:1008E00000B587B00121042000F04CFA01218803F3
:1008F00000F048FA4FF40070ADF8180018208DF899
:100900001B0003208DF81A0006A91D4800F02AF9E3
:100910004FF48060ADF8180004208DF81B0006A984
:10092000174800F01FF925208DF8040003208DF8EA
:1009300005008DF8060001208DF8070001A800F0E1
:10094000BFF94FF4E13002900020ADF80C00ADF893
:100950000E00ADF81000ADF814000C20ADF8120038
:1009600002A9084800F0D8FB012240F224410548C2
:1009700000F0ADFB0121034800F06AFB07B000BDA9
:10098000000801400038014070B505460C460022C1
:100990004021084800F068FB0021074800F098F863
:1009A00005484438056584640121034800F090F847
:1009B00070BD0000003801404400024000B58DB019
:1009C000FFF78EFF0121084600F0BCF92C48029089
:1009D0002C480390102004903220059000200690AF
:1009E000802007900020089009900A904FF48050D2
:1009F0000B9000200C9002A9234800F094F80122EB
:100A000080211F48001F00F02FFB012202211E48F9
:100A100000F080F80E208DF8040003208DF805000A
:100A20008DF8060001208DF8070001A800F048F9B4
:100A3000134802901548039000200490322005903E
:100A400000200690802007900020089009900A90CE
:100A50004FF480500B9000200C9002A90A481430EB
:100A600000F061F8012240210548001F00F0FCFA67
:100A700001210548143000F02BF80DB000BD000036
:100A8000043801408000002044000240B2000020F1
:100A900010B54FF4005000F027F840B1012240217A
:100AA000034800F0E1FA4FF4005000F003F810BDE5
:100AB0000038014000F0805111B10349086001E0A5
:100AC00002494860704700000404024000000240F0
:100AD00021B1026842F00102026004E002684FF6B0
:100AE000FE731A400260704701460020002201F0A8
:100AF000805313B1054B1A6801E0054B1A6802EAEE
:100B000001030BB1012000E0002070470004024007
:100B1000000002401AB103680B43036002E003685F
:100B20008B430360704710B50022026847F6F073EC
:100B30009A430C6A8B6823430C6923434C69234313
:100B40008C692343CC6923434C6A23438C6A234337
:100B50001A430260CB6843600B6883604B68C360D4
:100B600010BD70472DE9F041024600250026002007
:100B700000230024002791F803C00CF00F0591F822
:100B800003C00CF0100CBCF1000F03D091F802C0B0
:100B90004CEA050591F800C0BCF1000F31D0146893
:100BA00000202BE04FF0010C0CFA00F3B1F800C06C
:100BB0000CEA03069E4220D183004FF00F0C0CFA82
:100BC00003F7BC4305FA03FC4CEA040491F803C0A4
:100BD000BCF1280F06D14FF0010C0CFA00FCC2F852
:100BE00014C00AE091F803C0BCF1480F05D14FF0E2
:100BF000010C0CFA00FCC2F810C0401C0828D1D32C
:100C00001460B1F800C0BCF1FF0F34DD546800205F
:100C10002EE000F1080C4FF0010808FA0CF3B1F8CF
:100C200000C00CEA03069E4221D183004FF00F0C56
:100C30000CFA03F7BC4305FA03FC4CEA040491F8F0
:100C400003C0BCF1280F05D100F1080C08FA0CF81C
:100C5000C2F8148091F803C0BCF1480F07D100F12D
:100C6000080C4FF0010808FA0CF8C2F81080401C7C
:100C70000828CED35460BDE8F08141617047000080
:100C800008B50121082000F07DF84FF40040ADF8D0
:100C9000000010208DF8030003208DF80200694643
:100CA0000448FFF75FFF4FF400410248FFF7E5FFFC
:100CB00008BD0000000C014000BFFEE770470000C7
:100CC00070B5002100230F22C47804B3154C2468AA
:100CD00004F4E064C4F5E064210AC1F10403CA40ED
:100CE000447804FA03F184781440214309010E4C3E
:100CF0000678A155047804F01F050124AC4005785E
:100D00006D11AD0005F1E025C5F8004109E004785A
:100D100004F01F050124AC40044D0678761145F817
:100D2000264070BD0CED00E000E400E080E100E052
:100D300002490143024A1160704700000000FA05B1
:100D40000CED00E029B1064A52690243044B5A6196
:100D500004E0034A52698243014B5A617047000024
:100D60000010024029B1064AD2690243044BDA61FD
:100D700004E0034AD2698243014BDA617047000004
:100D80000010024029B1064A92690243044B9A615D
:100D900004E0034A92698243014B9A617047000064
:100DA0000010024030B500210022002400232D4D08
:100DB0006D6805F00C0121B1042905D0082923D163
:100DC00005E0294D056022E0274D05601FE0254D17
:100DD0006D6805F47012234D6D6805F480340225AA
:100DE00005EB92421CB9214D554305600BE01D4DAA
:100DF0006D6805F400351DB11C4D5543056002E0DA
:100E0000194D5543056002E0174D056000BF00BF56
:100E1000144D6D6805F0F0010909154D6B5C05680E
:100E2000DD4045600F4D6D6805F4E061090A104D25
:100E30006B5C4568DD4085600A4D6D6805F4605166
:100E4000C90A0B4D6B5C4568DD40C560054D6D689A
:100E500005F44041890B074D6B5CC568B5FBF3F5A4
:100E6000056130BD0010024000127A0000093D000B
:100E70003D0000204D000020704710B500F002F842
:100E800010BD00000CB500200190009033480068B0
:100E900040F480303149086000BF3048006800F4F9
:100EA000003000900198401C0190009818B90198FA
:100EB000B0F5A06FF1D12948006800F4003010B1FE
:100EC0000120009001E0002000900098012843D10B
:100ED0002348006840F01000214908600846006877
:100EE00020F0030008600846006840F00200086037
:100EF0001A484068194948600846406848600846F2
:100F0000406840F4806048600846406820F47C10E7
:100F100048600846406840F4E810486008460068A9
:100F200040F08070086000BF0C48006800F000705E
:100F30000028F9D00948406820F0030007494860BC
:100F40000846406840F00200486000BF034840681F
:100F500000F00C000828F9D10CBD00000010024080
:100F600000200240042808D14FF0E021096941F037
:100F700004014FF0E022116107E04FF0E021096920
:100F800021F004014FF0E0221161704710B51348C1
:100F9000006840F0010011490860084640681049A7
:100FA00008400E494860084600680E4908400B4951
:100FB00008600846006820F4802008600846406801
:100FC00020F4FE0048604FF41F008860FFF755FFD3
:100FD0004FF000600449086010BD0000001002409E
:100FE0000000FFF8FFFFF6FE08ED00E010B540F24C
:100FF0002441134800F041F808B312480078C8B9FA
:10100000002240210E4800F02FF800210E48FFF783
:101010005FFD0D485838C06DC0F1320009490870B5
:10102000322009495839C8650848486601210648F0
:10103000FFF74EFD024800880148001D008810BDE2
:10104000003801403C00002058000240B20000205F
:1010500021B1828942F40052828104E082894DF6F6
:10106000FF731A40828170471AB1838A0B438382CF
:1010700002E0838A8B438382704770B50246002466
:1010800000230025002040F66A16B14200D100BFBF
:10109000C1F3421501F01F03012606FA03F3012DE7
:1010A00002D19689334006E0022D02D1168A3340E0
:1010B00001E0968A33400C12012606FA04F41688E1
:1010C000344013B10CB1012000E0002070BDF0B538
:1010D0000346002400260025002040F66A17B94286
:1010E00000D100BF1846C1F3421401F01F060127CA
:1010F00007FA06F5012C01D10C3004E0022C01D1D5
:10110000103000E014301AB107682F43076002E086
:101110000768AF430760F0BD2DE9F04786B005468C
:101120000E460024A24600BFA1460027B08900B1A8
:1011300000BF2F462C8A4CF6FF700440F088044311
:101140002C82AC894EF6F3100440B08831890843F4
:10115000718908430443AC81AC8A4FF6FF400440D8
:10116000B0890443AC8201A8FFF71CFE1F488742E8
:1011700002D1DDF810A001E0DDF80CA0A88900F490
:10118000004040B10AEBCA0000EB0A103168490088
:10119000B0FBF1F807E00AEBCA0000EB0A10316877
:1011A0008900B0FBF1F86420B8FBF0F004012009DD
:1011B000642101FB1089A88900F4004040B132206D
:1011C00000EBC900B0FBF1F000F00700044308E0B9
:1011D000322000EB09106421B0FBF1F000F00F00A9
:1011E00004432C8106B0BDE8F087000000380140C0
:1011F00000BFFEE702E008C8121F08C1002AFAD1AA
:1012000070477047002001E001C1121F002AFBD186
:1012100070470000002003E00021034A1154401CE5
:101220000828F9DB7047000000000020002003E0E0
:101230000021034A1154401C0828F9DB70470000C4
:101240000800002010B56FF00400FFF78BFE0A487D
:1012500000680A49B0FBF1F00949087008460078B7
:1012600000EB4001C1EBC0104FF6FF7101EAC00076
:101270000449088010BD00005400002000127A00CC
:10128000380000203A0000200146114A12884A43E3
:101290004FF0E0235A6100229A611A46126942F027
:1012A00001021A6100BF4FF0E022106900F0010254
:1012B0001AB100F48032002AF5D04FF0E022126912
:1012C00022F001024FF0E0231A6100229A61704778
:1012D0003A0000207CB500250020009001902D49A7
:1012E0004820FFF789FA002633E00620FFF7CCFFFD
:1012F0006846FFF79BFA20B39DF80000482820D1EC
:101300009DF80100303800281BD49DF801003038CA
:10131000062816DA9DF8010030381F4951F82000E0
:1013200078B99DF8010030381C4951F8200040B1CF
:1013300001219DF801003038174A42F82010701C36
:10134000C6B2002503E000200DF805006D1C082D35
:10135000F9DB134800788642C7DB002416E00F480B
:1013600050F824000C4951F8241048430B4951F817
:101370002410884203D0FFF759FF00207CBD0648A7
:1013800010F8240007490855601CC4B2062CE6DB9F
:101390000120F3E70000EF076800002010000020A4
:1013A000280000203100002008B5FFF74BFF4FF464
:1013B000A060FFF7BDFCFFF763FCFFF7FFFA00201A
:1013C0000423082207210090FFF714F801201D498B
:1013D00008604FF47A70FFF757FFFEF7B7FE4FF43F
:1013E0007A70FFF751FFFFF775FF29E01648007884
:1013F00000281BDD15480078FF280FD1124800781F
:10140000401E1249085CFF2808D10F4800780E28BA
:1014100004D10D4801780D48FFF7B2F900200A49C0
:101420000870012240210A48FFF71EFE0620FFF740
:101430002BFF0848FFF7FAF910B1064800F00CF846
:10144000D4E70000BC8121423C000020B200002013
:10145000003801400800002070B5044600262078BE
:1014600048285DD006DC41285BD0442876D045284A
:1014700075D193E0512804D0522819D05328F7D1C0
:101480008AE060783038002811D460783038062837
:101490000DDA607830384449085C012807D160785B
:1014A0003038424A52F820105220FFF7A5F977E071
:1014B00060783038002812D46078303806280EDA88
:1014C000607830383A49085C48B901216078303892
:1014D000374A115437480078401C364908700025B7
:1014E00010E0324850F825003149495D48432F4902
:1014F00051F82510884201D1012000E00020064665
:10150000681CC5B2062D05DA2A4800782A490978F0
:101510008842E6D01EB129494120FFF76DF93FE02E
:101520003EE0607843281BD0522832D1A078303872
:10153000002812D4A078303806280EDAA078303887
:101540001949085C48B90121A0783038164A11546D
:101550001B480078401C1A4908701BE01DE01EE083
:10156000A0783038002813D4A078303806280FDA55
:10157000A07830380C49085C012809D10021A078F6
:101580003038094A11540E480078401E0C49087042
:1015900000E000BF00BF03E002E001E000E000BFA8
:1015A00000BFFFF743FE70BD310000201000002097
:1015B0002A00002029000020280000200000EF075A
:1015C00030000020E4150008000000206800000042
:1015D000F41100084C160008680000208004000088
:1015E00004120008000000000000000000000000DD
:1015F000000000000000200000004000000080000B
:1016000000000001000000020000000400000000D3
:1016100000000000000000000000000000000000CA
:101620000000000000010203040102030406070891
:10163000090204060800000000A24A04000000009D
:0C16400000000000010203040607080976
:04000005080000ED02
:00000001FF
